:0C086C0002170000041900000000C10089
:100AE300120B43120B58120B2D120B9D120773128C
:0A0AF30005CB1203E0120AFD80F5A6
:03000B000208D216
:1008D200C0E0C0F0C083C082C0D075D000C000C0EC
:1008E20001C002C003C004C005C006C0070518E568
:1008F2001870020517C394EEE517940240087517A5
:1009020000751800D20012097C120A231204DFD0EB
:1009120007D006D005D004D003D002D001D000D039
:0A092200D0D082D083D0F0D0E032B4
:1003E000E4F55330000CC2001207738E0D8F0E120D
:1003F0000B9D20013CE50C75F064A4FFC3E50E9F46
:10040000E50D95F0E4400CF51CF51B751A7F751988
:10041000438008F51CF51BF51AF519AF1CAE1BAD92
:100420001AAC191202EA120AC3E4FBFA794C02046C
:10043000B8D3E50E94D0E50D9407500E751C0075E9
:100440001B80751A54751942805AC3E50E94A0E5B5
:100450000D940F400E751C00751B80751A5475198C
:10046000438041AC0DAD0EE41202B18F1C8E1B8D8A
:100470001A8C19E4FBFA79C8784212020F7B9A7A37
:10048000997919783E120106E4FBFAF978C0120056
:10049000157B007A80795478421201068F1C8E1BDE
:1004A0008D1A8C19AF1CAE1BAD1AAC191202EA12D0
:1004B0000AC37B007A8079547842AF1CAE1BAD1A18
:1004C000AC1912020FE4FBFA797A78441201068F14
:0E04D0001C8E1B8D1A8C191202EA8E0A8F0BDD
:0104DE0022FB
:0A0BCF00C0F9A4B0999282F880905A
:10087800080FFFFFFFFFFFFFFFFF020D0000010C45
:0B08880019010900020A00000108002D
:10097C00E4F5807F06120BAAAF08A8077401088063
:10098C0002C333D8FCF580E4FF120BAA7580FF7FFD
:10099C0007120BAA740F2508F8E6F580E4FF120B7A
:1009AC00AA0508D3E5089407748094804003E4F505
:0109BC000832
:0109BD002217
:100A23007580FF200102C280AF097E00EF7004C20F
:100A3300818012EF64014E7004C2828008EF640269
:0F0A43004E7002C2837F04120BAAE4FF020BAABB
:100AFD00E50970030206EBE509640170030209F3D1
:0A0B0D00E509640270031207FA22E2
:1006EB00750FC67510FF7511FF7512FFAE0DAF0EAE
:1006FB007C037DE812037D7C007D0A12037D74CFA1
:10070B002DF582740B3CF583E493F513AE0DAF0E10
:10071B007C007D6412037D7C007D0A12037D74CF07
:10072B002DF582740B3CF583E493547FF514AE0DD9
:10073B00AF0E7C007D0A12037D7C007D0A12037DC7
:10074B0074CF2DF582740B3CF583E493F515AE0D48
:10075B00AF0E7C007D0A12037D74CF2DF582740BD6
:08076B003CF583E493F516222E
:1009F300750F8C7510FF7511FF7512FF7513FF7559
:100A030014FFE55275F00A8475F00A84E5F0900B43
:100A1300CF93F515E55275F00A84E5F093F51622A8
:1007FA00750F8C7510FF7511FF7512FF7513FFAE1B
:10080A000AAF0B7C037DE812037D7C007D0A12038C
:10081A007D74CF2DF582740B3CF583E493547FF5F8
:10082A0014AE0AAF0B7C007D6412037D7C007D0A46
:10083A0012037D74CF2DF582740B3CF583E493F596
:10084A0015AE0AAF0B7C007D0A12037D7C007D0A7F
:10085A0012037D74CF2DF582740B3CF583E493F576
:02086A00162254
:100B7E003132334134353642373839432A30234403
:1008930010420101010101010101010101010101F5
:1008A3000101015200C101102101010101010101F6
:1008B3000101010101010101010131001032FFFFBA
:0E08C300FFFFFFFFFFFFFFFFFFFFFFFFFFFF35
:10092C00EF642A701E0509E509C394037480948052
:10093C004003E4F509E5096401600485520C228545
:10094C000C5222BF3018E50964017023E552D39490
:10095C0000748094804003155222E4F55222BF3873
:10096C0009E50964017008055222BF3702B2012261
:030003008F5322F6
:1005CB00E4FEEEC3940474809480400302065EE460
:1005DB00FDEDC39404748094805074EE25E025E007
:1005EB0024212DF8E6FFEE25E025E024422DF8E648
:1005FB006F6059EF64017020EE25E025E0247EF555
:10060B0082E4340BF583E5822DF582E43583F583A3
:10061B00E493FF12092C801EEE25E025E0247EF5E5
:10062B0082E4340BF583E5822DF582E43583F58383
:10063B00E493FF120003EE25E025E024422DF8E6BB
:10064B00FFEE25E025E024212DF8A6070D80820E74
:03065B000205CDC8
:01065E002279
:1004DF00E53125E025E02432F8E625E0FFA2C4E46B
:1004EF00334FFFE53125E025E02432F8A607E5314B
:1004FF0025E025E02433F8E625E0FFA2C2E4334FE0
:10050F00FFE53125E025E02433F8A607E53125E0A6
:10051F0025E02434F8E625E0FFA2B5E4334FFFE5EC
:10052F003125E025E02434F8A607E53125E025E064
:10053F002435F8E625E0FFA2B4E4334FFFE531257B
:10054F00E025E02435F8A607E4FFEFC39404748098
:10055F0094805035E53125E025E024322FF8E6541C
:10056F000FFD7C00700EE53125E025E024422FF8C9
:10057F00E4F68012ED640F4C700CE53125E025E0B8
:10058F0024422FF876010F80C10531C3E531940461
:10059F00748094804003E4F531E53114600F1460EA
:1005AF001114601324037013D2B3C2B022D2B0C29D
:0B05BF00B122D2B1C2B222D2B2C2B34C
:0105CA00220E
:0D0B9D00120A797FCC120A527F44020A52DC
:10077300E4F554F555120A797FCC120A527FBE1262
:100783000A52120AA08F56120AA07554008F55E51B
:1007930055F554E556F555E55454F87055E554C4EC
:1007A300F854F0C868F554E555C4540F48F555AEF0
:1007B30054FF7C007D6412036B8E548F55E55654B1
:1007C3000FFCE41202B6E4FBFA79C8784012010682
:1007D300C004C005C006C007AC54AD55E41202B155
:1007E300D003D002D001D0001200151202EA8E54B9
:0607F3008F55AE54AF5516
:0107F90022DD
:040B17007F057E00D8
:100B1B007C007D0C12036BEF1FAC0670011E4C703A
:020B2B00F622B0
:020A5200AB07F0
:100A5400E4FAEAC39408748094805012C294EB13AD
:100A64009294120B17D294EBC313FB0A80E47F0514
:050A74007E00020B1BD7
:100AA000E4FAEAC39408748094805014C294EBC3AF
:100AB00013FBD294309403430380120B170A80E295
:020AC000AF0382
:010AC2002211
:100A7900C202D2947F0C7E00120B1BC2947F507E5F
:100A890000120B1BD2947F0A7E00120B1BA29492B8
:060A990002120B17A2027D
:010A9F002234
:100B2D00120B8E7F901209BE120B6D7F031209BE40
:060B3D00120B6D020BC358
:100AC3008F54120B8E7F901209BE120B6D7F401252
:100AD30009BE120B6DAF541209BE120B6D020BC38C
:040BB700D2A07F2821
:080BBB0000AE071FEE70F922E5
:0F0B8E00D2A1120BB7C2A17F28120BBBC2A022AB
:0C0BC300C2A1120BB7D2A17F28020BBB0D
:100B6D00120BB7A2A19202C2A07F28120BBBA20248
:010B7D002255
:0209BE00AD0783
:1009C000E4FCECC39408748094805024C2A07F2877
:1009D000120BBBED30E704D2A18002C2A17F281226
:1009E0000BBBD2A0ED25E0FD7F28120BBB0C80D203
:0209F000C2A0A3
:0109F20022E2
:0D0BAA0053A01FEF5407C43354E042A022B3
:100B43007F05120BAA5380AF7F04120BAA7580FF97
:050B5300E4FF020BAA03
:100B5800438E805389F0758A20758CD1C28DD28CD2
:050B6800D2A9D2AF226A
:10000E00020356E86480F8E933E83360110460F0C7
:10001E00ED33EC337009E8FCE9FDEAFEEBFF220458
:10002E0060DED3EB9FEA9EE99DE8C2E78CF0C2F753
:10003E0095F0400CE8CCF8E9CDF9EACEFAEBCFFB1F
:10004E0012032185D0F05804700320D5B3E8047054
:10005E00075002B2D502036092D5EC0460F7E4CCEF
:10006E00C0E0C398F8603B94186008400DD0E0FBE8
:10007E00020338E4FBFAC9FC8028E830E406E4C940
:10008E00FBE4CAFCE830E305E4C9CACBFCE854073C
:10009E006010F8C3E913F9EA13FAEB13FBEC13FC47
:1000AE00D8F130F52FC3E49CFCEF9BFFEE9AFEEDEA
:1000BE0099FDD0E0FBEF4E4D4C701222DB03020394
:1000CE005DEC2CFCEF33FFEE33FEED33FDED30E750
:1000DE00EB020338EF2BFFEE3AFEED39FDD0E0FBDD
:1000EE0050130BBB0003020360ED13FDEE13FEEF86
:0800FE0013FFEC13FC020338B0
:10010600EC4D6011E8497017ED33EC3304600DE4F3
:10011600FCFFFEFD22E933E8330470F802035612B1
:10012600032158046009E4CC2481500628500902B2
:10013600036028400302035DC0E0EB4A7044B980C7
:1001460006D0E0FB02034CEF4E701CBD8008EBFFAF
:10015600EAFEE9FD80EBE98DF0A4FEE5F00201EF91
:10016600E9CDF9EAFEEBFFEF89F0A4FCE5F0CE89D4
:10017600F0A42EFFE435F0CD89F0A42DFEE435F091
:100186008067EF4E7005BD80D780C3EF8BF0A4ACBF
:10019600F0EE8BF0A42CFCE435F0F8EF8AF0A42CFA
:1001A600E5F038FCE433CB8DF0A42CFCE5F03BF80D
:1001B600EE8AF0A42CFCE5F038F8E433CF89F0A4FD
:1001C6002CFCE5F038CF3400CE89F0A42FFFE5F003
:1001D6003EFEE433C98DF0A42EFEE5F039CD8AF05B
:1001E600A42FFFE5F03EFEE43DFD33D0E0FB5007D3
:1001F6000BBB000F020360EC2CFCEF33FFEE33FE6B
:06020600ED33FD02033898
:10020C00020360EC5D046005E859047003020356B8
:10021C00120321580460F6EC4860F2EC7004FDFE09
:10022C00FF22C860DB2481C85009C39860025006C5
:10023C0002035D9850CAF582E9294B4A7005AB82DE
:10024C0002034C75F0007C1A7880C3EF9BEE9AED9C
:10025C0099400DC3EF9BFFEE9AFEED99FDE842F03D
:10026C00DC23ACF0D0E0FFD0E0FED0E0FDAB822090
:10027C00E7101BEB60BAEC2CFCEF33FFEE33FEED1A
:10028C0033FD020338E803F830E705C0F075F000E1
:10029C00EF2FFFEE33FEED33FD40B830E7C280AAFE
:1002AC0075F020800E75F010800575F0087D007ECD
:1002BC00007F003392D530D5031203D2EC334010BB
:1002CC00EF33FFEE33FEED33FDEC33FCD5F0ED22D6
:0E02DC00E5F0247EA2D513CC92E7CDCEFF2212
:1002EA00EDD2E7CD33EC3392D524814006E4FFFE0C
:1002FA00FDFC22FCE4CFCECDCC24E0501174FF806B
:10030A00EDC3CC13CCCD13CDCE13CECF13CF047007
:07031A00F030D5DE0203D232
:10032100E9D2E7C933E833F892D5EDD2E7CD33EC22
:0703310033FC5002B2D5229B
:10033800EC30E7100FBF000C0EBE00080DBD000426
:100348000BEB6014A2D5EB13FCED92E7FD2274FFD2
:10035800FCFDFEFF22E480F8A2D574FF13FC7D802B
:03036800E480EF3F
:0300000002065F96
:0C065F00787FE4F6D8FD7581560206A6EF
:10036B00EF8DF0A4A8F0CF8CF0A428CE8DF0A42EA6
:02037B00FE2260
:10037D00BC000BBE0029EF8DF084FFADF022E4CC64
:10038D00F875F008EF2FFFEE33FEEC33FCEE9DEC2D
:10039D00984005FCEE9DFE0FD5F0E9E4CEFD22ED73
:1003AD00F8F5F0EE8420D21CFEADF075F008EF2FBD
:1003BD00FFED33FD4007985006D5F0F222C398FDAE
:0503CD000FD5F0EA224B
:0E03D200C3E49FFFE49EFEE49DFDE49CFC223C
:10066B00020AE3E493A3F8E493A34003F68001F2B8
:10067B0008DFF48029E493A3F85407240CC8C33390
:10068B00C4540F4420C8834004F456800146F6DF5F
:10069B00E4800B010204081020408090086CE47E7B
:1006AB00019360BCA3FF543F30E509541FFEE49354
:1006BB00A360010ECF54C025E060A840B8E493A31B
:1006CB00FAE493A3F8E493A3C8C582C8CAC583CA46
:1006DB00F0A3C8C582C8CAC583CADFE9DEE780BEFE
:0108D1000026
:00000001FF
