:0C08360002170000041900000000C100BF
:100A3F00120B3E120B53120B28120B981207441273
:100A4F00059C1204CC120AF8AF1CAE1BAD1AAC19E0
:080A5F001202EA120AD880E736
:03000B0002089C4C
:10089C00C0E0C0F0C083C082C0D075D000C000C022
:1008AC0001C002C003C004C005C006C0070518E59E
:1008BC001870020517C394EEE517940240087517DB
:1008CC0000751800D2001209981208F61203E0D035
:1008DC0007D006D005D004D003D002D001D000D070
:0A08EC00D0D082D083D0F0D0E032EB
:1004CC0030000CC2001207448E0D8F0E120B9820B8
:1004DC00012DE50C75F064A4FFC3E50E9FE50D95A9
:1004EC00F0E4400CF51CF51B751A7F751943800858
:1004FC00F51CF51BF51AF519E4FBFA794C8072D34F
:10050C00E50E94D0E50D9407500E751C00751B80FC
:10051C00751A547519428053C3E50E94A0E50D94D9
:10052C000F400E751C00751B80751A54751943808D
:10053C003AAE0DAF0E7C007D6412037DAC06AD07A8
:10054C00E41202B17B9A7A997919783E120106E489
:10055C00FBFAF978C01200157B007A807954784246
:10056C001201068F1C8E1B8D1A8C197B007A8079D8
:10057C00547842AF1CAE1BAD1AAC1912020FE4FB3F
:10058C00FA79C878421201061202EA8E0A8F0B22FF
:0A0BCA00C0F9A4B0999282F880905F
:10084200080FFFFFFFFFFFFFFFFF020D0000010C7B
:0B08520019010900020A000001080063
:10099800E4F5807F06120BA5AF08A807740108804C
:1009A80002C333D8FCF580E4FF120BA57580FF7FE6
:1009B80007120BA5740F2508F8E6F580E4FF120B63
:1009C800A50508D3E5089407748094804003E4F5EE
:0109D8000816
:0109D90022FB
:1008F6007580FF7F04200107120BA5C280800512B8
:100906000BA5D280E4FF120BA5E509700B7F04123C
:100916000BA5C281D282800FE5096401700D7F04A8
:10092600120BA5D281C282D2838011E509640270BE
:10093600107F04120BA5D281D282C283E4FF120B70
:02094600A522E8
:100AF800E50970030206BCE50964017003020A0FE8
:0A0B0800E509640270031207CB2216
:1006BC00750FC67510FF7511FF7512FFAE0DAF0EDD
:1006CC007C037DE812037D7C007D0A12037D74CAD5
:1006DC002DF582740B3CF583E493F513AE0DAF0E40
:1006EC007C007D6412037D7C007D0A12037D74CA3C
:1006FC002DF582740B3CF583E493547FF514AE0D09
:10070C00AF0E7C007D0A12037D7C007D0A12037DF6
:10071C0074CA2DF582740B3CF583E493F515AE0D7C
:10072C00AF0E7C007D0A12037D74CA2DF582740B0A
:08073C003CF583E493F516225D
:100A0F00750F8C7510FF7511FF7512FF7513FF753C
:100A1F0014FFE55275F00A8475F00A84E5F0900B27
:100A2F00CA93F515E55275F00A84E5F093F5162291
:1007CB00750F8C7510FF7511FF7512FF7513FFAE4A
:1007DB000AAF0B7C007D6412037D7C007D0A120343
:1007EB007D74CA2DF582740B3CF583E493547FF52D
:1007FB0014AE0AAF0B7C007D0A12037D7C007D0AD0
:10080B0012037D74CA2DF582740B3CF583E493F5CA
:10081B0015AE0AAF0B7C007D0A12037D74CA2DF551
:0B082B0082740B3CF583E493F5162269
:100B79003132334134353642373839432A30234408
:10085D00104201010101010101010101010101012B
:10086D000101015200C1011021010101010101012C
:10087D000101010101010101010131001032FFFFF0
:0E088D00FFFFFFFFFFFFFFFFFFFFFFFFFFFF6B
:10094800EF642A701E0509E509C394037480948036
:100958004003E4F509E5096401600485520C228529
:100968000C5222BF3018E50964017023E552D39474
:1009780000748094804003155222E4F55222BF3857
:1009880009E50964017008055222BF3702B2012245
:030003008F1D222C
:10059C00E4FEEEC3940474809480400302062FE4BE
:1005AC00FDEDC39404748094805074EE25E025E036
:1005BC0024212DF8E6FFEE25E025E024422DF8E677
:1005CC006F6059EF64017020EE25E025E02479F589
:1005DC0082E4340BF583E5822DF582E43583F583D3
:1005EC00E493FF120948801EEE25E025E02479F5FE
:1005FC0082E4340BF583E5822DF582E43583F583B3
:10060C00E493FF120003EE25E025E024422DF8E6EA
:10061C00FFEE25E025E024212DF8A6070D80820EA3
:03062C0002059E26
:01062F0022A8
:1003E000E53125E025E02432F8E625E0FFA2C4E46B
:1003F000334FFFE53125E025E02432F8A607E5314B
:1004000025E025E02433F8E625E0FFA2C2E4334FDF
:10041000FFE53125E025E02433F8A607E53125E0A6
:1004200025E02434F8E625E0FFA2B5E4334FFFE5EC
:100430003125E025E02434F8A607E53125E025E064
:100440002435F8E625E0FFA2B4E4334FFFE531257B
:10045000E025E02435F8A607E4FFEFC39404748098
:1004600094805035E53125E025E024322FF8E6541C
:100470000FFD7C00700EE53125E025E024422FF8C9
:10048000E4F68012ED640F4C700CE53125E025E0B8
:1004900024422FF876010F80C10531C3E531940461
:1004A000748094804003E4F531E53114600F1460EA
:1004B0001114601324037013D2B3C2B022D2B0C29D
:0B04C000B122D2B1C2B222D2B2C2B34C
:0104CB00220E
:0D0B9800120A8E7FCC120A677F44020A67A2
:10074400E4F51DF51E120A8E7FCC120A677FBE12D5
:100754000A67120AB58F1F120AB5751D008F1EE5B0
:100764001EF51DE51FF51EE51D54F87055E51DC465
:10077400F854F0C868F51DE51EC4540F48F51EAEC4
:100784001DFF7C007D6412036B8E1D8F1EE51F54BC
:100794000FFCE41202B6E4FBFA79C87840120106B1
:1007A400C004C005C006C007AC1DAD1EE41202B1F2
:1007B400D003D002D001D0001200151202EA8E1D1F
:0607C4008F1EAE1DAF1EEA
:0107CA00220C
:040B12007F057E00DD
:100B16007C007D0C12036BEF1FAC0670011E4C703F
:020B2600F622B5
:020A6700AB07DB
:100A6900E4FAEAC39408748094805012C294EB1398
:100A79009294120B12D294EBC313FB0A80E47F0504
:050A89007E00020B16C7
:100AB500E4FAEAC39408748094805014C294EBC39A
:100AC50013FBD294309403430380120B120A80E285
:020AD500AF036D
:010AD70022FC
:100A8E00C202D2947F0C7E00120B16C2947F507E4F
:100A9E0000120B16D2947F0A7E00120B16A29492AD
:060AAE0002120B12A2026D
:010AB400221F
:100B2800120B897F901209DA120B687F031209DA17
:060B3800120B68020BBE67
:100AD8008F1D120B897F901209DA120B687F401262
:100AE80009DA120B68AF1D1209DA120B68020BBE85
:040BB200D2A07F2826
:080BB60000AE071FEE70F922EA
:0F0B8900D2A1120BB2C2A17F28120BB6C2A022BA
:0C0BBE00C2A1120BB2D2A17F28020BB61C
:100B6800120BB2A2A19202C2A07F28120BB6A20257
:010B7800225A
:0209DA00AD0767
:1009DC00E4FCECC39408748094805024C2A07F285B
:1009EC00120BB6ED30E704D2A18002C2A17F28120F
:1009FC000BB6D2A0ED25E0FD7F28120BB60C80D2F1
:020A0C00C2A086
:010A0E0022C5
:0D0BA50053A01FEF5407C43354E042A022B8
:100B3E007F05120BA55380AF7F04120BA57580FFA6
:050B4E00E4FF020BA50D
:100B5300438E805389F0758A20758CD1C28DD28CD7
:050B6300D2A9D2AF226F
:10000E00020356E86480F8E933E83360110460F0C7
:10001E00ED33EC337009E8FCE9FDEAFEEBFF220458
:10002E0060DED3EB9FEA9EE99DE8C2E78CF0C2F753
:10003E0095F0400CE8CCF8E9CDF9EACEFAEBCFFB1F
:10004E0012032185D0F05804700320D5B3E8047054
:10005E00075002B2D502036092D5EC0460F7E4CCEF
:10006E00C0E0C398F8603B94186008400DD0E0FBE8
:10007E00020338E4FBFAC9FC8028E830E406E4C940
:10008E00FBE4CAFCE830E305E4C9CACBFCE854073C
:10009E006010F8C3E913F9EA13FAEB13FBEC13FC47
:1000AE00D8F130F52FC3E49CFCEF9BFFEE9AFEEDEA
:1000BE0099FDD0E0FBEF4E4D4C701222DB03020394
:1000CE005DEC2CFCEF33FFEE33FEED33FDED30E750
:1000DE00EB020338EF2BFFEE3AFEED39FDD0E0FBDD
:1000EE0050130BBB0003020360ED13FDEE13FEEF86
:0800FE0013FFEC13FC020338B0
:10010600EC4D6011E8497017ED33EC3304600DE4F3
:10011600FCFFFEFD22E933E8330470F802035612B1
:10012600032158046009E4CC2481500628500902B2
:10013600036028400302035DC0E0EB4A7044B980C7
:1001460006D0E0FB02034CEF4E701CBD8008EBFFAF
:10015600EAFEE9FD80EBE98DF0A4FEE5F00201EF91
:10016600E9CDF9EAFEEBFFEF89F0A4FCE5F0CE89D4
:10017600F0A42EFFE435F0CD89F0A42DFEE435F091
:100186008067EF4E7005BD80D780C3EF8BF0A4ACBF
:10019600F0EE8BF0A42CFCE435F0F8EF8AF0A42CFA
:1001A600E5F038FCE433CB8DF0A42CFCE5F03BF80D
:1001B600EE8AF0A42CFCE5F038F8E433CF89F0A4FD
:1001C6002CFCE5F038CF3400CE89F0A42FFFE5F003
:1001D6003EFEE433C98DF0A42EFEE5F039CD8AF05B
:1001E600A42FFFE5F03EFEE43DFD33D0E0FB5007D3
:1001F6000BBB000F020360EC2CFCEF33FFEE33FE6B
:06020600ED33FD02033898
:10020C00020360EC5D046005E859047003020356B8
:10021C00120321580460F6EC4860F2EC7004FDFE09
:10022C00FF22C860DB2481C85009C39860025006C5
:10023C0002035D9850CAF582E9294B4A7005AB82DE
:10024C0002034C75F0007C1A7880C3EF9BEE9AED9C
:10025C0099400DC3EF9BFFEE9AFEED99FDE842F03D
:10026C00DC23ACF0D0E0FFD0E0FED0E0FDAB822090
:10027C00E7101BEB60BAEC2CFCEF33FFEE33FEED1A
:10028C0033FD020338E803F830E705C0F075F000E1
:10029C00EF2FFFEE33FEED33FD40B830E7C280AAFE
:1002AC0075F020800E75F010800575F0087D007ECD
:1002BC00007F003392D530D5031203D2EC334010BB
:1002CC00EF33FFEE33FEED33FDEC33FCD5F0ED22D6
:0E02DC00E5F0247EA2D513CC92E7CDCEFF2212
:1002EA00EDD2E7CD33EC3392D524814006E4FFFE0C
:1002FA00FDFC22FCE4CFCECDCC24E0501174FF806B
:10030A00EDC3CC13CCCD13CDCE13CECF13CF047007
:07031A00F030D5DE0203D232
:10032100E9D2E7C933E833F892D5EDD2E7CD33EC22
:0703310033FC5002B2D5229B
:10033800EC30E7100FBF000C0EBE00080DBD000426
:100348000BEB6014A2D5EB13FCED92E7FD2274FFD2
:10035800FCFDFEFF22E480F8A2D574FF13FC7D802B
:03036800E480EF3F
:03000000020630C5
:0C063000787FE4F6D8FD75815202067751
:10036B00EF8DF0A4A8F0CF8CF0A428CE8DF0A42EA6
:02037B00FE2260
:10037D00BC000BBE0029EF8DF084FFADF022E4CC64
:10038D00F875F008EF2FFFEE33FEEC33FCEE9DEC2D
:10039D00984005FCEE9DFE0FD5F0E9E4CEFD22ED73
:1003AD00F8F5F0EE8420D21CFEADF075F008EF2FBD
:1003BD00FFED33FD4007985006D5F0F222C398FDAE
:0503CD000FD5F0EA224B
:0E03D200C3E49FFFE49EFEE49DFDE49CFC223C
:10063C00020A3FE493A3F8E493A34003F68001F28B
:10064C0008DFF48029E493A3F85407240CC8C333BF
:10065C00C4540F4420C8834004F456800146F6DF8E
:10066C00E4800B0102040810204080900836E47EE0
:10067C00019360BCA3FF543F30E509541FFEE49383
:10068C00A360010ECF54C025E060A840B8E493A34A
:10069C00FAE493A3F8E493A3C8C582C8CAC583CA75
:1006AC00F0A3C8C582C8CAC583CADFE9DEE780BE2D
:01089B00005C
:00000001FF
