:10040D000619060504030201C183C100C101C10221
:04041D0002170000C2
:100A8000120A97120AAE12082A120A4F120B5912B2
:070A90000AC312036480F5A4
:03000B00020529C2
:10052900C0E0C0F0C083C082C0D075D000C000C098
:0D05390001C002C003C004C005C006C00719
:100546000518E51870020517AE17FF7C007D6412CA
:100556000215ED4C7005D201120889C3E518948C7A
:10056600E51794004008D2027517007518001207A7
:0A0576001712027812069812085DB1
:10058000D007D006D005D004D003D002D001D000CF
:0B059000D0D0D082D083D0F0D0E03279
:100889003007120569C3E569941E74809480400598
:10089900E4F569C207300012056AC3E56A94327447
:0B08A9008094804005E4F56AC2002244
:100AC300300108C2011209301209E3300205C202E3
:040AD30012059B224B
:0A0B59002003030207501206562283
:1009E300AF58C3EF940774809480400DD3EF9422E3
:0C09F300748094805003C20322D20322BF
:0B0B4E00C0F9A4B0999282F88090FFDB
:10042100080FFFFFFFFFFFFFFFFF06090A0A0A0A85
:050431000A0A010800A9
:10085D007580FF200302C280300402C28130050280
:10086D00C282300702C283300002C287E5436002B4
:0C087D00C2867F04120B29E4FF020B2945
:10075000E558C4540F900B4E93F50FE558540F9382
:10076000F5107511BFE557C4540F93F512E55754B2
:100770000F93F5137514BFE556C4540F93F515E5A3
:0707800056540F93F51622F9
:10065600AF547E00EF7005750FBF8009EF64014E41
:100666007008750FFF7510BF8006750FBF7510FFF8
:10067600E509900B4E93F511E50A93F512E50B93F8
:10068600F513E50C93F514E50D93F515E50E93F5C5
:0206960016222A
:10069800E4F5807F06120B29AF08A80774010880CB
:1006A80002C333D8FCF580E4FF120B297580FF7F65
:1006B80007120B29740F2508F8E6F580E4FF120BE2
:1006C800290508D3E5089407748094804003E4F56D
:0106D8000819
:0106D90022FE
:100AFC00303132333435363738395352232A594250
:100436001044010101010101010101010101010154
:100446000101015500015400014300C104C105101A
:100456002201010101010101010101010101010165
:10046600010132001033FFFFFFFFFFFFFFFFFFFF19
:06047600FFFFFFFFFFFF86
:1005FF008F65E565B4590630034C020787E565B48E
:10060F00530E300341E554703DC2047554018013FD
:10061F00E565B45203020A68E565B4420930032662
:10062F00E4F554020A3530031DD3E5559405748063
:10063F0094805010E56524D0FFAE55055574092EF2
:07064F00F8A60722D20522E4
:030B6C008F652270
:100787001208DFE554700B1207BE300429D20002AD
:100797000A35E5546401700F1207BE30041875540A
:1007A70002120A35D20422E55464027009300506A4
:0707B7001209C2E4F554220F
:10036400E4F563C3E5639404748094804003020459
:100374000CE4F564C3E5649404748094804003023F
:100384000407E56325E025E024442564F8E6FFE559
:100394006325E025E024222564F8E6FE6F605FEE25
:1003A4006022E56325E025E024FCF582E4340AF5C7
:1003B40083E5822564F582E43583F583E493FF12B3
:1003C40005FF8020E56325E025E024FCF582E43484
:1003D4000AF583E5822564F582E43583F583E493A5
:1003E400FF120B6CE56325E025E024442564F8E660
:1003F400FFE56325E025E024222564F8A6070564CB
:0804040002037805630203679F
:01040C0022CD
:10027800E53225E025E02433F8E625E0FFA2C4E4D2
:10028800334FFFE53225E025E02433F8A607E532B1
:1002980025E025E02434F8E625E0FFA2C2E4334F48
:1002A800FFE53225E025E02434F8A607E53225E00D
:1002B80025E02435F8E625E0FFA2B5E4334FFFE555
:1002C8003225E025E02435F8A607E53225E025E0CB
:1002D8002436F8E625E0FFA2B4E4334FFFE53225E3
:1002E800E025E02436F8A607E4FFEFC39404748001
:1002F80094805035E53225E025E024332FF8E65484
:100308000FFD7C00700EE53225E025E024442FF82F
:10031800E4F68012ED640F4C700CE53225E025E020
:1003280024442FF876010F80C10532C3E5329404C6
:10033800748094804003E4F532E53214600F146051
:100348001114601324037013C2B0D2B322C2B1D205
:0B035800B022C2B2D2B122C2B3D2B2B6
:010363002277
:03047C00011F005D
:080B63007F3B7E5ADEFEDFFC41
:010B6B002267
:100A4F007F781208B48F1FEF6462600A120A687D04
:090A5F00627F781209A002097CF3
:10097C00E4F563F563C3E5639406748094805013C7
:10098C00E5632414FF1208B474192563F8A607054F
:03099C006380E293
:01099F002235
:10090900E4F566F566C3E56694067480948050162E
:10091900E5662414FF74192566F8E6FD1209A0128C
:060929000B63056680DF90
:01092F0022A5
:0208B4008F644F
:1008B600120B0C7FA01207F5120AEBAF641207F5B4
:1008C600120AEB120B0C7FA11207F5120AEB1209A2
:0808D600568F65120B42AF655D
:0108DE0022F7
:1009A0008F678D68120B0C7FA01207F5120AEBAF50
:1009B000671207F5120AEBAF681207F5120AEB028D
:0209C0000B42E8
:0C047F00C106025D0000045F00000000E8
:0600030000007F24DFFE77
:0100090022D4
:100A1B00E4FEEEC3940874809480500DD2901200C3
:090A2B0003C2901200030E80E9E1
:010A3400229F
:10059B00E4F58BF58D120A1BD28E309103308FFA56
:1005AB00C28E308F05C28FD20622C206AF8D755D0B
:1005BB00008F5EE55EAD8BF55DEDF55EAC5DE41237
:1005CB0001927B967A43798B783C12000E8F628E68
:1005DB00618D608C5F20031B200018E4FFFE7DF013
:1005EB007C41AB62AA61A960A85F12011460025042
:0405FB0002D2002206
:0E0B1B0080828486888A8C81838587898B8D71
:09048B000756005906050307237A
:10082A00E4F563FD7F8E120AD7E4F563C3E56394AA
:10083A0007748094805015E563900B1B93FF7456E0
:10084A002563F8E6FD120AD7056380E07D807F8E76
:03085A00020AD7B8
:10093000E4F563F563C3E563940774809480501510
:10094000E563900B2293FF1206DA74562563F8A62E
:0509500007056380E0D3
:01095500227F
:1009FF00E4FEEEC3940874809480500FC297EF13F7
:0B0A0F0092A3EFC313FFD2970E80E705
:010A1A0022B9
:100AD700C29300C29700D293001209FFAF05120913
:040AE700FFC2932295
:1006DA00E4FDC29300C29700D293001209FFE4FF1F
:1006EA00EFC39408748094805011C297EDC313FD30
:1006FA0030A303430580D2970F80E5C29300C297C7
:0C070A0000D29700C2A300D2A300AF05EC
:0107160022C0
:040B3600D2A07F28A2
:080B3A0000AE071FEE70F92266
:0F0B0C00D2A1120B36C2A17F28120B3AC2A0222F
:0C0B4200C2A1120B36D2A17F28020B3A90
:100AEB00120B36A2A19208C2A07F28120B3AA208C1
:010AFB0022D8
:0207F500AD074E
:1007F700E4FCECC39408748094805024C2A07F2842
:10080700120B3AED30E704D2A18002C2A17F281271
:100817000B3AD2A0ED25E0FD7F28120B3A0C80D2CF
:02082700C2A06D
:0108290022AC
:10095600E4FCECC39408748094805017120B36EDB7
:1009660025E0FD30A103430501C2A07F28120B3A02
:050976000C80DFAF055D
:01097B002259
:08049400C107016900016A00C3
:10071700E4F580300004D2848002C284D3E5439498
:1007270002748094804007E4F543D207F554D3E57B
:10073700699400748094804004D2868002C2867FC8
:0907470005120B29E4FF020B2945
:1008DF00E4F566C3E566940674809480501B740932
:1008EF002566F8E6640A7005C205020A35E56664F6
:0908FF00057002D205056680DADD
:0109080022CC
:1009C200E4FFEFC3940674809480500F74092FF8EB
:1009D200E6FE74192FF8A6060F80E7120909020A2B
:0109E20035DF
:1007BE00E4F566F566C3E56694067480948050266B
:1007CE0074092566F8E6FF74192566F8E66F60076A
:1007DE000543C204020A35E56664057005D204F5C8
:0607EE004322056680CFE6
:0107F40022E2
:100A6800751906751A05751B04751C03751D027525
:080A78001E01120909C204224B
:100A350075090A750A0A750B0A750C0A750D0A758A
:0A0A45000E0AC204E4F555C20522B2
:0D0B290053A01FEF5407C43354E042A02234
:100A97007580FF7F04120B297580FF7F05120B29D4
:070AA700E4F580FF020B29BA
:100AAE00438E805389F0758ACD758CD4C28DD28CCD
:050ABE00D2A9D2AF2215
:10000E00EC4D6011E8497017ED33EC3304600DE4EC
:10001E00FCFFFEFD22E933E8330470F80202001201
:10002E0001CB58046009E4CC248150062850090203
:10003E00020A284003020207C0E0EB4A7044B9806E
:10004E0006D0E0FB0201F6EF4E701CBD8008EBFF00
:10005E00EAFEE9FD80EBE98DF0A4FEE5F00200F783
:10006E00E9CDF9EAFEEBFFEF89F0A4FCE5F0CE89CD
:10007E00F0A42EFFE435F0CD89F0A42DFEE435F08A
:10008E008067EF4E7005BD80D780C3EF8BF0A4ACB8
:10009E00F0EE8BF0A42CFCE435F0F8EF8AF0A42CF3
:1000AE00E5F038FCE433CB8DF0A42CFCE5F03BF806
:1000BE00EE8AF0A42CFCE5F038F8E433CF89F0A4F6
:1000CE002CFCE5F038CF3400CE89F0A42FFFE5F0FC
:1000DE003EFEE433C98DF0A42EFEE5F039CD8AF054
:1000EE00A42FFFE5F03EFEE43DFD33D0E0FB5007CC
:1000FE000BBB000F02020AEC2CFCEF33FFEE33FEBB
:06010E00ED33FD0201E2E9
:1001140074F8CC6480CCC86480C8F58204604FC392
:10012400EB9FF5F0EA9E42F0E99D42F0E89C45F031
:10013400603C501DE5825FFFE582D313CB5BCBF4BB
:100144002B5582FB50280ABA002409B900200880E4
:100154001DE5825BFBE582D313CF5FCFF4C3132F7E
:100164005582FF50090EBE00050DBD00010CC3EB06
:100174009FF5F0EA9E42F0E99D42F0E89C45F0606C
:0901840007CC4820E701B3EC228E
:10018D0075F020800E75F010800575F0087D007EED
:10019D00007F003392D530D50312026AEC33401044
:1001AD00EF33FFEE33FEED33FDEC33FCD5F0ED22F6
:0E01BD00E5F0247EA2D513CC92E7CDCEFF2232
:1001CB00E9D2E7C933E833F892D5EDD2E7CD33EC7A
:0701DB0033FC5002B2D522F3
:1001E200EC30E7100FBF000C0EBE00080DBD00047E
:1001F2000BEB6014A2D5EB13FCED92E7FD2274FF2A
:10020200FCFDFEFF22E480F8A2D574FF13FC7D8082
:03021200E480EF96
:0300000002049D5A
:0C049D00787FE4F6D8FD75816A0204E463
:10021500BC000BBE0029EF8DF084FFADF022E4CCCD
:10022500F875F008EF2FFFEE33FEEC33FCEE9DEC96
:10023500984005FCEE9DFE0FD5F0E9E4CEFD22EDDC
:10024500F8F5F0EE8420D21CFEADF075F008EF2F26
:10025500FFED33FD4007985006D5F0F222C398FD17
:050265000FD5F0EA22B4
:0E026A00C3E49FFFE49EFEE49DFDE49CFC22A5
:1004A900020A80E493A3F8E493A34003F68001F2DF
:1004B90008DFF48029E493A3F85407240CC8C33354
:1004C900C4540F4420C8834004F456800146F6DF23
:1004D900E4800B010204081020408090040DE47EA2
:1004E900019360BCA3FF543F30E509541FFEE49318
:1004F900A360010ECF54C025E060A840B8E493A3DF
:10050900FAE493A3F8E493A3C8C582C8CAC583CA09
:10051900F0A3C8C582C8CAC583CADFE9DEE780BEC1
:01049C00005F
:00000001FF
