:0B05730002120000C100C101011100D4
:100839001208801208C712073B1208D51206C01207
:0A084900086B1208531201D180F56C
:03000B000204F7F5
:1004F700C0E0C0F0C083C082C0D075D000C000C0CB
:0D05070001C002C003C004C005C006C0074B
:100514000513E51370020512AE12FF7C007D641210
:1005240005DDED4C701BD2000511C3E511940A746E
:10053400809480400C751100300304C2038002D201
:1005440003C3E51394EEE51294024002D2011206AD
:040554007E12000E05
:10055800D007D006D005D004D003D002D001D000F7
:0B056800D0D0D082D083D0F0D0E032A1
:10085300300009C200E55670031207B6300108C222
:08086300011206C01208D522A3
:1008A9003730303036303030353030303430303029
:10057E00104301010101010101010101010101010C
:10058E0001010156000142000353000000C1021098
:10059E00210101010101010101010101010101011D
:1005AE00010131001032FFFFFFFFFFFFFFFFFFFFD2
:0605BE00FFFFFFFFFFFF3D
:0908FA00ED700574532FF806227D
:10027A00AE0774142EF8E6FFC4540FFCEF540F2C8B
:10028A00FF74142EF8A607ED700774142EF8068072
:10029A002874142EF8E6D39400748094804007746E
:1002AA00142EF8168013EE6402700874142EF87671
:1002BA0017800674142EF8763BEE640270107414DC
:1002CA002EF8E6D39417748094804016800E741426
:1002DA002EF8E6D3943B74809480400674142EF86A
:1002EA00E4F674142EF8E6FF75F00A8475F00A84B1
:1002FA00ADF0EDC454F0FDEF75F00A84E5F0540F4B
:10030A004DFF74142EF8A607EE9008B993FF7414E3
:07031A002EF8E6FD02089534
:1000FA008F19E519B4371BE54260030201D0055692
:10010A00D3E55694037480948050030201D0E4F539
:10011A005622E519B4361BE55660030201D00542A2
:10012A00D3E54294037480948050030201D0E4F52D
:10013A004222E5196435703EE55624FE600D1460CE
:10014A001024027012E4FD7F028009E4FD7F018021
:10015A0003E4FDFF12027AE54224FE600D146010EA
:10016A0024027062E4FD7F028009E4FD7F018003BE
:10017A00E4FDFF0208FAE5196434704AE55624FEE4
:10018A00600D146010240270137D017F02800A7DC5
:10019A00017F0180047D01E4FF12027AE54224FE18
:1001AA00600D146010240270137D017F02800A7DA5
:1001BA00017F0180047D01E4FF1208FAE55670060A
:0701CA00E5427002D202229F
:06000300BF3402C202221C
:1001D100E4F517C3E5179404748094804003020288
:1001E10079E4F518C3E518940474809480400302FF
:1001F1000274E51725E025E024432518F8E6FFE51C
:100201001725E025E024212518F8E6FE6F605FEE52
:100211006022E51725E025E024A9F582E43408F5FC
:1002210083E5822518F582E43583F583E493FF1293
:1002310000FA8020E51725E025E024A9F582E434C1
:1002410008F583E5822518F582E43583F583E49387
:10025100FF120003E51725E025E024432518F8E601
:10026100FFE51725E025E024212518F8A607051844
:080271000201E505170201D4AA
:010279002262
:10000E00E53125E025E02432F8E625E0FFA2C4E440
:10001E00334FFFE53125E025E02432F8A607E53120
:10002E0025E025E02433F8E625E0FFA2C2E4334FB5
:10003E00FFE53125E025E02433F8A607E53125E07C
:10004E0025E02434F8E625E0FFA2B5E4334FFFE5C2
:10005E003125E025E02434F8A607E53125E025E03A
:10006E002435F8E625E0FFA2B4E4334FFFE5312551
:10007E00E025E02435F8A607E4FFEFC3940474806E
:10008E0094805035E53125E025E024322FF8E654F2
:10009E000FFD7C00700EE53125E025E024432FF89E
:1000AE00E4F68012ED640F4C700CE53125E025E08E
:1000BE0024432FF876010F80C10531D3E531940327
:1000CE00748094804003E4F531E53114600F1460C0
:1000DE001114601324037013C2B0D2B322C2B1D272
:0B00EE00B022C2B2D2B122C2B3D2B223
:0100F90022E4
:0B08EF00C0F9A4B0999282F88090FF3D
:0F05C4000809FFFFFFFFFFFFFFFFC10301080052
:10086B00300207E5427003020632E54260030203E1
:05087B00211203C6225A
:10032100AF427E00EF64017010200302800B900841
:10033100F9E493F509F50A801EE555C4540F75F0EB
:100341000A84E5F09008EF93F509E555540F75F02F
:100351000A84E5F093F50A750BBFEF64024E701045
:10036100200302800B9008F9E493F50CF50D801E33
:10037100E554C4540F75F00A84E5F09008EF93F545
:100381000CE554540F75F00A84E5F093F50D750EE4
:10039100BFE5426403700F200302800A9008F9E46C
:1003A10093F50FF51022E553C4540F75F00A84E557
:1003B100F09008EF93F50FE553540F75F00A84E5BB
:0503C100F093F510228D
:100632009008F9E493F509F50AF50BF50CF50DAE02
:100642001AAF1B7C007D0A1205DD7C007D0A1205B3
:10065200DD74EF2DF58274083CF583E493F50EAE5C
:100662001AAF1B7C007D0A1205DD74EF2DF5827432
:0C067200083CF583E493F50F7510C622D8
:1003C600AF567E00EF64017010200302800B900888
:1003D600F9E493F509F50A801EE516C4540F75F085
:1003E6000A84E5F09008EF93F509E516540F75F0C9
:1003F6000A84E5F093F50A750BBFEF64024E7010A0
:10040600200302800B9008F9E493F50CF50D801E8D
:10041600E515C4540F75F00A84E5F09008EF93F5DE
:100426000CE515540F75F00A84E5F093F50D750E7D
:10043600BFE5566403700F200302800A9008F9E4B2
:1004460093F50FF51022E514C4540F75F00A84E5F0
:10045600F09008EF93F50FE514540F75F00A84E554
:05046600F093F51022E7
:10067E00E4F5807F061208E2AF08A807740108802F
:10068E0002C333D8FCF580E4FF1208E27580FF7FC9
:10069E00071208E274092508F8E6F580E4FF12084F
:1006AE00E20508D3E5089407748094804003E4F5CE
:0106BE000833
:0106BF002218
:0E08B90080828486888A8C81838587898B8DD6
:0505D300031450592340
:10073B00E4F517FD7F8E120895E4F517C3E51794C2
:10074B0003748094805015E5179008B993FF7414C7
:0C075B002517F8E6FD120895051780E050
:01076700226F
:1007B600E4F517F517C3E517940374809480501574
:1007C600E5179008C093FF1206FE74142517F8A6C5
:0507D60007051780E09B
:0107DB0022FB
:10081D00E4FEEEC3940874809480500FC297EF13DA
:0B082D0092A3EFC313FFD2970E80E7E9
:01083800229D
:10089500C29300C29700D2930012081DAF0512083B
:0408A5001DC29322BB
:1006FE00E4FDC29300C29700D2930012081DE4FFDE
:10070E00EFC39408748094805011C297EDC313FD0B
:10071E0030A303430580D2970F80E5C29300C297A2
:0C072E0000D29700C2A300D2A300AF05C8
:01073A00229C
:0405D800021A000003
:0D08D50012078F7FCC1207687F440207686E
:1006C00012078F7FCC1207687FBE1207681207DC03
:1006D0008F171207DC751A008F1BE51B751B00F5C1
:1006E0001AE517421BE51A54F87012E51AC4F854BB
:0D06F000F0C868F51AE51BC4540F48F51B4F
:0106FD0022DA
:0407FF007F057E00F4
:10080300EF1FAA0670011E4A600FE4FDEDC3940CAE
:090813007480948050EA0D80F31A
:01081C0022B9
:02076800A907DF
:10076A00E4FBEBC39408748094805012C294E9139A
:10077A0092941207FFD294E9C313F90B80E47F0520
:05078A007E00020803DF
:1007DC00E4FBEBC39408748094805014C294ECC373
:1007EC0013FCD2943094034304801207FF0B80E275
:0207FC00AF0448
:0107FE0022D8
:10078F00C204D2947F0C7E00120803C2947F507E65
:10079F0000120803D2947F0A7E00120803A29492DB
:0607AF00041207FFA20482
:0107B5002221
:0E08C700C286C2847F051208E2E4FF0208E246
:10088000438E805389F0758A20758CD1C28DD28CAD
:05089000D2A9D2AF2245
:0D08E20053A01FEF5407C43354E042A0227E
:0300000002046B8C
:0C046B00787FE4F6D8FD7581560204B2DB
:1005DD00BC000BBE0029EF8DF084FFADF022E4CC02
:1005ED00F875F008EF2FFFEE33FEEC33FCEE9DECCB
:1005FD00984005FCEE9DFE0FD5F0E9E4CEFD22ED11
:10060D00F8F5F0EE8420D21CFEADF075F008EF2F5A
:10061D00FFED33FD4007985006D5F0F222C398FD4B
:05062D000FD5F0EA22E8
:10047700020839E493A3F8E493A34003F68001F25A
:1004870008DFF48029E493A3F85407240CC8C33386
:10049700C4540F4420C8834004F456800146F6DF55
:1004A700E4800B0102040810204080900573E47E6D
:1004B700019360BCA3FF543F30E509541FFEE4934A
:1004C700A360010ECF54C025E060A840B8E493A311
:1004D700FAE493A3F8E493A3C8C582C8CAC583CA3C
:1004E700F0A3C8C582C8CAC583CADFE9DEE780BEF4
:0105DC00001E
:00000001FF
