:0D049A00022C0000C101C102C100012B00B5
:10083E001208711208A81206BC1208B6120605128A
:0A084E00085812082312053380F544
:03000B0002016B84
:10016B00C0E0C0F0C083C082C0D075D000C000C05A
:0D017B0001C002C003C004C005C006C007DB
:10018800052DE52D7002052CAE2CFF7C007D641238
:1001980003F2ED4C702FD201052B3000110522E53A
:1001A8002B54017009300404C2048002D204C3E550
:1001B8002B940A74809480400C752B00300304C281
:1001C800038002D203C3E52D94EEE52C9402400887
:1001D800D202752C00752D001205C31206E9120310
:0101E8001105
:1001E900D007D006D005D004D003D002D001D0006A
:0B01F900D0D0D082D083D0F0D0E03214
:1008230030010CC201E519700612076212057E3011
:0B0833000208C2021206051208B622DD
:10057E00E530C4540F75F00AA4FFE530540F2FF583
:10058E001DE52FC4540F75F00AA4FFE52F540F2F4D
:10059E00F51CE52EC4540F75F00AA4FFE52E540F7A
:1005AE002FF51BE51DB5180CE51CB51707E51BB59A
:0405BE001602D2004F
:0105C2002216
:0408EF00373635342F
:1004A70004120101010101190001110003160000E6
:1004B70000C105040801010101010C00040DFFFF43
:0204C700FFFF35
:100680008F1CE51CB437051207AB802AE51CB43675
:10069000051207CA8020E51CB43507C206120447BC
:1006A0008014E51CB4340FD206120447E519700615
:0C06B000E5117002D205300002C20022E9
:06000300BF3402C2052219
:10053300E4F51BC3E51B940474809480503C74124F
:10054300251BF8E6FF7408251BF8E6FE6F6027EE0F
:10055300600CE51B9008EF93FF120680800AE51BF1
:100563009008EF93FF1200037412251BF8E6FF7443
:0A05730008251BF8A607051B80B938
:01057D00225B
:10031100E4F51AE50C14601814602314602E24030C
:100321007036E50D25E0FFA2B0E4334FF50D8028CE
:10033100E50E25E0FFA2B1E4334FF50E801AE50F7B
:1003410025E0FFA2B2E4334FF50F800CE51025E064
:10035100FFA2B3E4334FF510740D250CF8E6540FEA
:10036100FF7E0070097412250CF8E4F6800DEF642D
:100371000F4E70077412250CF87601050CD3E50CAD
:0B0381009403748094804003E4F50CAA
:01038C00224E
:10038D00EDFB7A00700774162FF806802EEB6401D2
:10039D004A702874162FF8E6D39400748094804028
:1003AD000774162FF8168013EF6402700874162F59
:1003BD00F87617800674162FF8763BEF64027010EE
:1003CD0074162FF8E6D39417748094804016800E1F
:1003DD0074162FF8E6D3943B7480948040067416FF
:0503ED002FF8E4F622E8
:10000E00742E2FF8E6FEC4540F75F00AA4FCEE54BD
:10001E000F2CFE742E2FF8A606ED7007742E2FF8F7
:10002E00068028742E2FF8E6D394007480948040B6
:10003E0007742E2FF8168013EF64027008742E2F9B
:10004E00F876178006742E2FF8763BEF6402701048
:10005E00742E2FF8E6D39417748094804016800E79
:10006E00742E2FF8E6D3943B748094804006742E41
:10007E002FF8E4F6742E2FF8E6FE75F00A8475F06C
:10008E000A84ADF0EDC454F0FDEE75F00A84E5F08F
:10009E00540F4DFE742E2FF8A60690089CE493FF85
:1000AE00AD3012088690089BE493FFAD2F120886A0
:0B00BE0090089AE493FFAD2E02088624
:10044700E51924FE60101460162402701CA206E44D
:1004570033FD7F028010A206E433FD7F018007A2EF
:1004670006E433FDE4FF12000EE51124FE601014CC
:1004770060162402701CA206E433FD7F028010A2DE
:1004870006E433FD7F018007A206E433FDE4FF1293
:03049700038D22B0
:1007AB00E511701AE51970031208DB0519D3E51969
:0F07BB009403748094804006E4F5191208E52237
:1007CA00E519701AE51170031208DB0511D3E5115A
:0F07DA009403748094804006E4F5111208E52220
:0B08D000C0F9A4B0999282F88090FF5C
:1004C9000823FFFFFFFFFFFFFFFFC103C104012254
:0404D90000012100FD
:1006E9007580FF30001BC3E52294327480948050DA
:1006F9000B200404C2808009D2808005E4F522C25F
:0B070900007F041208C3E4FF0208C3D5
:1008580030050BE5117007E51970030204E7E5118F
:0908680060030200C91202902293
:1000C900AF117E00EF64017010200302800B9008CD
:1000D900DAE493F523F524801DE51875F00A847593
:1000E900F00A84E5F09008D093F523E51875F00A35
:1000F90084E5F093F5247525BFEF64024E70102056
:100109000302800B9008DAE493F526F527801DE5B4
:100119001775F00A8475F00A84E5F09008D093F514
:1001290026E51775F00A84E5F093F5277528BFE5EC
:10013900116403700F200302800A9008DAE493F532
:1001490029F52A22E51675F00A8475F00A84E5F086
:100159009008D093F529E51675F00A84E5F093F532
:020169002A2248
:1004E7009008DAE493F523F524F525F526F527AEEC
:1004F7001EAF1F7C007D0A1203F27C007D0A1203E7
:10050700F274D02DF58274083CF583E493F528AE98
:100517001EAF1F7C007D0A1203F274D02DF5827482
:0C052700083CF583E493F529752AC622F0
:10029000AF197E00EF64017010200302800B9008FC
:1002A000DAE493F523F5248012E530C4540F900866
:1002B000D093F523E530540F93F5247525BFEF64F3
:1002C000024E7010200302800B9008DAE493F526AA
:1002D000F5278012E52FC4540F9008D093F526E53A
:1002E0002F540F93F5277528BFE5196403700F206D
:1002F0000302800A9008DAE493F529F52A22E52E14
:10030000C4540F9008D093F529E52E540F93F52A85
:0103100022CA
:1005C300E4F5807F061208C3AF21A80774010880F1
:1005D30002C333D8FCF580E4FF1208C37580FF7FA4
:1005E300071208C374232521F8E6F580E4FF1208F7
:1005F300C30521D3E5219407748094804003E4F577
:0106030021D5
:0106040022D3
:0E089A0080828486888A8C81838587898B8DF5
:0504DD00032E5059231D
:1006BC00E4F51BFD7F8E120886E4F51BC3E51B9445
:1006CC0003748094805015E51B90089A93FF742E48
:0C06DC00251BF8E6FD120886051B80E0D7
:0106E80022EF
:10076200E4F51BF51BC3E51B9403748094805015BC
:10077200E51B9008A193FF120643742E251BF8A6D1
:0507820007051B80E0EB
:01078700224F
:10080700E4FEEEC3940874809480500FC297EF13F0
:0B08170092A3EFC313FFD2970E80E7FF
:0108220022B3
:0A08DB00E52E4480FD7F80020886B0
:0A08E500E52E547FFD7F8002088697
:10088600C29300C29700D29300120807AF05120860
:0408960007C29322E0
:10064300E4FDC29300C29700D29300120807E4FFAF
:10065300EFC39408748094805011C297EDC313FDC7
:1006630030A303430580D2970F80E5C29300C2975E
:0C06730000D29700C2A300D2A300AF0584
:01067F002258
:0404E200021E0000F6
:0D08B60012073B7FCC1207147F4402071489
:1006050012073B7FCC1207147FBE1207141207880E
:100615008F1B120788751E008F1FE51F751F00F5BC
:100625001EE51B421FE51E54F87012E51EC4F85462
:0D063500F0C868F51EE51FC4540F48F51FFE
:010642002295
:0407E9007F057E000A
:1007ED00EF1FAA0670011E4A600FE4FDEDC3940CC5
:0907FD007480948050EA0D80F331
:0108060022CF
:02071400A90733
:10071600E4FBEBC39408748094805012C294E913EE
:1007260092941207E9D294E9C313F90B80E47F058A
:050736007E000207ED4A
:10078800E4FBEBC39408748094805014C294ECC3C7
:1007980013FCD2943094034304801207E90B80E2DF
:0207A800AF049C
:0107AA00222C
:10073B00C206D2947F0C7E001207EDC2947F507ECE
:10074B00001207EDD2947F0A7E001207EDA294925D
:06075B00061207E9A206E8
:010761002275
:0E08A800C286C2847F051208C3E4FF0208C3A3
:10087100438E805389F0758A20758CD1C28DD28CBC
:05088100D2A9D2AF2254
:0D08C30053A01FEF5407C43354E042A0229D
:03000000020204F5
:0C020400787FE4F6D8FD75813002024BD3
:1003F200BC000BBE0029EF8DF084FFADF022E4CCEF
:10040200F875F008EF2FFFEE33FEEC33FCEE9DECB7
:10041200984005FCEE9DFE0FD5F0E9E4CEFD22EDFD
:10042200F8F5F0EE8420D21CFEADF075F008EF2F47
:10043200FFED33FD4007985006D5F0F222C398FD38
:050442000FD5F0EA22D5
:1002100002083EE493A3F8E493A34003F68001F2BE
:1002200008DFF48029E493A3F85407240CC8C333EF
:10023000C4540F4420C8834004F456800146F6DFBE
:10024000E4800B010204081020408090049AE47EB0
:10025000019360BCA3FF543F30E509541FFEE493B3
:10026000A360010ECF54C025E060A840B8E493A37A
:10027000FAE493A3F8E493A3C8C582C8CAC583CAA5
:10028000F0A3C8C582C8CAC583CADFE9DEE780BE5D
:0104E6000015
:00000001FF
