:10080A000221000004250000000002230000C105A7
:02081A00C10417
:100A1F001209EA120A66120AA01208D5120A7B30CE
:090A2F0004F7C2041207AF80F0C5
:03001B00020634A6
:10063400C0E0C0F0C083C082C0D075D000C000C08C
:1006440001C002C003C004C005C006C0070522E5FE
:100654002270020521AE21FF7C017D04120283ED8C
:100664004C7002D204C3E5229426E521940240147E
:1006740085292B852A2C752900752A00752100757A
:100684002200D2051206BE1208933000051204E9B6
:10069400800D7580FF7F04120AC1E4FF120AC1D0E5
:1006A40007D006D005D004D003D002D001D000D0AA
:0A06B400D0D082D083D0F0D0E03225
:1007AF00120943AC07E41201CE8F288E278D268CB9
:1007BF00252003047F6A800BAF28AE27AD26AC251A
:1007CF001202021209CAAF28AE27AD26AC257B0054
:1007DF007A80795478421201278F288E278D268CA4
:1007EF0025E4FBFA79C8784212001E8F288E278DD8
:0B07FF00268C251202028E238F24227C
:0B0ADA00C0F9A4B0999282F88090FF50
:0D081C000816FFFFFFFFFFFFFFFF011500A3
:100A7B0030020C2001030207433005060203CA12A1
:030A8B000A5022EC
:1004E9007580FF7F04120AC1200106C280D2818073
:1004F90004D280C281C3E5249496E5239400500474
:10050900D282803FC3E5249496E5239400400EE50A
:100519002494FAE52394005004C2828026C3E5247A
:1005290094FAE5239400400EE524945EE5239401B2
:100539005004D282800DC3E524945EE523940140E2
:1005490002C282C3E52C94E8E52B94035004D283BC
:10055900803FC3E52C94E8E52B9403400EE52C94E9
:1005690088E52B94135004C2838026C3E52C948814
:10057900E52B9413400EE52C9410E52B9427500499
:10058900D283800DC3E52C9410E52B94274002C239
:0F05990083200304D2848002C284E4FF020AC1DB
:10089300E4F5807F06120AC1AF15A807740108802A
:1008A30002C333D8FCF580E4FF120AC17580FF7FD1
:1008B30007120AC174162515F8E6F580E4FF120A3B
:1008C300C10515C3E5159408748094804003E4F5CD
:0108D300150F
:0108D4002201
:100A5000900AE4E493F516F517F518F519F51AF56B
:060A60001BF51CF51D2230
:100743007516C1900AE4E493F517F518F519F51A2F
:10075300AE23AF247C007D641202837C007D0A12E9
:10076300028374DA2DF582740A3CF583E493547F93
:10077300F51BAE23AF247C007D0A1202837C007D2F
:100783000A12028374DA2DF582740A3CF583E4932A
:10079300F51CAE23AF247C007D0A12028374DA2D8C
:0C07A300F582740A3CF583E493F51D22F6
:1003CA0075168E900AE4E493F517AE2BAF2CE4FC75
:1003DA00FD7BA07A867901F8D31202E65020AE2B73
:1003EA00AF2CE4FCFDF812084FE47B0AFAF9F81284
:1003FA00084F74DA2BF582740A3AF5838003900A5F
:10040A00E4E493F518C3E52C9410E52B9427401ED9
:10041A00AE2BAF2C7C277D101202837C007D0A1242
:10042A00028374DA2DF582740A3CF5838003900AFC
:10043A00E4E493F519C3E52C94E8E52B9403401EF4
:10044A00AE2BAF2C7C037DE81202837C007D0A125E
:10045A00028374DA2DF582740A3CF5838003900ACC
:10046A00E4E493F51AC3E52C9464E52B9400401E4A
:10047A00AE2BAF2C7C007D641202837C007D0A12B5
:10048A00028374DA2DF582740A3CF5838003900A9C
:10049A00E4E493F51BC3E52C940AE52B9400401E73
:1004AA00AE2BAF2C7C007D0A1202837C007D0A12DF
:1004BA00028374DA2DF582740A3CF5838003900A6C
:1004CA00E4E493F51CAE2BAF2C7C007D0A12028368
:0F04DA0074DA2DF582740A3CF583E493F51D2244
:040003003736353423
:10082900041101010101C103C101C182C180040890
:0D08390001010101010C00040DFFFFFFFF94
:10097400BF3409200103D20122C20122BF3509205C
:100984000303D20322C20322BF3609200003D2008C
:1009940022C20022BF3708200203D20222C202224E
:1008D500E4FEEEC3940474809480502C74112EF8B9
:1008E500E6FF74082EF8E6FD6F601AED64017009E5
:1008F500EE90000393FF12097474112EF8E6FF744D
:08090500082EF8A6070E80CAB7
:01090D0022C7
:1006BE00E50C14601814602314602E24037036E5C4
:1006CE000D25E0FEA2B0E4334EF50D8028E50E2593
:1006DE00E0FEA2B1E4334EF50E801AE50F25E0FEE2
:1006EE00A2B2E4334EF50F800CE51025E0FEA2B366
:1006FE00E4334EF510E4FFEFC394047480948050FD
:10070E0023740D2FF8E6540FFD7C00700874112F22
:10071E00F8E4F6800CED640F4C700674112FF87629
:10072E00010F80D3050CD3E50C94037480948040A4
:04073E0003E4F50CCF
:010742002294
:10094300E4F51E120AB27F9012090E120A8E7F037B
:1009530012090E120A8E120AB27F9112090E120A9E
:100963008E1209A48F1E7F01120A38120ACEAF1EFF
:010973002261
:1009CA008F1E120AB27F9012090E120A8E7F4012EF
:1009DA00090E120A8EAF1E12090E120A8E020ACED2
:040A0500D2A07F05F7
:100A0900000000000000000000000000000000AE2F
:060A1900071FEE70EB2246
:0F0AB200D2A1120A05C2A17F05120A09C2A02211
:0C0ACE00C2A1120A05D2A17F05020A098C
:02090E00AD0733
:10091000E4FCECC39408748094805024C2A07F054A
:10092000120A09ED30E704D2A18002C2A17F0512AC
:100930000A09D2A0ED25E0FD7F05120A090C80D23C
:02094000C2A053
:010942002292
:1009A400E4FCECC39408748094805017120A05ED9B
:1009B40025E0FD30A103430501C2A07F05120A0909
:0509C4000C80DFAF050F
:0109C900220B
:100A8E00120A05A2A1E433FDC2A07F05120A09AF26
:010A9E000552
:010A9F002234
:100A3800C2A0EF24FF92A17F05120A09120A05C27B
:080A4800A0D2A17F05020A09FA
:0808460002290000022B000052
:100AA000758CFF758AFF438906C28DD28CD2A9D27C
:020AB000AF2273
:03000B0002000EE2
:0D000E00C0E0052AE52A70020529D0E03285
:100A6600438E4053890F758B20758DD1C28FD28EE0
:050A7600D2ABD2AF225B
:0D0AC10053A01FEF5407C43354E042A0229D
:1009EA007F05120AC1C286C284E4FF120AC1758059
:0B09FA00FF7F04120AC1E4FF020AC1E3
:10001E00EC4D6011E8497017ED33EC3304600DE4DC
:10002E00FCFFFEFD22E933E8330470F802026E1283
:10003E00023958046009E4CC248150062850090284
:10004E000278284003020275C0E0EB4A7044B98082
:10005E0006D0E0FB020264EF4E701CBD8008EBFF81
:10006E00EAFEE9FD80EBE98DF0A4FEE5F002010762
:10007E00E9CDF9EAFEEBFFEF89F0A4FCE5F0CE89BD
:10008E00F0A42EFFE435F0CD89F0A42DFEE435F07A
:10009E008067EF4E7005BD80D780C3EF8BF0A4ACA8
:1000AE00F0EE8BF0A42CFCE435F0F8EF8AF0A42CE3
:1000BE00E5F038FCE433CB8DF0A42CFCE5F03BF8F6
:1000CE00EE8AF0A42CFCE5F038F8E433CF89F0A4E6
:1000DE002CFCE5F038CF3400CE89F0A42FFFE5F0EC
:1000EE003EFEE433C98DF0A42EFEE5F039CD8AF044
:1000FE00A42FFFE5F03EFEE43DFD33D0E0FB5007BC
:10010E000BBB000F020278EC2CFCEF33FFEE33FE3C
:06011E00ED33FD0202506A
:10012400020278EC5D046005E85904700302026E73
:10013400120239580460F6EC4860F2EC7004FDFEDB
:10014400FF22C860DB2481C85009C39860025006AE
:100154000202759850CAF582E9294B4A7005AB82B0
:1001640002026475F0007C1A7880C3EF9BEE9AED6E
:1001740099400DC3EF9BFFEE9AFEED99FDE842F026
:10018400DC23ACF0D0E0FFD0E0FED0E0FDAB822079
:10019400E7101BEB60BAEC2CFCEF33FFEE33FEED03
:1001A40033FD020250E803F830E705C0F075F000B3
:1001B400EF2FFFEE33FEED33FD40B830E7C280AAE7
:1001C40075F020800E75F010800575F0087D007EB6
:1001D400007F003392D530D5031202D8EC3340109F
:1001E400EF33FFEE33FEED33FDEC33FCD5F0ED22BF
:0E01F400E5F0247EA2D513CC92E7CDCEFF22FB
:10020200EDD2E7CD33EC3392D524814006E4FFFEF4
:10021200FDFC22FCE4CFCECDCC24E0501174FF8053
:10022200EDC3CC13CCCD13CDCE13CECF13CF0470F0
:07023200F030D5DE0202D816
:10023900E9D2E7C933E833F892D5EDD2E7CD33EC0B
:0702490033FC5002B2D52284
:10025000EC30E7100FBF000C0EBE00080DBD00040F
:100260000BEB6014A2D5EB13FCED92E7FD2274FFBB
:10027000FCFDFEFF22E480F8A2D574FF13FC7D8014
:03028000E480EF28
:030000000205A84E
:0C05A800787FE4F6D8FD75812C0205EF89
:10028300BC000BBE0029EF8DF084FFADF022E4CC5F
:10029300F875F008EF2FFFEE33FEEC33FCEE9DEC28
:1002A300984005FCEE9DFE0FD5F0E9E4CEFD22ED6E
:1002B300F8F5F0EE8420D21CFEADF075F008EF2FB8
:1002C300FFED33FD4007985006D5F0F222C398FDA9
:0502D3000FD5F0EA2246
:10084F00C2D5E830E70FB2D5E4C39BFBE49AFAE4D4
:10085F0099F9E498F8EC30E717B2D512088512032E
:10086F0038E4C39BFBE49AFAE499F9E498F880031F
:10087F0012033830D50DE4C39FFFE49EFEE49DFDC7
:04088F00E49CFC22C7
:0E02D800C3E49FFFE49EFEE49DFDE49CFC2237
:1002E600EB9FF5F0EA9E42F0E99D42F0EC6480C88F
:0602F60064809845F0222F
:1005B400020A1FE493A3F8E493A34003F68001F234
:1005C40008DFF48029E493A3F85407240CC8C33348
:1005D400C4540F4420C8834004F456800146F6DF17
:1005E400E4800B010204081020408090080AE47E95
:1005F400019360BCA3FF543F30E509541FFEE4930C
:10060400A360010ECF54C025E060A840B8E493A3D2
:10061400FAE493A3F8E493A3C8C582C8CAC583CAFD
:10062400F0A3C8C582C8CAC583CADFE9DEE780BEB5
:01084E0000A9
:1002FC0075F008758200EF2FFFEE33FECD33CDCCB9
:10030C0033CCC58233C5829BED9AEC99E58298403B
:10031C000CF582EE9BFEED9AFDEC99FC0FD5F0D618
:10032C00E4CEFBE4CDFAE4CCF9A88222B800C1B942
:10033C000059BA002DEC8BF084CFCECDFCE5F0CB80
:10034C00F97818EF2FFFEE33FEED33FDEC33FCEBB9
:10035C0033FB10D703994004EB99FB0FD8E5E4F974
:10036C00FA227818EF2FFFEE33FEED33FDEC33FC61
:10037C00C933C910D7059BE99A4007EC9BFCE99A55
:10038C00F90FD8E0E4C9FAE4CCFB2275F010EF2F9A
:10039C00FFEE33FEED33FDCC33CCC833C810D7079A
:1003AC009BEC9AE899400AED9BFDEC9AFCE899F8D5
:0E03BC000FD5F0DAE4CDFBE4CCFAE4C8F92268
:00000001FF
