:0300000002022BCE
:0C022B00787FE4F6D8FD7581580202725D
:06077900C10002160000A1
:1008040012099212095B12096E12092FE4FF1208F1
:10081400AAEF75F00AA485F046F5471203B212094F
:100824001712033F120727AE10AF117C007D33125D
:0C083400018E7D641201F51208F780DFD0
:03001B00020003DD
:07000300758BCD758DD43221
:03000B0002067278
:10067200C0E0C0F0C083C082C0D075D000C000C04E
:0D06820001C002C003C004C005C006C007CF
:10068F00758ACD758CD40517E51770020516D394AE
:10069F0088E516648094934008D20075160075178C
:0406AF000012001E17
:1006B300D007D006D005D004D003D002D001D0009B
:0B06C300D0D0D082D083D0F0D0E03245
:1009A3000711151906101418050913170408121650
:10077F0001440010480101010101010101010101C2
:10078F0001010101010158001023010101010101C3
:10079F00010101010101010101010133001034FFC9
:0F07AF00FFFFFFFFFFFFFFFFFFFFFFFFFFFFFF4A
:1000F1008F13E513641270270558E558B40212AE48
:1001010046AF477C007D0A1201F5AD07E4FF1208F6
:10011100D5E558C394034003E4F558E4F54422E5DA
:1001210013B4130EE558B40206E4F545F54422056F
:100131004422E513B41629E558B40121E4F54474C9
:10014100322547F547E43546F546D3E54794F4E5CE
:1001510046648094814035E4F546F5472205442202
:10016100E513B41725E558B4011DE4F54474CE2513
:1001710047F54774FF3546F546C364809480500CBB
:0D0181007546017547F4220544220544220D
:10033F00E4F521E4F522E52125E025E024482522F6
:10034F00F8E6FFE52125E025E024232522F8E6FE47
:10035F006F603DEE6020E52125E025E024A3F582C6
:10036F00E43409F583E5822522F582E43583F583AC
:10037F00E493FF1200F1E52125E025E02448252232
:10038F00F8E6FFE52125E025E024232522F8A6073E
:10039F000522E522C39404409D0521E521C3940461
:0203AF0040917B
:0103B1002229
:10001E00E53325E025E02434F8E625E0FFA2C4E42C
:10002E00334FFFE53325E025E02434F8A607E5330A
:10003E0025E025E02435F8E625E0FFA2C2E4334FA3
:10004E00FFE53325E025E02435F8A607E53325E066
:10005E0025E02436F8E625E0FFA2B5E4334FFFE5B0
:10006E003325E025E02436F8A607E53325E025E024
:10007E002437F8E625E0FFA2B4E4334FFFE533253D
:10008E00E025E02437F8A607E4FFE53325E025E078
:10009E0024342FF8E6540FFE700EE53325E025E0EC
:1000AE0024482FF8E4F6800FBE0F0CE53325E0252B
:1000BE00E024482FF876010FBF04CF0533533303E6
:1000CE00E53314600F14601114601324037013D2FF
:1000DE00B3C2B022D2B0C2B122D2B1C2B222D2B217
:0200EE00C2B39B
:0100F00022ED
:10098100C0F9A4B0999282F880908883C6A1868E1E
:01099100FF66
:100727007580FFE512700D3000197F04120489757A
:1007370080FE80087F041204897580FFE4FF12049D
:1007470089C200E5457F0420E0081204897580FF0F
:1007570080061204897580FDE4FF120489E544C30D
:100767009403400D7F041204897580FBE4FF120493
:020777008922D5
:1003B2001209457510008F11AE107C007D64120188
:1003C2008E7D331201A08E108F11E5472405FFE4C4
:1003D2003546FED3E5119FE5109E4005751201805A
:1003E20016E54724FBFDE54634FFFCC3E5119DE518
:1003F200109C5003E4F512C3E5119FE5109E501DB9
:10040200E54724FBFFE54634FFFED3E5119FE510E7
:0E0412009E400AE512B401050545E4F51222EC
:1008400074812DF58274093CF583E493547FFD7F18
:0108500005A2
:100851008F138D147580FF7F06120489AF13740105
:10086100A807088002C333D8FCF5807F07120489EA
:0A0871008514807FF47E0102000E62
:10091700E55870030205B8E558B40103020615E56A
:0809270058B402031207BF22BD
:1005B8007DC1E4FF120851AE10AF117C007D6412BA
:1005C80001A07C007D0A1201A0120840AE10AF11F4
:1005D8007C007D0A1201A07C007D0A1201A07481B2
:1005E8002DF58274093CF583E493FD7F06120851CA
:1005F800AE10AF117C007D0A1201A074812DF58226
:0D06080074093CF583E493FD7F070208515F
:100615007D8CE4FF120851AE46AF477C007D641225
:1006250001F57C007D0A1201F5120840AE46AF4780
:100635007C007D0A1201F57C007D0A1201F57481AA
:100645002DF58274093CF583E493FD7F061208516C
:10065500AE46AF477C007D0A1201F574812DF58207
:0D06650074093CF583E493FD7F0702085102
:1007BF007DC8E4FF120851E54575F0648475F00AB1
:1007CF0084E5F090098193FD7F05120851E5457589
:1007DF00F00A8475F00A84E5F090098193FD7F0695
:1007EF00120851E54575F00A84E5F090098193FDF3
:0507FF007F0702085114
:10092F001206CE7F901204201205567F4312042028
:06093F0012055602087BC0
:100945001206CE7F911204201205561204F18F1360
:0509550012087BAF1346
:01095A00227A
:1008F7008F131206CE7F901204201205567F4312E3
:100907000420120556AF1312042012055602087B65
:0208AA008F13AA
:1008AC001206CE7FA0120420120556AF131204209C
:1008BC001205561206CE7FA1120420120556120400
:0808CC00F18F1412087BAF1438
:0108D4002201
:1008D5008F148D151206CE7FA0120420120556AF77
:1008E50014120420120556AF1512042012055602E3
:0208F500087B7E
:100992007F05120489E4F5807F041204897580FFC3
:0109A2002232
:10095B00438E4053890F758BCD758DD4D28ED2AB10
:03096B00D2AF22E6
:10096E00438E805389F0758ACD758CD4D2AFD2A9BF
:03097E00D28C22F6
:10048900EFB408005061900496F82828730204AE6E
:100499000204B20204BB0204C40204CD0204D6025F
:1004A90004DF0204E853A01F22E5A0541F4420F5ED
:1004B900A022E5A0541F4440F5A022E5A0541F4402
:1004C90060F5A022E5A0541F4480F5A022E5A054C0
:1004D9001F44A0F5A022E5A0541F44C0F5A022E5C1
:0804E900A0541F44E0F5A0221D
:0B000E00EF1FAC0670011E4C70F622C4
:1006CE00D2A1D2A000000000000000000000000037
:1006DE00000000000000000000000000000000000C
:1006EE00000000000000000000000000C2A1000099
:1006FE0000000000000000000000000000000000EC
:10070E0000000000000000000000000000000000DB
:09071E00000000000000C2A0224E
:10087B00C2A1D2A000000000000000000000000098
:10088B00000000000000000000000000000000005D
:0F089B00000000000000000000000000D2A122B9
:1002B700300104C2A18002D2A100000000000000AA
:1002C7000000000000000000000000000000000027
:1002D7000000000000000000000000000000000017
:1002E70000D2A00000000000000000000000000095
:1002F70000000000000000000000000000000000F7
:100307000000000000000000000000C2A0D2A10011
:1003170000000000000000000000000000000000D6
:1003270000000000000000000000000000000000C6
:0803370000000000000000229C
:10055600D2A1000000000000000000000000000022
:100566000000000000000000000000000000000085
:1005760000000000000000000000D2A00000000003
:100586000000000000000000000000000000000065
:100596000000000000000000000000000000000055
:1005A6000000000030A107C2A012087BC322C2A02F
:0205B600D3224E
:10042000E4FEEF30E704D2A18002C2A10000000088
:1004300000000000000000000000000000000000BC
:1004400000000000000000000000000000000000AC
:1004500000000000D2A0EF25E0FF00000000000037
:10046000000000000000000000000000000000008C
:10047000000000000000000000000000000000007C
:080480000000C2A00EBE089AA4
:010488002251
:1004F100E4FED2A0000000000000000000000000A7
:1005010000000000000000000000000000000000EA
:10051100000000000000000000000000EF25E0FFE7
:1005210030A103430701C2A0000000000000000049
:1005310000000000000000000000000000000000BA
:1005410000000000000000000000000000000000AA
:040551000EBE089E34
:010555002283
:10023700020804E493A3F8E493A34003F68001F2D1
:1002470008DFF48029E493A3F85407240CC8C333C8
:10025700C4540F4420C8834004F456800146F6DF97
:10026700E4800B0102040810204080900779E47EA7
:10027700019360BCA3FF543F30E509541FFEE4938C
:10028700A360010ECF54C025E060A840B8E493A353
:10029700FAE493A3F8E493A3C8C582C8CAC583CA7E
:1002A700F0A3C8C582C8CAC583CADFE9DEE780BE36
:0107BE00003A
:10018E00EF8DF0A4A8F0CF8CF0A428CE8DF0A42E85
:02019E00FE223F
:1001A000BC000BBE0029EF8DF084FFADF022E4CC43
:1001B000F875F008EF2FFFEE33FEEC33FCEE9DEC0C
:1001C000984005FCEE9DFE0FD5F0E9E4CEFD22ED52
:1001D000F8F5F0EE8420D21CFEADF075F008EF2F9C
:1001E000FFED33FD4007985006D5F0F222C398FD8D
:0501F0000FD5F0EA222A
:1001F500C2D5EC30E709B2D5E4C39DFDE49CFCEE25
:1002050030E715B2D5E4C39FFFE49EFE1201A0C3FB
:10021500E49DFDE49CFC80031201A030D507C3E4F6
:060225009FFFE49EFE2293
:00000001FF
