:06030F00011F00011E00A9
:10035C001205DB12061D1206321205251206077550
:10036C001A3212049A1205AAE51F7005120548806C
:10037C0003120265E51E70081201291205F180E2D4
:10038C0012068E8F19EF75F063A4FFAEF07C007D22
:0B039C00FF1202BA8F191203E880C79D
:03000B00020003ED
:07000300758ACD758CD43223
:03001B000203A736
:1003A700C0E0C0F0C083C082C0D075D000C000C01C
:1003B70001C002C003C004C005C006C007758BCDCD
:1003C700758DD4120206D007D006D005D004D0030D
:1003D700D002D001D000D0D0D082D083D0F0D0E0EE
:0103E70032E3
:10019E00EFB4080050619001ABF82828730201C338
:1001AE000201C70201D00201D90201E20201EB02F3
:1001BE0001F40201FD53A01F22E5A0541F4420F5B7
:1001CE00A022E5A0541F4440F5A022E5A0541F44F0
:1001DE0060F5A022E5A0541F4480F5A022E5A054AE
:1001EE001F44A0F5A022E5A0541F44C0F5A022E5AF
:0801FE00A0541F44E0F5A0220B
:10061D00438E805389F0758ACD758CD4C28DD28C62
:05062D00D2A9D2AF22AA
:10063200438E4053890F758BCD758DD4C28FD28E68
:05064200D2ABD2AF2293
:0B06A900EF1FAC0670011E4C70F62223
:1005DB007F0512019E7580507F017E001206A9E4F3
:0605EB00F580FF02019EF5
:04000E00D2A07F05F8
:0800120000AE071FEE70F92299
:0F067F00D2A112000EC2A17F05120012C2A0224A
:0C069D00C2A112000ED2A17F05020012C3
:1005C400C2A0A20092A17F0512001212000EC2A0C6
:0705D400D2A17F0502001215
:10066E0012000EA2A19201C2A07F05120012A201D9
:01067E002259
:0204CE00AD0778
:1004D000E4FCC2A07F05120012ED30E704D2A18037
:1004E00002C2A17F05120012D2A0ED25E0FD7F051A
:0904F0001200120CBC08DBC2A0D2
:0104F90022E0
:10058D00E4FC12000EED25E0FD30A103430501C290
:0C059D00A07F051200120CBC08E8AF059E
:0105A900222F
:10031500072F80828486888A8C0728818385878930
:0B0325008B8D07210030080604032226
:10065B00E4FEC297EF1392A3EFC313FFD2970EBE24
:02066B0008F095
:01066D00226A
:10064700C29300C29700D2930012065BAF05120651
:040657005BC29322CD
:10046400E4FDC29300C29700D2930012065BE4FF3E
:10047400C297EDC313FD30A303430580D2970FBF8A
:1004840008EEC29300C293C29700D29700C2A300A1
:05049400D2A300AF053A
:010499002240
:10052500E4FD7F8E120647E4FC742F2CF8E6FF7479
:10053500212CF8E6FD1206470CBC07ED7D807F8E69
:0305450002064764
:1005F100E4FC74282CF8E6FF12046474212CF8A69C
:05060100070CBC07ED31
:0106060022D1
:10033000044701010101043E010101010443FFFFE3
:02034000FFFFBD
:1000AA008F1BE51B700D051FE51FD39401406FE4FC
:1000BA00F51F22E51B64017032E51F7021051EE55C
:1000CA001ED39401400AAD1A7F2012056BE4F51E77
:1000DA00E51E640170487F201204FA8F1A22054C2B
:1000EA00E54CD394014037E4F54C22E51BB40215E4
:1000FA00E51F700D051AE51AD394634021751A633A
:10010A0022754B0122E51BB40314E51F700DE51A95
:0F011A00D394005003751A01151A22E4F54B22F5
:10049A00E4F53D7447253DF8E6FF743E253DF8E650
:1004AA00FE6F6016EE6005AF3D1200AA7447253D47
:1004BA00F8E6FF743E253DF8A607053DE53DC394E1
:0304CA000440D01B
:0104CD00220C
:10020600E54325E0FFA2B0E4334FF543E54425E09E
:10021600FFA2B1E4334FF544E54525E0FFA2B2E481
:10022600334FF545E54625E0FFA2B3E4334FF546E7
:10023600E4F54274432542F8E6540F7007744725E7
:1002460042F8E4F674432542F8E6540FFFBF0F0761
:0E02560074472542F876010542E542B404D50E
:010264002277
:100342001108C0F9A4B0999282F880908883C6A15E
:03035200868EFF95
:1004290075F00A8475F00A84740825F0F8E6FD7FF2
:0104390006BC
:10043A008F1B8D1C7580FF7F0612019EAF1B7401F6
:10044A00A807088002C333D8FCF5807F0712019EF3
:0A045A00851C807FF47E010206A9D4
:1001290012068E8F19EF75F063A4FFAEF07C007D87
:10013900FF1202BA8F19E523C4540F2408F8E6FD0B
:10014900E4FF12043AE523540F2408F8E6FD7F0181
:1001590012043A7DBF7F0212043AE522C4540F24E7
:1001690008F8E6FD7F0312043AE522540F2408F843
:10017900E6FD7F0412043A7DFF7F0512043AE51972
:10018900120429E51975F00A84740825F0F8E6FDCA
:050199007F0702043A9B
:1003E8007DBFE4FF12043A7DBF7F0112043A7DFF0E
:1003F8007F0212043A7DFF7F0312043A7DFF7F04D7
:1004080012043A7DFF7F0512043AE51A120429E521
:100418001A75F00A84740825F0F8E6FD7F070204CF
:010428003A99
:1005AA007580FF7F0412019EE51FB401057580FE68
:0A05BA0080037580FDE4FF02019E3E
:1006070012067F7F901204CE12066E7F431204CE2D
:0606170012066E02069DB2
:0E068E0012067F7F911204CE12066E12058DA9
:01069C00223B
:10056B008F1C8D1D12067F7FA01204CE12066EAF5C
:10057B001C1204CE12066EAF1D1204CE12066E02B2
:02058B00069DCB
:0204FA008F1C55
:1004FC0012067F7FA01204CE12066EAF1C1204CE21
:10050C0012066E12067F7FA11204CE12066E120521
:08051C008D8F1D12069DAF1D1D
:0105240022B4
:06035500014C01014B0008
:10054800E519C3951A500C5380107F0512019ED2ED
:1005580084800A5380107F0512019EC284E4FF1232
:03056800019E22CF
:10026500E54C6401701FE519C3951A500C53805075
:100275007F0512019ED28680165380507F0512019C
:100285009EC286800A5380507F0512019EC286E475
:10029500FF12019EE54BB4010C5380507F051201FE
:1002A5009ED284800A5380507F0512019EC284E449
:0502B500FF12019E2272
:0300000002001EDD
:0C001E00787FE4F6D8FD75814C02006587
:1002BA00BC000BBE0029EF8DF084FFADF022E4CC28
:1002CA00F875F008EF2FFFEE33FEEC33FCEE9DECF1
:1002DA00984005FCEE9DFE0FD5F0E9E4CEFD22ED37
:1002EA00F8F5F0EE8420D21CFEADF075F008EF2F81
:1002FA00FFED33FD4007985006D5F0F222C398FD72
:05030A000FD5F0EA220E
:10002A0002035CE493A3F8E493A34003F68001F28D
:10003A0008DFF48029E493A3F85407240CC8C333D7
:10004A00C4540F4420C8834004F456800146F6DFA6
:10005A00E4800B010204081020408090030FE47E24
:10006A00019360BCA3FF543F30E509541FFEE4939B
:10007A00A360010ECF54C025E060A840B8E493A362
:10008A00FAE493A3F8E493A3C8C582C8CAC583CA8D
:10009A00F0A3C8C582C8CAC583CADFE9DEE780BE45
:01035B0000A1
:00000001FF
