:10125500026C0000026E0000C10CC10DC109C10A7B
:06126500C10B026A00004B
:1016660012176012000E1217E21217A81213751243
:1016760016E2300C08C20C1216FD120A971216203A
:0216860080F0F2
:03000B00020C697B
:100C6900C0E0C0F0C083C082C0D075D000C000C051
:0D0C790001C002C003C004C005C006C007D2
:100C8600056BE56B7002056AAE6AFF7C007D0D128E
:100C9600058FED4C7002D20CAE6AAF6B7C007D2ADC
:100CA60012058FED4C7002D20DAE6AAF6B7C007DE3
:100CB6006512058FED64014C7002D209AE6AAF6B06
:100CC6007C007DBC12058FED4C7002D20AC3E56B29
:100CD60094E8E56A94034006756A00756B00301067
:100CE60013C3E56D94E8E56C94035008056DE56D56
:100CF6007002056C1214DD12143E12115D7F011292
:020D06001403D4
:100D0800D007D006D005D004D003D002D001D0003F
:0B0D1800D0D0D082D083D0F0D0E032E9
:10162000300D05C20D120F1A300908C2091211E05F
:101630001216C6300A0CC20A120FB68E6E8F6F12C7
:0316400017A822C6
:1016C600200B13D3E5719517E570951650047F68C6
:0C16D60080067FD080027F16121688224A
:0417F0003337323623
:10126B00041801010101C10E011C00C10FC11002C4
:10127B001D000002130BB802110BB802160023015C
:10128B001523040801010101010C00040DFFFFFFF0
:01129B00FF53
:1010D700BF3303D21022BF3203D21022EF6436701F
:1010E7003A300E71200F1ED3E51294C8E511940013
:1010F700400D74382512F51274FF3511F51122E4ED
:10110700F511F51222E515D39405748094804007F4
:1011170074FB2515F51522E4F51522EF64377035B4
:10112700300E32200F1D74C82512F512E43511F563
:1011370011D3E51294ACE511942640197511267563
:1011470012AC2274052515F515D394637480948029
:0611570040037515632240
:020D23008F251A
:100D2500E4F526E5256433705AC210C3E56D94E8F1
:100D3500E56C94035049300E3DE512B5140FE511ED
:100D4500B5130AE51565177002E516601D051EE564
:100D55001E7002051D540FF526FD7F111215FBE5CA
:100D65001DF526AD267F101215FB8511138512146E
:100D7500751600851517B20EE4F51CC20F804BB22F
:100D85000B8047E52564327046C210C3E56D94E8D3
:100D9500E56C94035018200E11051CE51C94027493
:100DA5008094804025E4F51C8020B20F801CE4F57A
:100DB5001DF51EE51E540FF526FD7F111215FBE5E9
:0F0DC5001DF526AD267F101215FBE4F56CF56DBC
:010DD40022FC
:100F1A00E4F523C3E5239402748094804003020F0E
:100F2A00B5E4F524C3E5249402748094805077E5EF
:100F3A002325E024182524F8E6FFE52325E02408E4
:100F4A002524F8E6FE6F6059EE64017020E523253A
:100F5A00E024F0F582E43417F583E5822524F5824E
:100F6A00E43583F583E493FF1210D7801EE5232529
:100F7A00E024F0F582E43417F583E5822524F5822E
:100F8A00E43583F583E493FF120D23E52325E0245A
:100F9A00182524F8E6FFE52325E024082524F8A6E9
:0B0FAA00070524020F2E0523020F1D77
:010FB5002219
:10115D00E50C25E0240DF8E625E0FFA2B5E4334FBC
:10116D00FFE50C25E0240DF8A607E50C25E0240E7F
:10117D00F8E625E0FFA2B4E4334FFFE50C25E024AB
:10118D000EF8A607E4FFEFC3940274809480502CF0
:10119D00E50C25E0240D2FF8E6FD7C00700CE50C28
:1011AD0025E024182FF8E4F6800FEDF44C700AE5D5
:1011BD000C25E024182FF876010F80CA050C530C6E
:1011CD0001E50C146008047009C2B2D2B322C2B397
:0211DD00D2B28C
:0111DF0022ED
:0B17CE00C0F9A4B0999282F88090FF4F
:0D129C000862FFFFFFFFFFFFFFFF01610081
:1016FD00200E13E51C7003020DD5E51C640170036B
:0A170D000212C1020B83120E7822B3
:1014DD007580FF7F041217B5D3E56F9514E56E95F2
:1014ED00134002C280C3E5719517E5709516500241
:0C14FD00C281200B02C282E4FF0217B57E
:100E78007562929017D8E493F563F564F566F567A3
:100E8800200F569017D2E493F565C3E51294E8E570
:100E9800119403401EAE11AF127C037DE812058F3A
:100EA8007C007D0A12058F74CE2DF58274173CF5EF
:100EB8008380039017D8E493F568AE11AF127C00D5
:100EC8007D6412058F7C007D0A12058F74CE2DF586
:100ED8008274173CF583E480359017D3E493F56565
:100EE800C3E515940A748094804011E51575F00ADD
:100EF8008475F00A84E5F09017CE80049017D8E442
:100F080093F568E51575F00A84E5F09017CE93F52A
:020F180069224C
:100B83007562989017D8E493F563F564C3E51E94F2
:100B930010E51D9427401EAE1DAF1E7C277D10124D
:100BA300058F7C007D0A12058F74CE2DF582741794
:100BB3003CF58380039017D8E493F565C3E51E9451
:100BC300E8E51D9403401EAE1DAF1E7C037DE812B5
:100BD300058F7C007D0A12058F74CE2DF582741764
:100BE3003CF58380039017D8E493F566C3E51E9420
:100BF30064E51D9400401EAE1DAF1E7C007D641293
:100C0300058F7C007D0A12058F74CE2DF582741733
:100C13003CF58380039017D8E493F567C3E51E94EE
:100C23000AE51D9400401EAE1DAF1E7C007D0A1216
:100C3300058F7C007D0A12058F74CE2DF582741703
:100C43003CF58380039017D8E493F568AE1DAF1E7F
:100C53007C007D0A12058F74CE2DF58274173CF546
:060C630083E493F5692211
:1012C1007562C79017D8E493F563F564F565F56623
:1012D100F567C3E571940AE5709400401EAE70AFE6
:1012E100717C007D0A12058F7C007D0A12058F74C6
:1012F100CE2DF58274173CF58380039017D8E493C3
:10130100F568AE70AF717C007D0A12058F74CE2D29
:0C131100F58274173CF583E493F5692223
:100DD50075628E9017D8E493FFF563F564301505B9
:100DE5007565BF80028F65C3E56F94E8E56E940372
:100DF500401EAE6EAF6F7C037DE812058F7C007DD3
:100E05000A12058F74CE2DF58274173CF583800385
:100E15009017D8E493F566AE6EAF6F7C007D6412D3
:100E2500058F7C007D0A12058F74CE2DF58274170F
:100E35003CF583E493547FF567AE6EAF6F7C007D20
:100E45000A12058F7C007D0A12058F74CE2DF5825E
:100E550074173CF583E493F568AE6EAF6F7C007D47
:100E65000A12058F74CE2DF58274173CF583E49331
:030E7500F56922FA
:10143E007F071217B57580FF7F061217B5AF61A82B
:10144E00077401088002C333D8FCF5807F0712179A
:10145E00B57580FF74622561F8E6F580E4FF12171A
:06146E00B50561536107A2
:011474002255
:101688008F231217997F901214751217877F4012B3
:101698001475121787AF231214751217870217C211
:10137500E4F523FB7A0079237F771213C8E523640C
:1013850066601E7D667F771215FBE51E540FF523FB
:10139500FD7F111215FBE51DF523AD237F10021509
:1013A500FB7F101213C2751D0085231EE51E751ED9
:0C13B50000F51D7F111213C2E523421E3B
:0113C1002209
:0817D9007F3B7E5ADEFEDFFCBF
:0117E10022E5
:0613C2007B007A00792394
:1013C8008F248B258A2689271217997FA0121475D6
:1013D800121787AF241214751217871217997FA155
:1013E8001214751217871215D5AB25AA26A927EF4F
:0B13F80012056B7F011217310217C2B3
:1015FB008F278D281217997FA0121475121787AF9A
:10160B0027121475121787AF281214751217871229
:05161B0017C20217D9FF
:0612A900C11402700000F8
:0717E20075D980E4F5D8225F
:0617E90000007F24DFFE7A
:0117EF0022D7
:10171700E4FEEEC3940874809480500DD2901217A3
:09172700E9C2901217E90E80E9F5
:011730002296
:1011E000E4FBFAF526F525F524F523F5F9F5E912E2
:1011F0001717D2DE30910330DFFAC2DE30DF06C2CD
:10120000DFD2148041AFF9AB07EBADE9FAEDFBACEF
:1012100002E41202C98F268E258D248C237B967AB8
:1012200043798B783C12011E8F268E258D248C23CA
:10123000120302AA06AB07D3EB9463EA94004004BE
:10124000D2148002C2142014058A708B712275702A
:041250000075716351
:011254002277
:04174900D2A07F05A6
:10174D00000000000000000000000000AE071FEECA
:03175D0070EE2209
:0F179900D2A1121749C2A17F0512174DC2A0227B
:0C17C200C2A1121749D2A17F0502174DE9
:02147500AD07C1
:10147700E4FCECC39408748094805024C2A07F05D8
:1014870012174DED30E704D2A18002C2A17F0512E9
:10149700174DD2A0ED25E0FD7F0512174D0C80D228
:0214A700C2A0E1
:0114A9002220
:1015D500E4FCECC39408748094805017121749ED0D
:1015E50025E0FD30A103430501C2A07F0512174D7B
:0515F5000C80DFAF05D2
:0115FA0022CE
:10178700121749A2A1E433FDC2A07F0512174DAF7E
:01179700054C
:01179800222E
:10173100C2A0EF24FF92A17F0512174D121749C2D3
:08174100A0D2A17F0502174DA3
:0212AF00C11567
:0D17A8001215877FCC1215607F440215607A
:100FB6001215877FCC1215607FBE1215601216437C
:100FC6008F231216437524008F25E525F524E52386
:100FD600F525E52454F86015E525F4FFE524F4FE2F
:100FE600EF2401F525E43EF524D2158002C215E56D
:100FF60024C4F854F0C868F524E525C4540F48F510
:1010060025AE24FF7C007D6412057D8E248F25E5A8
:1010160023540FFCE41202CEE4FBFA79C87840129E
:10102600011EC004C005C006C007AC24AD25E412ED
:1010360002C9D003D002D001D00012002D12030243
:041046008E248F2540
:01104A002283
:0416A8007F057E003C
:1016AC00EF1FAA0670011E4A600FE4FDEDC3940CF7
:0916BC007480948050EA0D80F363
:0116C5002202
:02156000A907D9
:10156200E4FBEBC39408748094805012C294E91394
:1015720092941216A8D294E9C313F90B80E47F0562
:051582007E000216AC22
:10164300E4FBEBC39408748094805014C294ECC3FD
:1016530013FCD2943094034304801216A80B80E247
:02166300AF04D2
:011665002262
:10158700C200D2947F0C7E001216ACC2947F507EAC
:10159700001216ACD2947F0A7E001216ACA2949267
:0615A700001216A8A200CC
:0115AD00221B
:1015090053540D0A00242532642C25322E32660DDF
:101519000A004552524F520D0A00504152410D0ADC
:0C15290000242532642C2532640D0A00D9
:0F12B100016000C111C113C112014500014600C7
:1016E200759850438E40538EFE53890F758B8F75BC
:0B16F2008DFDC2ABD28ED2ACD2AF2275
:030023000214AA1A
:1014AA00C0E0C0D075D000C000C007309817C298FD
:1014BA00C3E560940A74809480500AAF6005607432
:1014CA00562FF8A699309902C299D007D000D0D0E9
:0314DA00D0E0322D
:100A9700E4F526F525F524F523F527F52820120397
:100AA700020B82E55664537060752CFF752D157522
:100AB7002E09FB7A00795612131D301347C213AC67
:100AC7006EAD6FE41202C98F268E258D248C23E428
:100AD700FBFA79C878421202278F268E258D248C3F
:100AE70023752CFF752D15752E0E85702F8571308A
:100AF7008F348E338D328C317B007A007947120622
:100B0700841215353011648055E55664507053755D
:100B17002CFF752D15752E23FB7A00795612131DA0
:100B2700301338C213851327851428AE27AF287CC6
:100B3700007D6412058F8E278F28752CFF752D1564
:100B4700752E2A85162F8517308527318528327B04
:100B5700007A00794712068412153530110DC2113B
:100B670080007BFF7A15791B12153B7B007A007991
:0B0B7700567D0A121774C212E4F560EC
:010B82002250
:10140300E560D3940074809480402CE5456560606A
:1014130007856045E4F54622E546C3941E7480942F
:10142300805017EF2546F546C3941E748094804080
:0A14330009E4F546D21222E4F54563
:01143D00228C
:080003008F993099FDC299228A
:061535007B007A007947FB
:10153B008B298A2A892BAB29AA2AA92B120525606C
:10154B0013052BE52B7002052A14F9120525FF1242
:05155B00000380E22204
:10131D008B298A2A892BAB29AA2AA92B120525FFED
:10132D00602AAB2CAA2DA92E120525601F6F600413
:10133D00D21180187401252BF52BE4352AF52A746A
:10134D0001252EF52EE4352DF52D80CAAB29AA2ABF
:10135D00A92B120525700EAB2CAA2DA92E12052531
:08136D007003D21322D21122F9
:10177400AF051DEF600CE412056B0429F9E43AFA95
:0317840080EE22D2
:10000E00438E805389F0758A20758CD1C28DD28C27
:05001E00D2A9D2AF22BF
:101760007F041217B57580FF7F051217B5E4F58069
:04177000FF0217B5A8
:0D17B50053A01FEF5407C43354E042A0229C
:1000260002036EE86480F8E933E83360110460F097
:10003600ED33EC337009E8FCE9FDEAFEEBFF220440
:1000460060DED3EB9FEA9EE99DE8C2E78CF0C2F73B
:1000560095F0400CE8CCF8E9CDF9EACEFAEBCFFB07
:1000660012033985D0F05804700320D5B3E8047024
:10007600075002B2D502037892D5EC0460F7E4CCBF
:10008600C0E0C398F8603B94186008400DD0E0FBD0
:10009600020350E4FBFAC9FC8028E830E406E4C910
:1000A600FBE4CAFCE830E305E4C9CACBFCE8540724
:1000B6006010F8C3E913F9EA13FAEB13FBEC13FC2F
:1000C600D8F130F52FC3E49CFCEF9BFFEE9AFEEDD2
:1000D60099FDD0E0FBEF4E4D4C701222DB0302037C
:1000E60075EC2CFCEF33FFEE33FEED33FDED30E720
:1000F600EB020350EF2BFFEE3AFEED39FDD0E0FBAD
:1001060050130BBB0003020378ED13FDEE13FEEF55
:0801160013FFEC13FC0203507F
:10011E00EC4D6011E8497017ED33EC3304600DE4DB
:10012E00FCFFFEFD22E933E8330470F802036E1281
:10013E00033958046009E4CC248150062850090282
:10014E000378284003020375C0E0EB4A7044B9807F
:10015E0006D0E0FB020364EF4E701CBD8008EBFF7F
:10016E00EAFEE9FD80EBE98DF0A4FEE5F002020760
:10017E00E9CDF9EAFEEBFFEF89F0A4FCE5F0CE89BC
:10018E00F0A42EFFE435F0CD89F0A42DFEE435F079
:10019E008067EF4E7005BD80D780C3EF8BF0A4ACA7
:1001AE00F0EE8BF0A42CFCE435F0F8EF8AF0A42CE2
:1001BE00E5F038FCE433CB8DF0A42CFCE5F03BF8F5
:1001CE00EE8AF0A42CFCE5F038F8E433CF89F0A4E5
:1001DE002CFCE5F038CF3400CE89F0A42FFFE5F0EB
:1001EE003EFEE433C98DF0A42EFEE5F039CD8AF043
:1001FE00A42FFFE5F03EFEE43DFD33D0E0FB5007BB
:10020E000BBB000F020378EC2CFCEF33FFEE33FE3A
:06021E00ED33FD02035068
:10022400020378EC5D046005E85904700302036E70
:10023400120339580460F6EC4860F2EC7004FDFED9
:10024400FF22C860DB2481C85009C39860025006AD
:100254000203759850CAF582E9294B4A7005AB82AE
:1002640002036475F0007C1A7880C3EF9BEE9AED6C
:1002740099400DC3EF9BFFEE9AFEED99FDE842F025
:10028400DC23ACF0D0E0FFD0E0FED0E0FDAB822078
:10029400E7101BEB60BAEC2CFCEF33FFEE33FEED02
:1002A40033FD020350E803F830E705C0F075F000B1
:1002B400EF2FFFEE33FEED33FD40B830E7C280AAE6
:1002C40075F020800E75F010800575F0087D007EB5
:1002D400007F003392D530D5031205E4EC3340108F
:1002E400EF33FFEE33FEED33FDEC33FCD5F0ED22BE
:0E02F400E5F0247EA2D513CC92E7CDCEFF22FA
:10030200EDD2E7CD33EC3392D524814006E4FFFEF3
:10031200FDFC22FCE4CFCECDCC24E0501174FF8052
:10032200EDC3CC13CCCD13CDCE13CECF13CF0470EF
:07033200F030D5DE0205E406
:10062800E540242CF8E60540227829300702782C8A
:10063800E475F0011205F20205252000EB7F2ED2A9
:10064800008018EF540F2490D43440D4FF30040BAA
:10065800EF24BFB41A0050032461FFE5416002157E
:10066800410544E5447002054330070D7829E475D7
:10067800F0011205F2EF02056B0215AE7403D20702
:100688008003E4C207F5408B298A2A892BE4F541C7
:10069800F543F544E54160077F2012066380F57550
:1006A80042FFC201C200C202C203C205C206C2089A
:1006B800120631FF700D3007057F00120674AF4433
:1006C800AE4322B4255FC2D5C204120631FF24D03E
:1006D800B40A00501A75F00A784130D50508B6FFFB
:1006E8000106C6A426F620D5047002D20380D924B8
:1006F800CFB41A00EF5004C2E5D204020961D20156
:1007080080C6D20080C0D20280BCD2D580BAD205C1
:1007180080B47F201206632002077401B5410040AF
:10072800F1120628FF12066302069CD208D2068040
:1007380095120628FB120628FA120628F94A4B7069
:100748000679587A0A7BFF20022EE541602A7E004E
:100758008E8275830012053E60060EEE654270F0CB
:10076800C2D5EBC0E0EAC0E0E9C0E0EE1209C1D0B2
:10077800E0F9D0E0FAD0E0FB120525FF60AAEBC053
:10078800E0EAC0E0E9C0E0120663D0E02401F9D055
:10079800E03400FAD0E0FBE5420460DCD542D980C1
:1007A80087D20280A21209A460F7E5427001041200
:1007B8000383A942600DE542600914F542120A4B11
:1007C800EF60F3EA30E702F404C3995077EAF425BE
:1007D800420430E701E404F542800D1209A460C127
:1007E800EA05422542120383EA783FF630E701E43E
:1007F800254204D54204200501141209C1E4C0E0D1
:10080800120A4B783FE6601320E70714F612064BEE
:10081800802204F6D0E014C0E07F0012064BE542C7
:1008280060071206421542800B300503120642D0BB
:10083800E002069CD0E00480C51209A460A0E5424D
:1008480004120383783FEAF6E542200502600104BA
:0508580024041209C197
:10085D0074FF04C0E0120A4B12064BE5422005025C
:10086D006003120642D0E0B542E87F451206557886
:10087D003FE67F2B30E7047F2DF404C0E0120663C2
:10088D00D0E075F00A84C0F012064CD0E012064C90
:10089D0002069C791080027908C206C2088008D22F
:1008AD00D5790A8004790AC2D5E542047002F54271
:1008BD00E4FAFDFEFF120628FC7B08200113120648
:1008CD0028FD7B1030000A120628FE120628FF7B39
:1008DD0020EC3382D592D55013C3E43000069FFF30
:1008ED00E49EFEE42001039DFDE49CFCE4CBF8C2F4
:1008FD0001EC700CCFCECDCCE824F8F870F3801756
:10090D00C3EF33FFEE33FEED33FDEC33FCEB33FB86
:10091D00994002FB0FD8E9EB300105F8D0E0C4484F
:10092D00B201C0E00AEC4D4E4F78207B0070C2EA58
:10093D00B5420040BCC0E01209C3D0F0D0E02001A8
:10094D0004C4C0E0C4B201C0F012064CD0F0D5F022
:10095D00EB02069C12060207395308A058070A4CF1
:10096D0007064208A44F08AC4408AC49071F4308CA
:10097D00B25507E34608414507AD470A7850070EC3
:10098D002D07122E07352B0716230733200A612A50
:10099D0006CE480000072DE542B4FF03754206124E
:1009AD000628FC120628FD120628FE120628FF78DE
:1009BD00380203B2790AA2D5200314300509B91003
:1009CD00020404B9080104A2D52006025001042036
:1009DD0002689202B541005034C0E07F2030031907
:1009ED007F30A20272067205500F120A1AC202C29D
:1009FD0006C205C2087F30800F300503E9C0E01242
:100A0D000663300503D0E0F9D0E0B541CC300517D1
:100A1D007F30B9100C1206637F583004077F788041
:100A2D0003B908031206633002057F2D0206637FAA
:100A3D00202008F87F2B2006F322920280CF7F0022
:100A4D00B4070050052438F8E6FF22286E756C6C4B
:100A5D002900D2011206283001F8C201784130D5A3
:100A6D000108F60206CE2D504349581206282403DC
:100A7D00B405004001E4900A7393120654743A12BF
:0A0A8D000654D2037541040208A0CC
:10033900E9D2E7C933E833F892D5EDD2E7CD33EC0A
:0703490033FC5002B2D52283
:10035000EC30E7100FBF000C0EBE00080DBD00040E
:100360000BEB6014A2D5EB13FCED92E7FD2274FFBA
:10037000FCFDFEFF22E480F8A2D574FF13FC7D8013
:03038000E480EF27
:10038300F920E72824F950037907E4F42402FB1841
:10039300DBFDE624FB5014E9600DE4F618E604F6F1
:0F03A300B40A08E4F6D9F57401F60A22C2D5228D
:1003B200ED33EC3392D5FA602AB4FF33EDC2E77B1A
:1003C200FF60067A0379D7E4227A0379E020D50424
:1003D2007A0379DB224E614E002B494E46002D49AD
:1003E2004E4600E47A08F608DAFC7B00740722E83D
:1003F200C0E0ECC0E0EDC0E0EEC0E0EFC0E0EA75C6
:10040200F010A4CAABF075F04DA42BFBE435F0FC60
:10041200EA2410FAEB34C5FBEC34D9FCEDC2E7FF59
:1004220075F056A4F42411C5F0F434C58FF0A42A53
:10043200E5F03BE43CF620E7141204E5D0E0FFD0FF
:10044200E0FED0E0FDD0E0FC1202278014F404129A
:1004520004E5D0E0FFD0E0FED0E0FDD0E0FC1201E8
:100462001ED0E0F8E6FAEDD2E7CD33EC332482FB7E
:10047200E4C3CF33CFCE33CECD33CD33DBF37B07E3
:1004820075F00A846004F6081B0AE5F0F6088FF09E
:10049200740AA4FFACF08EF0740AA42CFEACF050E7
:1004A200010C8DF0740AA42CFDE435F0F608DBDEB5
:0304B200740722AA
:1004B5003F8000004120000042C80000447A00004F
:1004C500461C400047C35000497424004B189680D1
:1004D5004CBEBC205A0E1BCA6753C21C749DC5AEC8
:1004E500FB60065407601C2323120513EB54386088
:1004F500091204FF12050E12011EECF8EDF9EEFAD1
:10050500EFCB22EB12050E80F1543803241C900426
:10051500B5FE93FC0EEE93FD0EEE930ECE93FF22E9
:0300000002104BA0
:0C104B00787FE4F6D8FD758171021092E8
:10052500BB010689828A83E0225002E722BBFE02D4
:09053500E32289828A83E4932207
:10053E00BB010CE58229F582E5833AF583E0225072
:10054E0006E92582F8E622BBFE06E92582F8E222BC
:0D055E00E58229F582E5833AF583E49322D6
:10056B00BB010689828A83F0225002F722BBFE016F
:02057B00F32269
:10057D00EF8DF0A4A8F0CF8CF0A428CE8DF0A42E92
:02058D00FE224C
:10058F00BC000BBE0029EF8DF084FFADF022E4CC50
:10059F00F875F008EF2FFFEE33FEEC33FCEE9DEC19
:1005AF00984005FCEE9DFE0FD5F0E9E4CEFD22ED5F
:1005BF00F8F5F0EE8420D21CFEADF075F008EF2FA9
:1005CF00FFED33FD4007985006D5F0F222C398FD9A
:0505DF000FD5F0EA2237
:0E05E400C3E49FFFE49EFEE49DFDE49CFC2228
:1005F200FAE6FB0808E6F925F0F618E6CA3AF6220A
:10060200D083D082F8E4937012740193700DA3A387
:1006120093F8740193F5828883E47374029368609B
:06062200EFA3A3A380DF9B
:1015AE00EFB40A07740D1215B9740A309811A89980
:1015BE00B8130CC2983098FDA899C298B811F6309D
:0715CE0099FDC299F5992275
:10105700021666E493A3F8E493A34003F68001F233
:1010670008DFF48029E493A3F85407240CC8C3339A
:10107700C4540F4420C8834004F456800146F6DF69
:10108700E4800B0102040810204080901255E47E92
:10109700019360BCA3FF543F30E509541FFEE4935E
:1010A700A360010ECF54C025E060A840B8E493A325
:1010B700FAE493A3F8E493A3C8C582C8CAC583CA50
:1010C700F0A3C8C582C8CAC583CADFE9DEE780BE08
:0112C000002D
:00000001FF
