:10056500021E0000041A00000000C103C100C10101
:0B057500C102011900C10402170000C0
:100C7E00120DBF120D63120BCE120CA4120E261201
:100C8E00077C120DA9120B9A120871120E6312072D
:060C9E00FA120A6980F25F
:03000B0002067E6C
:10067E00C0E0C0F0C083C082C0D075D000C000C042
:0D068E0001C002C003C004C005C006C007C3
:10069B000518E51870020517AE17FF7C007D641274
:1006AB0002DDED4C7004D2008011AE17AF187C0048
:1006BB007DE61202DDED4C7002D201C3E51894EE1B
:1006CB00E51794024008751700751800D202120A3C
:0706DB00AF1209BE12047901
:1006E200D007D006D005D004D003D002D001D0006C
:0B06F200D0D0D082D083D0F0D0E03216
:1007FA00300208C20212077C120E26300108120CBF
:10080A00A4120A69C20130005D120B9AAC07E41205
:10081A0002167B377A6A799D783C1201068F1D8E03
:10082A001C8D1B8C1AE4FFFE7DC87C42AB1DAA1CE2
:10083A00A91BA81A12010612024A8E1E8F1FC3E5AF
:10084A001F9464E51E94005004D2038002C2033050
:10085A00030FC3E519941E7480948050070519800C
:07086A0003E4F519C20022AE
:100A6900E559C4540F75F00AA4FFE559540F2FFF37
:100A7900E50EC39408748094805015EFC3950E4019
:100A89000CEF9408748094805003D20422C204228B
:100A9900EFC3950E500AC3EF9408748094805003F5
:050AA900D20422C2048A
:010AAE002225
:0B0E5800C0F9A4B0999282F88090FFCE
:10058000080FFFFFFFFFFFFFFFFFC105010D000187
:0F0590000900010E11020B0019010A04010800F5
:1009BE007580FF300402C280AE0BAF0C7C007D0A46
:1009CE001202CBC3E55C9FE55B9E5002C2813003F1
:1009DE0032C3E519941E748094804002C282E50AE7
:1009EE0024FB60111460121460131460142404703C
:1009FE0012C283800EC284800AC2858006C286809F
:0D0A0E0002C2877F04120E33E4FF020E3394
:0A0E6300200503020D2F120D492295
:100D2F00E50D7003020B2EE50D64017003020952ED
:0A0D3F00E50D640270031206FD22A8
:100D4900E5097003020A1BE509640170030208E260
:0A0D5900E50964027003120C012288
:100B2E00E559C4540F900E5893F50FE559540F9391
:100B3E00F5107511BFE558C4540F93F512E55854CE
:100B4E000F93F5137514BFE557C4540F93F515E5C0
:070B5E0057540F93F5162216
:10095200750FC6900E62E493F510F511F512F513BA
:10096200AE5BAF5C7C007D641202DD7C007D0A120E
:1009720002DD74582DF582740E3CF583E493F51470
:10098200AE5BAF5C7C007D0A1202DD7C007D0A1248
:1009920002DD74582DF582740E3CF583E493547F86
:1009A200F515AE5BAF5C7C007D0A1202DD74582D3A
:0C09B200F582740E3CF583E493F51622E8
:1006FD00750F86900E62E493FBF510AE1EAF1F7C56
:10070D00007D641202DD7C007D0A1202DD74582D1D
:10071D00F582740E3CF583E493547FF511AE1EAF54
:10072D001F7C007D0A1202DD7C007D0A1202DD7441
:10073D00582DF582740E3CF583E493F512AE1EAF81
:10074D001F7C007D0A1202DD74582DF582740E3C5B
:10075D00F583E493F5138B14900E62E493F5152055
:0F076D000305900E588003900E59E493F5162261
:100A1B00750F8C900E59E493F510900E62E493F5DC
:100A2B0011F512F513F514200516E50E75F00A8471
:100A3B0075F00A84E5F0900E5893F515E50E8014C9
:100A4B00E55675F00A8475F00A84E5F0900E58931C
:0E0A5B00F515E55675F00A84E5F093F51622C0
:1008E200750F8C900E5AE493F510900E62E493F516
:1008F20011F512F513F514200538AE0BAF0C7C0080
:100902007D0A1202DD7C007D0A1202DD74582DF58B
:1009120082740E3CF583E493F515AE0BAF0C7C00AC
:100922007D0A1202DD74582DF582740E3CF583E4C3
:10093200801AE55675F00A8475F00A84E5F0900E87
:100942005893F515E55675F00A84E5F093F51622ED
:100C0100750F8C900E5BE493F510900E62E493F5F2
:100C110011F512F513F514F515200504E50A800206
:0F0C2100E55675F00A84E5F0900E5893F516220B
:100AAF007580FF7F07120E33740F2508F8E6F58067
:100ABF00E4FF120E33E4F5807F06120E33AF08A861
:100ACF00077401088002C333D8FCF580E4FF120ECF
:100ADF00330508D3E5089407748094804003E4F548
:010AEF0008FE
:010AF00022E3
:100DF90030303030303030303539303034383030D0
:10059F0010420101010101010101010101010101EC
:1005AF00010101560001521102540019015304C1F7
:1005BF0006102101010101010101010101010101E8
:1005CF000101010131001032FFFFFFFFFFFFFFFFAD
:0805DF00FFFFFFFFFFFFFFFF1C
:10034000EF64347029200514D205F509850E528515
:100350000B54850C55850A5385525622C205E4F587
:100360000D85520E85540B85550C85530A22EF647A
:1003700035706D200514050DE50DC394037480944C
:10038000805003020478E4F50D22E509FD7C00703D
:100390000F300607855652C2068000855556802CC0
:1003A000ED64014C701330060BE556755400F5559D
:1003B000C20680008553568013E5096402700D3033
:1003C0000607855653C20680008552560509E50981
:1003D000C39403748094805003020478E4F50922E6
:1003E000EF64387048200503020478D206E509FD61
:1003F0007C00700FE556D39400748094804079158A
:10040000568047ED64014C700FE556D3940074801C
:100410009480406415568049E5096402705AE55697
:10042000D3940474809480404F15568048EF64390B
:100430007046300543D206AF09FEEF7011C3E55692
:100440009417748094805030055685565222EF647C
:10045000014E7014C3E5569463748094805019055E
:100460005675540085565522C3E5569408748094F9
:0904700080500505568556532203
:10087100E4FBEBC39404748094805064E4FAEAC30B
:100881009404748094805055EB25E025E024422A9D
:10089100F8E6FFEB25E025E024212AF8E6FE6F606B
:1008A10039EE6401701EEB25E025E024F9F582E4C0
:1008B100340DF583E5822AF582E43583F583E493EB
:1008C100FF120340EB25E025E024422AF8E6FFEB86
:1008D10025E025E024212AF8A6070A80A10B8092B1
:0108E10022F4
:10047900E53125E025E02432F8E625E0FFA2C4E4D1
:10048900334FFFE53125E025E02432F8A607E531B1
:1004990025E025E02433F8E625E0FFA2C2E4334F46
:1004A900FFE53125E025E02433F8A607E53125E00D
:1004B90025E02434F8E625E0FFA2B5E4334FFFE553
:1004C9003125E025E02434F8A607E53125E025E0CB
:1004D9002435F8E625E0FFA2B4E4334FFFE53125E2
:1004E900E025E02435F8A607E4FFEFC394047480FF
:1004F90094805035E53125E025E024322FF8E65483
:100509000FFD7C00700EE53125E025E024422FF82F
:10051900E4F68012ED640F4C700CE53125E025E01E
:1005290024422FF876010F80C10531D3E5319403B8
:10053900748094804003E4F531E53114600F146050
:100549001114601324037013C2B0D2B322C2B1D202
:0B055900B022C2B2D2B122C2B3D2B2B3
:010564002274
:0E0E180080828486888A8C81838587898B8E70
:0605E700045750591609EB
:100BCE00E4F55DFD7F8E120DD4E4F55DC3E55D9415
:100BDE0004748094805015E55D900E1893FF745741
:100BEE00255DF8E6FD120DD4055D80E07D807F8EDB
:030BFE00020DD411
:100CA400E4F55DF55DC3E55D9404748094805015AE
:100CB400E55D900E1F93FF120AF17457255DF8A6A7
:050CC40007055D80E062
:010CC9002208
:100D1300E4FEEEC3940874809480500FC297EF13DF
:0B0D230092A3EFC313FFD2970E80E7EE
:010D2E0022A2
:100DD400C29300C29700D29300120D13AF05120DF7
:040DE40013C2932281
:100AF100E4FDC29300C29700D29300120D13E4FFEC
:100B0100EFC39408748094805011C297EDC313FD14
:100B110030A303430580D2970F80E5C29300C297AB
:0C0B210000D29700C2A300D2A300AF05D1
:010B2D0022A5
:0405ED00025B0000AD
:0D0E2600120C577FCC120C307F44020C30B0
:10077C00120C577FCC120C307FBE120C30120CF0C6
:10078C008F5D120CF0755B008F5CE55CF55BE55DD5
:10079C00F55CE55B54F87055E55BC4F854F0C8683B
:1007AC00F55BE55CC4540F48F55CAE5BFF7C007DEB
:1007BC000A1202CB8E5B8F5CE55D540FFCE41202D7
:1007CC0016E4FBFA7920783F120106C004C005C07C
:1007DC0006C007AC5BAD5CE4120211D003D002D0B2
:0D07EC0001D00012001512024A8E5B8F5CD6
:0107F90022DD
:040D93007F057E005A
:100D97007C007D0C1202CBEF1FAC0670011E4C705D
:020DA700F62232
:020C3000AB0710
:100C3200E4FAEAC39408748094805012C294EB13CD
:100C42009294120D93D294EBC313FB0A80E47F05B6
:050C52007E00020D9779
:100CF000E4FAEAC39408748094805014C294EBC35D
:100D000013FBD294309403430380120D930A80E2C4
:020D1000AF032F
:010D120022BE
:100C5700C207D2947F0C7E00120D97C2947F507EFC
:100C670000120D97D2947F0A7E00120D97A29492DC
:060C770007120D93A20715
:010C7D002254
:100DA900120E097F90120B65120DE87F41120B6537
:060DB900120DE8020E4CD1
:100B9A00E4F55D120E097F90120B65120DE87F01D4
:100BAA00120B65120DE8120E4C120E097F91120BF0
:100BBA0065120DE8120CCA8F5DD207120D7C120E57
:030BCA004CAF5DD0
:010BCD002205
:040E4000D2A07F2895
:080E440000AE071FEE70F92259
:0F0E0900D2A1120E40C2A17F28120E44C2A02215
:0C0E4C00C2A1120E40D2A17F28020E4469
:100D7C00C2A0A20792A17F28120E44120E40C2A05C
:070D8C00D2A17F28020E44F2
:100DE800120E40A2A19207C2A07F28120E44A207A9
:010DF80022D8
:020B6500AD07DA
:100B6700E4FCECC39408748094805024C2A07F28CE
:100B7700120E44ED30E704D2A18002C2A17F2812F1
:100B87000E44D2A0ED25E0FD7F28120E440C80D242
:020B9700C2A0FA
:010B99002239
:100CCA00E4FCECC39408748094805017120E40ED33
:100CDA0025E0FD30A103430501C2A07F28120E447E
:050CEA000C80DFAF05E6
:010CEF0022E2
:100D63007F04120E337580FFE4FF120E337F0512EA
:090D73000E33E4F580FF020E339B
:0D0E330053A01FEF5407C43354E042A02227
:100DBF00438E805389F0758A20758CD1C28DD28C69
:050DCF00D2A9D2AF2201
:10000E000202B6E86480F8E933E83360110460F068
:10001E00ED33EC337009E8FCE9FDEAFEEBFF220458
:10002E0060DED3EB9FEA9EE99DE8C2E78CF0C2F753
:10003E0095F0400CE8CCF8E9CDF9EACEFAEBCFFB1F
:10004E0012028185D0F05804700320D5B3E80470F5
:10005E00075002B2D50202C092D5EC0460F7E4CC90
:10006E00C0E0C398F8603B94186008400DD0E0FBE8
:10007E00020298E4FBFAC9FC8028E830E406E4C9E1
:10008E00FBE4CAFCE830E305E4C9CACBFCE854073C
:10009E006010F8C3E913F9EA13FAEB13FBEC13FC47
:1000AE00D8F130F52FC3E49CFCEF9BFFEE9AFEEDEA
:1000BE0099FDD0E0FBEF4E4D4C701222DB03020295
:1000CE00BDEC2CFCEF33FFEE33FEED33FDED30E7F0
:1000DE00EB020298EF2BFFEE3AFEED39FDD0E0FB7E
:1000EE0050130BBB00030202C0ED13FDEE13FEEF27
:0800FE0013FFEC13FC02029851
:10010600EC4D6011E8497017ED33EC3304600DE4F3
:10011600FCFFFEFD22E933E8330470F80202B61252
:10012600028158046009E4CC248150062850090253
:1001360002C02840030202BDC0E0EB4A7044B98009
:1001460006D0E0FB0202ACEF4E701CBD8008EBFF50
:10015600EAFEE9FD80EBE98DF0A4FEE5F00201EF91
:10016600E9CDF9EAFEEBFFEF89F0A4FCE5F0CE89D4
:10017600F0A42EFFE435F0CD89F0A42DFEE435F091
:100186008067EF4E7005BD80D780C3EF8BF0A4ACBF
:10019600F0EE8BF0A42CFCE435F0F8EF8AF0A42CFA
:1001A600E5F038FCE433CB8DF0A42CFCE5F03BF80D
:1001B600EE8AF0A42CFCE5F038F8E433CF89F0A4FD
:1001C6002CFCE5F038CF3400CE89F0A42FFFE5F003
:1001D6003EFEE433C98DF0A42EFEE5F039CD8AF05B
:1001E600A42FFFE5F03EFEE43DFD33D0E0FB5007D3
:1001F6000BBB000F0202C0EC2CFCEF33FFEE33FE0C
:06020600ED33FD02029839
:10020C0075F020800E75F010800575F0087D007E6D
:10021C00007F003392D530D503120332EC334010FB
:10022C00EF33FFEE33FEED33FDEC33FCD5F0ED2276
:0E023C00E5F0247EA2D513CC92E7CDCEFF22B2
:10024A00EDD2E7CD33EC3392D524814006E4FFFEAC
:10025A00FDFC22FCE4CFCECDCC24E0501174FF800B
:10026A00EDC3CC13CCCD13CDCE13CECF13CF0470A8
:07027A00F030D5DE02033273
:10028100E9D2E7C933E833F892D5EDD2E7CD33ECC3
:0702910033FC5002B2D5223C
:10029800EC30E7100FBF000C0EBE00080DBD0004C7
:1002A8000BEB6014A2D5EB13FCED92E7FD2274FF73
:1002B800FCFDFEFF22E480F8A2D574FF13FC7D80CC
:0302C800E480EFE0
:030000000205F204
:0C05F200787FE4F6D8FD75815D020639C3
:1002CB00EF8DF0A4A8F0CF8CF0A428CE8DF0A42E47
:0202DB00FE2201
:1002DD00BC000BBE0029EF8DF084FFADF022E4CC05
:1002ED00F875F008EF2FFFEE33FEEC33FCEE9DECCE
:1002FD00984005FCEE9DFE0FD5F0E9E4CEFD22ED14
:10030D00F8F5F0EE8420D21CFEADF075F008EF2F5D
:10031D00FFED33FD4007985006D5F0F222C398FD4E
:05032D000FD5F0EA22EB
:0E033200C3E49FFFE49EFEE49DFDE49CFC22DC
:1005FE00020C7EE493A3F8E493A34003F68001F289
:10060E0008DFF48029E493A3F85407240CC8C333FD
:10061E00C4540F4420C8834004F456800146F6DFCC
:10062E00E4800B0102040810204080900565E47EF2
:10063E00019360BCA3FF543F30E509541FFEE493C1
:10064E00A360010ECF54C025E060A840B8E493A388
:10065E00FAE493A3F8E493A3C8C582C8CAC583CAB3
:10066E00F0A3C8C582C8CAC583CADFE9DEE780BE6B
:0105F1000009
:00000001FF
