:1006930002320190013019013100C101C100022E63
:0206A300000055
:100A0B001209751209F612085712062612099512C9
:040A1B00078780F5D4
:03000B0002040FDD
:10040F00C0E0C0F0C083C082C0D075D000C000C0B3
:0D041F0001C002C003C004C005C006C00734
:10042C00052FE52F7002052EAE2EFF7C007D641289
:10043C0006F0ED4C701BD2000525C3E5259408741D
:10044C00809480400C752500200304D2038002C2E6
:10045C0003C3E52F9533E52E9532400B752E0075B1
:10046C002F00300502D201AF301209AF92021205F3
:07047C00AD1207451202D981
:10048300D007D006D005D004D003D002D001D000CD
:0B049300D0D0D082D083D0F0D0E03277
:10062600300067C2001209148F317E00D3EF944068
:10063600748094805005753019804FD3EF9440EE46
:10064600648094804010D3EF9480EE648094805050
:10065600057530328034D3EF9480EE648094804008
:1006660010D3EF94C0EE64809480500575304B80B3
:1006760019D3EF94C0EE64809480400ED3EF94FFBC
:0D068600EE648094805003753064020379A7
:0F0A30007EBDDBE7C0F9A4B0999282F88090FFF9
:1006A5000123000124010826FFFFFFFFFFFFFFFFD5
:0D06B500012200012500C103C10201210046
:10099500E52270030207FDE5226401700302022AC5
:0A09A500E5226402700312017722BC
:1002D900E5246401700B12093585163285173380C0
:1002E90031E5246402700B120955851832851933DA
:1002F9008020E5246403700B120880851A32851B5F
:1003090033800FE524640470091208A6851C328520
:100319001D3330055A300157C201AF24EF64016023
:1003290005EF640270130523D3E5239407748094C1
:1003390080403CE4F523052422AF247E00EF6403CA
:1003490070130523D3E523940374809480402075AA
:100359002303052422EF64044E7014D3E52394008B
:10036900748094804003152322E4F5237524012227
:1007FD00900A3EE493F526F527F528F529F52AF517
:10080D002B200405F52CF52D22752CBFE53075F048
:0F081D00198475F00A84E5F0900A3493F52D22C2
:10022A002003107526BFE511900A3493F527752827
:10023A00BF800B900A3EE493F526F527F528900A2D
:10024A003EE493FBF529C3E51F94E8E51E940340B9
:10025A0022AE1EAF1F7C037DE81206F07C007D0AE9
:10026A001206F074342DF582740A3CF583E493F592
:10027A002A80028B2AAE1EAF1F7C007D641206F014
:10028A007C007D0A1206F074342DF582740A3CF55E
:10029A0083E493F52BAE1EAF1F7C007D0A1206F095
:1002AA007C007D0A1206F074342DF582740A3CF53E
:1002BA0083E493F52CAE1EAF1F7C007D0A1206F074
:0F02CA0074342DF582740A3CF583E493F52D22EC
:100177007526BFE511900A3493F5277528BF900AB5
:100187003EE493FBF52930030302021CC3E51F94E9
:10019700E8E51E94034022AE1EAF1F7C037DE812E4
:1001A70006F07C007D0A1206F074342DF582740A7D
:1001B7003CF583E493F52A80028B2AAE1EAF1F7CA1
:1001C700007D641206F07C007D0A1206F074342D5F
:1001D700F582740A3CF583E493F52BAE1EAF1F7CC2
:1001E700007D0A1206F07C007D0A1206F074342D99
:1001F700F582740A3CF583E493F52CAE1EAF1F7CA1
:10020700007D0A1206F074342DF582740A3CF583DA
:10021700E493F52D22900A3EE493F52AF52BF52C6D
:03022700F52D2290
:10074500E4F5807F06120A4EAF21A80774010880E0
:1007550002C333D8FCF580E4FF120A4E7580FF7F93
:1007650007120A4E74262521F8E6F580E4FF120AE1
:100775004E0521D3E5219407748094804003E4F568
:010785002152
:010786002250
:100935007580FF7F04120A4E300210AF23A807749A
:1009450001088002C333D8FCF4F580E4FF020A4EA7
:100955007580FF7F04120A4E300210AF23A807747A
:1009650080088002C313D8FCF4F580E4FF020A4E28
:10088000D3E5239403748094804003E4F5237580BA
:10089000FF7F04120A4E300208E523900A3093F5D8
:0608A00080E4FF020A4E95
:1008A600D3E52394037480948040037523037580F5
:1008B600FF7F04120A4E300208E523900A3093F5B2
:0608C60080E4FF020A4E6F
:040003003736353423
:1006C200041201010101021E01900816019001901D
:1006D20001900190011101C185C1040408010101C9
:0A06E20001010C00040DFFFFFFFFF3
:10000E008F35E535B43709300503C20522D20522F6
:10001E00E5356436707A0522C3E522940374809424
:10002E0080403FE4F522E51124FE601414601B1499
:10003E00602224037029851E16851F177F01801CE0
:10004E00851E18851F197F028012851E1A851F1B9B
:10005E007F038008851E1C851F1D7F0412052A75CF
:10006E001101E5226401700985161E85171F751191
:10007E0001E51124FE60101460101460102403605A
:10008E000302017602012E02013502013C020143F8
:10009E00E5356435705CAF22FEEF6401702B0511FF
:1000AE00D3E5119404748094804003751101E51119
:1000BE0024FE600F14600E14600D24036003020111
:1000CE0076805D80628067806CEF64024E60030212
:1000DE0001767464251FF51FE4351EF51ED3E51F4A
:1000EE0094B0E51E94045003020176751E04751F2C
:1000FE00B022E53564347070AF22FEEF6401703CBF
:10010E001511C3E511940174809480500375110488
:10011E00E51124FE60111460151460192403704853
:10012E0085161E85171F2285181E85191F22851AF2
:10013E001E851B1F22851C1E851D1F22EF64024E6D
:10014E00701E749C251FF51F74FF351EF51EC3E52A
:10015E001F9490E51E9401500F751E01751F90227D
:09016E00200403D20422C2042281
:10078700E4F534F534C3E534940474809480503030
:1007970074122534F8E6FF74082534F8E6FE6F6016
:1007A7001BEE600AE53490000393FF12000E7412EB
:1007B7002534F8E6FF74082534F8A607053480C504
:0107C700220F
:1005AD00E50C14601814602314602E24037036E5D6
:1005BD000D25E0FFA2B0E4334FF50D8028E50E25A3
:1005CD00E0FFA2B1E4334FF50E801AE50F25E0FFF1
:1005DD00A2B2E4334FF50F800CE51025E0FFA2B376
:1005ED00E4334FF510740D250CF8E6540FFF7E0023
:1005FD0070097412250CF8E4F6800DEF640F4E703F
:10060D00077412250CF87601050CD3E50C940374D0
:08061D008094804003E4F50C19
:0106250022B2
:02082C008F3605
:10082E00120A3F7FA01207C8120A1FAF361207C85E
:10083E00120A1F120A3F7FA11207C8120A1F1208BE
:08084E00CC8F37120A67AF37A7
:01085600227F
:1008F2008F378D38120A3F7FA01207C8120A1FAF26
:10090200371207C8120A1FAF381207C8120A1F028D
:020912000A6772
:1009E000120A3F7F901207C8120A1F7F031207C81E
:0609F000120A1F020A6753
:10091400E4F5341209E0120A3F7F911207C8120A63
:100924001F1208CC8F34D2061209C9120A67AF34D9
:0109340022A0
:040A5B00D2A07F287E
:080A5F0000AE071FEE70F92242
:0F0A3F00D2A1120A5BC2A17F28120A5FC2A022B5
:0C0A6700C2A1120A5BD2A17F28020A5F24
:1009C900C2A0A20692A17F28120A5F120A5BC2A0E6
:0709D900D2A17F28020A5F92
:100A1F00120A5BA2A19206C2A07F28120A5FA20649
:010A2F0022A4
:0207C800AD077B
:1007CA00E4FCECC39408748094805024C2A07F286F
:1007DA00120A5FED30E704D2A18002C2A17F28127B
:1007EA000A5FD2A0ED25E0FD7F28120A5F0C80D2B5
:0207FA00C2A09B
:0107FC0022DA
:1008CC00E4FCECC39408748094805017120A5BED1E
:1008DC0025E0FD30A103430501C2A07F28120A5F69
:0508EC000C80DFAF05E8
:0108F10022E4
:0306EC00013900D1
:080A73007F3B7E5ADEFEDFFC32
:010A7B002258
:10085700E47FF812082CEF644E601B7F0112052A13
:100867007F0212052A7F0312052A7F0412052A7DBB
:090877004E7FF81208F202037929
:10037900E4F534F5357F1012082C7534008F35E516
:1003890035753500F5347F1112082CEF4235E485B7
:100399003416853517F534F5357F2012082C753458
:1003A900008F35E535753500F5347F2112082CEFBE
:1003B9004235E4853418853519F534F5357F301221
:1003C900082C7534008F35E535753500F5347F31E6
:1003D90012082CEF4235E485341A85351BF534F5BE
:1003E900357F4012082C7534008F35E53575350099
:1003F900F5347F4112082CEF4235E485341C8535EC
:050409001DF534F5357E
:01040E0022CB
:10052A00E4F536EF24FE602514603D14605524037B
:10053A007070E516F536AD367F101208F2120A739E
:10054A00E4F536E517F536AD367F11804FE518F537
:10055A0036AD367F201208F2120A73E4F536E51931
:10056A00F536AD367F218034E51AF536AD367F3063
:10057A001208F2120A73E4F536E51BF536AD367F3A
:10058A00318019E51CF536AD367F401208F2120AA1
:10059A0073E4F536E51DF536AD367F411208F212E1
:0205AA000A73D2
:0105AC00222C
:1009AF00C374649FFEE539C39F5007EE2539F539AF
:0909BF00D322C3E5399FF539C3C9
:0109C800220C
:1009F600438E805389F0758A20758CD1C28DD28C36
:050A0600D2A9D2AF22CD
:100975007580FF7F04120A4E7F07120A4EE4FF12AC
:100985000A4EC286C2847F05120A4EE4FF020A4E51
:0D0A4E0053A01FEF5407C43354E042A02210
:0300000002049E59
:0C049E00787FE4F6D8FD7581390204E592
:1006F000BC000BBE0029EF8DF084FFADF022E4CCEE
:10070000F875F008EF2FFFEE33FEEC33FCEE9DECB6
:10071000984005FCEE9DFE0FD5F0E9E4CEFD22EDFC
:10072000F8F5F0EE8420D21CFEADF075F008EF2F46
:10073000FFED33FD4007985006D5F0F222C398FD37
:050740000FD5F0EA22D4
:1004AA00020A0BE493A3F8E493A34003F68001F253
:1004BA0008DFF48029E493A3F85407240CC8C33353
:1004CA00C4540F4420C8834004F456800146F6DF22
:1004DA00E4800B0102040810204080900693E47E19
:1004EA00019360BCA3FF543F30E509541FFEE49317
:1004FA00A360010ECF54C025E060A840B8E493A3DE
:10050A00FAE493A3F8E493A3C8C582C8CAC583CA08
:10051A00F0A3C8C582C8CAC583CADFE9DEE780BEC0
:0106EF00000A
:00000001FF
