:10095B0002320190013019013100C101C100022E98
:02096B0000008A
:100C7E00120BE8120C69120ACA120887120C08121B
:040C8E0009FA80F5EA
:03000B000206F3F7
:1006F300C0E0C0F0C083C082C0D075D000C000C0CD
:0D07030001C002C003C004C005C006C0074D
:10071000052FE52F7002052EAE2EFF7C007D6412A2
:100720000906ED4C701BD2000525C3E5259408741D
:10073000809480400C752500200304D2038002C2FF
:1007400003C3E52F9533E52E9532400B752E0075CA
:100750002F00300502D201AF30120C229202120893
:070760000E1209B812065346
:10076700D007D006D005D004D003D002D001D000E6
:0B077700D0D0D082D083D0F0D0E03290
:10088700300067C200120B878F317E00D3EF944090
:10089700748094805005753019804FD3EF9440EEE3
:1008A700648094804010D3EF9480EE6480948050ED
:1008B700057530328034D3EF9480EE6480948040A5
:1008C70010D3EF94C0EE64809480500575304B8050
:1008D70019D3EF94C0EE64809480400ED3EF94FF59
:0D08E700EE6480948050037530640201DFE0
:0F0CA3007EBDDBE7C0F9A4B0999282F88090FF84
:10096D000123000124010826FFFFFFFFFFFFFFFF0A
:0D097D00012200012500C103C1020121007B
:100C0800E5227003020A70E522640170030205A45C
:0A0C1800E522640270031204F122C9
:10065300E5246401700B120BA885163285173380CD
:1006630031E5246402700B120BC8851832851933E7
:100673008020E5246403700B120AF3851A32851B6C
:1006830033800FE52464047009120B19851C32852D
:100693001D3330055A300157C201AF24EF640160A6
:1006A30005EF640270130523D3E523940774809444
:1006B30080403CE4F523052422AF247E00EF64034D
:1006C30070130523D3E5239403748094804020752D
:1006D3002303052422EF64044E7014D3E52394000E
:1006E300748094804003152322E4F52375240122AA
:100A7000900CB1E493F526F527F528F529F52AF52C
:100A80002B200405F52CF52D22752CBFE53075F0D3
:0F0A9000198475F00A84E5F0900CA793F52D22D8
:1005A4002003107526BFE511900CA793F527752835
:1005B400BF800B900CB1E493F526F527F528900C39
:1005C400B1E493FBF529C3E51F94E8E51E940340C9
:1005D40022AE1EAF1F7C037DE81209067C007D0A53
:1005E40012090674A72DF582740C3CF583E493F587
:1005F4002A80028B2AAE1EAF1F7C007D641209067E
:100604007C007D0A12090674A72DF582740C3CF552
:1006140083E493F52BAE1EAF1F7C007D0A120906FE
:100624007C007D0A12090674A72DF582740C3CF532
:1006340083E493F52CAE1EAF1F7C007D0A120906DD
:0F06440074A72DF582740C3CF583E493F52D22F9
:1004F1007526BFE511900CA793F5277528BF900CC1
:10050100B1E493FBF529300303020596C3E51F947B
:10051100E8E51E94034022AE1EAF1F7C037DE81266
:1005210009067C007D0A12090674A72DF582740C58
:100531003CF583E493F52A80028B2AAE1EAF1F7C23
:10054100007D641209067C007D0A12090674A72D3C
:10055100F582740C3CF583E493F52BAE1EAF1F7C42
:10056100007D0A1209067C007D0A12090674A72D76
:10057100F582740C3CF583E493F52CAE1EAF1F7C21
:10058100007D0A12090674A72DF582740C3CF583CF
:10059100E493F52D22900CB1E493F52AF52BF52C7B
:0305A100F52D2213
:1009B800E4F5807F06120CC1AF21A80774010880F6
:1009C80002C333D8FCF580E4FF120CC17580FF7FA9
:1009D80007120CC174262521F8E6F580E4FF120CF5
:1009E800C10521D3E5219407748094804003E4F580
:0109F80021DD
:0109F90022DB
:100BA8007580FF7F04120CC1300210AF23A80774B0
:100BB80001088002C333D8FCF4F580E4FF020CC1BD
:100BC8007580FF7F04120CC1300210AF23A8077490
:100BD80080088002C313D8FCF4F580E4FF020CC13E
:100AF300D3E5239403748094804003E4F523758045
:100B0300FF7F04120CC1300208E523900CA393F578
:060B130080E4FF020CC1AA
:100B1900D3E523940374809480400375230375807F
:100B2900FF7F04120CC1300208E523900CA393F552
:060B390080E4FF020CC184
:040003003736353423
:10098A00041201010101021E019008160190019052
:10099A0001900190011101C185C1040408010101FE
:0A09AA0001010C00040DFFFFFFFF28
:100388008F35E535B43709300503C20522D2052279
:10039800E5356436707A0522C3E5229403748094A7
:1003A80080403FE4F522E51124FE601414601B141C
:1003B800602224037029851E16851F177F01801C63
:1003C800851E18851F197F028012851E1A851F1B1E
:1003D8007F038008851E1C851F1D7F0412000E7573
:1003E8001101E5226401700985161E85171F751114
:1003F80001E51124FE6010146010146010240360DD
:10040800030204F00204A80204AF0204B60204BD09
:10041800E5356435705CAF22FEEF6401702B051181
:10042800D3E5119404748094804003751101E5119B
:1004380024FE600F14600E14600D24036003020490
:10044800F0805D80628067806CEF64024E6003021A
:1004580004F07464251FF51FE4351EF51ED3E51F4F
:1004680094B0E51E940450030204F0751E04751F31
:10047800B022E53564347070AF22FEEF6401703C41
:100488001511C3E51194017480948050037511040B
:10049800E51124FE601114601514601924037048D6
:1004A80085161E85171F2285181E85191F22851A75
:1004B8001E851B1F22851C1E851D1F22EF64024EF0
:1004C800701E749C251FF51F74FF351EF51EC3E5AD
:1004D8001F9490E51E9401500F751E01751F902200
:0904E800200403D20422C2042204
:1009FA00E4F534F534C3E5349404748094805030BB
:100A0A0074122534F8E6FF74082534F8E6FE6F60A0
:100A1A001BEE600AE53490000393FF1203887412F8
:100A2A002534F8E6FF74082534F8A607053480C58E
:010A3A002299
:10080E00E50C14601814602314602E24037036E572
:10081E000D25E0FFA2B0E4334FF50D8028E50E253F
:10082E00E0FFA2B1E4334FF50E801AE50F25E0FF8D
:10083E00A2B2E4334FF50F800CE51025E0FFA2B312
:10084E00E4334FF510740D250CF8E6540FFF7E00BF
:10085E0070097412250CF8E4F6800DEF640F4E70DB
:10086E00077412250CF87601050CD3E50C9403746D
:08087E008094804003E4F50CB6
:01088600224F
:020A9F008F3690
:100AA100120CB27FA0120A3B120C92AF36120A3B13
:100AB100120C92120CB27FA1120A3B120C92120B71
:080AC1003F8F37120CDAAF374A
:010AC900220A
:100B65008F378D38120CB27FA0120A3B120C92AF50
:100B750037120A3B120C92AF38120A3B120C920242
:020B85000CDA88
:100C5300120CB27F90120A3B120C927F43120A3B92
:060C6300120C92020CDAF3
:100B8700E4F534120C53120CB27F91120A3B120C8B
:100B970092120B3F8F34D206120C3C120CDAAF3490
:010BA700222B
:040CCE00D2A07F2809
:080CD20000AE071FEE70F922CD
:0F0CB200D2A1120CCEC2A17F28120CD2C2A02256
:0C0CDA00C2A1120CCED2A17F28020CD2C5
:100C3C00C2A0A20692A17F28120CD2120CCEC2A086
:070C4C00D2A17F28020CD2A7
:100C9200120CCEA2A19206C2A07F28120CD2A206EA
:010CA200222F
:020A3B00AD0705
:100A3D00E4FCECC39408748094805024C2A07F28F9
:100A4D00120CD2ED30E704D2A18002C2A17F281290
:100A5D000CD2D2A0ED25E0FD7F28120CD20C80D255
:020A6D00C2A025
:010A6F002264
:100B3F00E4FCECC39408748094805017120CCEED33
:100B4F0025E0FD30A103430501C2A07F28120CD27E
:050B5F000C80DFAF0572
:010B6400226E
:0309B40001390006
:080CE6007F3B7E5ADEFEDFFCBD
:010CEE0022E3
:100ACA00E47FF5120A9FEF644E601B7F0112000E4D
:100ADA007F0212000E7F0312000E7F0412000E7DA9
:090AEA004E7FF5120B650201DFDD
:1001DF00E4F534F5357F10120A9F7534008F35AE74
:1001EF00347C007D0A1208F48E348F357F11120A89
:1001FF009FEF2535F535E43534F534FEAF357C000A
:10020F007D0A1208F48E348F357F12120A9FEF2564
:10021F0035F535E43534F534FEAF357C007D0A1203
:10022F0008F48E348F357F13120A9FEF2535F5357D
:10023F00E43534F534F516853517E4F534F5357FA7
:10024F0015120A9F7534008F35AE347C007D0A126B
:10025F0008F48E348F357F16120A9FEF2535F5354A
:10026F00E43534F534FEAF357C007D0A1208F48E88
:10027F00348F357F17120A9FEF2535F535E4353466
:10028F00F534FEAF357C007D0A1208F48E348F35BD
:10029F007F18120A9FEF2535F535E43534F534F51F
:1002AF0018853519E4F534F5357F20120A9F75341A
:1002BF00008F35AE347C007D0A1208F48E348F35F2
:1002CF007F21120A9FEF2535F535E43534F534FEDD
:1002DF00AF357C007D0A1208F48E348F357F2212E1
:1002EF000A9FEF2535F535E43534F534FEAF357C0F
:1002FF00007D0A1208F48E348F357F23120A9FEF88
:10030F002535F535E43534F534F51A85351BE4F527
:10031F0034F5357F25120A9F7534008F35AE347C46
:10032F00007D0A1208F48E348F357F26120A9FEF54
:10033F002535F535E43534F534FEAF357C007D0ACF
:10034F001208F48E348F357F27120A9FEF2535F56B
:10035F0035E43534F534FEAF357C007D0A1208F4F0
:10036F008E348F357F28120A9FEF2535F535E4350A
:08037F0034F534F51C85351D31
:010387002253
:10000E00E4F536EF24FE700302009814700302012B
:10001E000414700302016F240360030201DEAE16A6
:10002E00AF177C037DE81209067C007D0A120906D3
:10003E008D367F10120B65120CE6E4F536AE16AF58
:10004E0017FC7D641209067C007D0A1209068D36A6
:10005E007F11120B65120CE6E4F536AE16AF17FCE7
:10006E007D0A1209067C007D0A1209068D367F1262
:10007E00120B65120CE6E4F536AE16AF17FC7D0AD0
:10008E001209068D367F130201D8AE18AF197C0304
:10009E007DE81209067C007D0A1209068D367F1551
:1000AE00120B65120CE6E4F536AE18AF19FC7D6442
:1000BE001209067C007D0A1209068D367F16120B78
:1000CE0065120CE6E4F536AE18AF19FC7D0A12097E
:1000DE00067C007D0A1209068D367F17120B6512FB
:1000EE000CE6E4F536AE18AF19FC7D0A1209068D42
:1000FE00367F180201D8AE1AAF1B7C037DE81209B9
:10010E00067C007D0A1209068D367F20120B6512C1
:10011E000CE6E4F536AE1AAF1BFC7D641209067CC4
:10012E00007D0A1209068D367F21120B65120CE630
:10013E00E4F536AE1AAF1BFC7D0A1209067C007D73
:10014E000A1209068D367F22120B65120CE6E4F5B3
:10015E0036AE1AAF1BFC7D0A1209068D367F238040
:10016E0069AE1CAF1D7C037DE81209067C007D0A7A
:10017E001209068D367F25120B65120CE6E4F53654
:10018E00AE1CAF1DFC7D641209067C007D0A1209AF
:10019E00068D367F26120B65120CE6E4F536AE1C84
:1001AE00AF1DFC7D0A1209067C007D0A1209068D20
:1001BE00367F27120B65120CE6E4F536AE1CAF1D2A
:1001CE00FC7D0A1209068D367F28120B65120CE68D
:0101DE0022FE
:100C2200C374649FFEE539C39F5007EE2539F53939
:090C3200D322C3E5399FF539C353
:010C3B002296
:100C6900438E805389F0758A20758CD1C28DD28CC0
:050C7900D2A9D2AF2258
:100BE8007580FF7F04120CC17F07120CC1E4FF124D
:100BF8000CC1C286C2847F05120CC1E4FF020CC17D
:0D0CC10053A01FEF5407C43354E042A0229B
:0300000002078272
:0C078200787FE4F6D8FD7581390207C9C4
:1008F400EF8DF0A4A8F0CF8CF0A428CE8DF0A42E18
:02090400FE22D1
:10090600BC000BBE0029EF8DF084FFADF022E4CCD5
:10091600F875F008EF2FFFEE33FEEC33FCEE9DEC9E
:10092600984005FCEE9DFE0FD5F0E9E4CEFD22EDE4
:10093600F8F5F0EE8420D21CFEADF075F008EF2F2E
:10094600FFED33FD4007985006D5F0F222C398FD1F
:050956000FD5F0EA22BC
:10078E00020C7EE493A3F8E493A34003F68001F2F7
:10079E0008DFF48029E493A3F85407240CC8C3336C
:1007AE00C4540F4420C8834004F456800146F6DF3B
:1007BE00E4800B010204081020408090095BE47E67
:1007CE00019360BCA3FF543F30E509541FFEE49330
:1007DE00A360010ECF54C025E060A840B8E493A3F7
:1007EE00FAE493A3F8E493A3C8C582C8CAC583CA22
:1007FE00F0A3C8C582C8CAC583CADFE9DEE780BEDA
:0109B700003F
:00000001FF
