:030000000206E015
:0C06E000787FE4F6D8FD75812002072722
:10064D00456E7465722050617373776F726420000C
:10065D00202020202020202020202020202020208D
:10066D0020005365742050617373776F726420207E
:10067D002000456E74657220616761696E202020CF
:10068D00202000202020202020202020202020207D
:10069D0020202000507265737320456E74657220A2
:1006AD00200052657365742050617373776F7264A7
:1006BD0020200057415252494E4720202020202013
:1006CD00202000456E74657220746F6F206D756308
:0306DD0068200092
:060AA0008100008101004D
:100A5800D2AF7F017E0012059D120EAA120A0D5018
:100A680006E47802F2800578027401F21208007B2D
:100A7800FE7A00795A78817410F2E4FD120C7E7BBC
:100A8800FE7A00793978817410F2E4FD120C7EE464
:080A98007859F212076C80FB93
:100800007F01120EBE7802E270087BFF7A06794DF6
:10081000800D7802E2B401147BFF7A06796FE4FD63
:10082000FF120CE67BFF7A06795D804C7802E2B419
:1008300002147BFF7A06797FE4FDFF120CE67BFF52
:100840007A06799080327802E2B403147BFF7A064C
:1008500079A1E4FDFF120CE67BFF7A0679AF8018E0
:100860007802E2B404197BFF7A0679C0E4FDFF1236
:100870000CE67BFF7A0679D07D01E4FF120CE622BC
:03000B00020AE600
:100AE600C0E0C0F0C083C082C0D075D000C000C0D6
:100AF60001C002C003C004C005C006C0077800E2FA
:100B0600F58C08E2F58A1204C2D007D006D005D0CB
:100B160004D003D002D001D000D0D0D082D083D070
:040B2600F0D0E032F9
:03001B00020E458D
:100E4500C0E0C0D075D000C000D2BB7804E2F58DFB
:0E0E55007805E2F58BB296D000D0D0D0E03216
:04059D00AB07AA06F8
:1005A100786A12038700000000786A120387000E40
:1005B1001000AE02AF03E4FCFD786AE2FB08E2F949
:1005C10008E2FA08E2CBF8120235E47BE87A03F993
:1005D100F81202C0786A12037B786AE2FB08E2F93A
:1005E10008E2FA08E2CBF8C374FF9BFF74FF9AFE9E
:1005F100E499FDE498FC786A12037B786AE2FC08CE
:10060100E2FD08E2FE08E22421FFE43EFEE43DFDB6
:10061100E43CFC786A12037B786AE2FC08E2FD089C
:10062100E2FE08E2FF78081203687800EFF2786AC8
:10063100080808E27801F27589004389117800E21F
:0B064100F58C7801E2F58AD2A9D28C7A
:01064C00228B
:100EF400D2B6D2B700000000C2B600000000C2B7EC
:010F040022CA
:100E8100C2B7C2B600000000D2B700000000D2B65F
:050E910000000000223A
:100D1D007E80EE601B5F7004C2B68002D2B600000A
:100D2D000000D2B700000000C2B7EEC313FE80E290
:100D3D00D2B600000000D2B7A2B6920000000000AB
:050D4D00C2B7A200B3D3
:010D5200227E
:100D5300D2B67E80EE601D00000000D2B720B6053B
:100D6300F45FFF8003EF4EFF00000000C2B7EEC345
:100D730013FE80E0D2B600000000D2B700000000EE
:020D8300C2B7F5
:010D8500224B
:100D8600D2B67E80EE601D00000000D2B720B60508
:100D9600F45FFF8003EF4EFF00000000C2B7EEC312
:100DA60013FE80E0C2B600000000D2B700000000CB
:020DB600C2B7C2
:010DB8002218
:070BB100786CEEF208EFF290
:100BB800E408F208F2786C08E2FF24FFF218E2FE7B
:100BC80034FFF2EF4E6023786EE2FE08E2FFE4FCA9
:100BD800FD7B507AC3F9F8D312035240D8786FE2FC
:0A0BE8002401F218E23400F280DD6F
:010BF20022E0
:100E6300EF1FAA0670011E4A6013E4FCFDC3ED9454
:0D0E730074EC940250EA0DBD00010C80F0FB
:010E8000224F
:100E9600040204790512056B062006E007B8082D42
:040EA600092D0A4DBB
:060AA6008104008105003F
:100DEC00EF25E0FFEE33AB07FAE4F9F8FF7E107D58
:100DFC000EFC120B2AC374FF9FFF74FF9E7804F243
:0D0E0C0008EFF2758DFF758BFED2ABD28E14
:010E190022B6
:05000300C2ABC28E2219
:100DB9007FE07E06120DEC7F647E00120E63120046
:100DC900037F2D7E08120DEC7F647E00120E6312E4
:100DD90000037F4D7E0A120DEC7F0A7E00120BB1D3
:030DE90002000302
:100F0500313233263435362537383928301B0D270D
:100AAC009029010101010101010101010101010173
:100ABC000101900801010101010101010101010184
:100ACC00010101018118009019FFFFFFFFFFFFFFDB
:090ADC00FFFFFFFFFFFFFFFFFF1A
:10076C00E47806F2E47807F27807E2C39404506662
:10077C00E2FF18E2FE25E025E024292FF8E2FDEE49
:10078C0025E025E024082FF8E2FF6D6042EF60239E
:10079C007807E2FF18E225E025E02405F582E43431
:1007AC000FF583E5822FF582E43583F583E493FF1F
:1007BC001208807807E2FF18E2FE25E025E02429E4
:1007CC002FF8E2FDEE25E025E024082FF8EDF27875
:1007DC0007E204F280927806E204F2E2C394044049
:0107EC008389
:0107ED0022E9
:1004C2007818E2FF25E025E02419F8E225E0FEA2F3
:1004D200A4E4334EFEEF25E025E02419F8EEF2788D
:1004E20018E2FF25E025E0241AF8E225E0FEA2A5A5
:1004F200E4334EFEEF25E025E0241AF8EEF27818F8
:10050200E2FF25E025E0241BF8E225E0FEA2A6E4B6
:10051200334EFEEF25E025E0241BF8EEF27818E2D8
:10052200FF25E025E0241CF8E225E0FEA2A7E43343
:100532004EFEEF25E025E0241CF8EEF2E4FF7818E9
:10054200E2FE25E025E024192FF8E2540FFD700D9C
:10055200EE25E025E024292FF8E4F2800FBD0F0CF0
:10056200EE25E025E024292FF87401F20FEFB40400
:10057200CD7818E204F2E25403F214600F14601111
:1005820014601324037013D2A0C2A322D2A3C2A266
:0A05920022D2A2C2A122D2A1C2A06F
:01059C00223C
:1007EE007580FFC290D291D295AF80C295EF20E76F
:0107FE00F604
:0107FF0022D7
:100EBE00AE071207EEC290C291AF068F80D295C2D6
:020ECE0095226B
:100ED000AE071207EED290C291AF068F80D295C2B4
:020EE000952259
:100EE200ED7004AC078004EF2440FCEC4480FF0268
:020EF2000EBE32
:100CE600787DEBF208EAF208E9F2120EE2787DE28C
:100CF600FB08E2FA08E2F912020A601A787DE2FBC2
:100D06000808E2F92401F218E2FA3400F212020AA3
:070D1600FF120ED080D7226E
:100EAA007F38120EBE7F0C120EBE7F06120EBE7F58
:040EBA0001020EBE65
:1008EF00787CEBF208EAF208E9F208EDF2120EF466
:1008FF007FA0120D1D4005120E8180F1787FE2FF5F
:10090F00120D1D120EF47FA1120D1D7880E2D394EB
:10091F0001401F120D86787CE2FB0808E2F92401E2
:10092F00F218E2FA3400F2EF1202237880E214F2A6
:10093F0080D9120D53787CE2FB08E2FA08E2F9EF56
:06094F00120223020E81DA
:10095500787CEBF208EAF208E9F208EDF27880E239
:10096500D394004049120EF47FA0120D1D400512CC
:100975000E8180F1787FE2FF120D1D7880E2D3941D
:10098500004026787CE2FB0808E2F92401F218E22F
:10099500FA3400F212020AFF120D1D7880E214F2F9
:0F09A50018E204F2E2540770D2120E8180AF22E2
:1003A00050617373776F7264204572726F72202090
:1003B00000746F6F206C6F6E6720005061737377ED
:1003C0006F726420436F7272656374202000556EF3
:1003D0006C6F636B6564204E6F7720202020202097
:1003E0000050617373776F7264204572726F722070
:1003F0002020200054727920616761696E202020DE
:1004000020202020202000456E74657220616761E5
:10041000696E202020202000202020202020202065
:1004200020202020202020200053756363657373F3
:1004300066756C202020004C6F636B6564204E6FE6
:10044000772020200050617373776F72642061748D
:10045000797069736D2000506C6561736520526519
:1004600073657420202020005265736574205061EC
:100470007373776F726420202000202020202020BA
:100480002020202020202020202020005741524ED4
:10049000494E4720200049742773204C6F636B65D9
:1004A000642000507265737320456E74657220205D
:1004B0000052657365742050617373776F726420A6
:0204C00020001A
:1009B400786BEFF27802E224FD604D14604A800007
:1009C4001208007859E2C394105013786BE2FF7850
:1009D40059E2FE04F2745A2EF8EFF2020C33120CB0
:1009E400717BFF7A0379A0E4FDFF120CE67BFF7AAA
:1009F4000379B17D01E4FF120CE67FDC7E05120B66
:090A0400B1120800E47859F22255
:10001E007802E214700201C5147002210C147002F1
:10002E00219714700221CA240460024109786E746B
:10003E00FEF2087400F2087449F2087410F27BFEA6
:10004E007A00795A120B6E502C7BFF7A0379BBE43F
:10005E00FDFF120CE67BFF7A0379CE7D01E4FF12E1
:10006E000CE67FE87E03120BB17F01120EBE780202
:10007E007403F280397BFF7A0379E1E4FDFF120C01
:10008E00E67BFF7A0379F47D01E4FF120CE67FE84C
:10009E007E03120BB17F01120EBE7803E204F2E270
:1000AE00D39405400978027404F2E47803F2E478FC
:1000BE0059F212080021877A007939120C7578806E
:1000CE0074FEF2087400F208745AF2087410F27B8F
:1000DE00FE7A007939120BF3120C7178027402F267
:1000EE007BFF7A047907E4FDFF120CE67BFF7A04AE
:1000FE0079187D01E4FF120CE6E47859F222786E4D
:10010E0074FEF2087400F208745AF2087410F27B4E
:10011E00FE7A007939120B6E5025120CAC120A0DB4
:10012E007BFF7A047929E4FDFF120CE67BFF7A044B
:10013E0079377D01E4FF120CE6E47802F2801E7B33
:10014E00FF7A047945E4FDFF120CE67BFF7A047911
:10015E00577D01E4FF120CE678027401F2E478593F
:10016E00F27FDC7E05120BB17F01120EBE1208006B
:10017E007BFE7A007939120C777BFE7A00795A78F9
:10018E00817410F2E4FD020C7E7BFF7A047968E440
:10019E00FDFF120CE67BFF7A04797A7D01E4FF12F3
:1001AE000CE67FDC7E05120BB17F01120EBE120C27
:1001BE0071E47859F2780204F20208007BFF7A04A7
:1001CE00798CE4FDFF120CE67BFF7A0479967D01B3
:1001DE00E4FF120CE6120DB97F01120EBE7BFF7A00
:1001EE000479A3E4FDFF120CE67BFF7A0479B17D5E
:0C01FE0001E4FF120CE678027403F22208
:0B000E00120800120C71E47859F22275
:100C3300788074FEF2087400F208745AF208741093
:100C4300F27BFE7A00796C120BF37859E2FF246C85
:100C5300F9E4FA7BFEC374119F7881F2E4FD120C70
:0E0C63007E7BFE7A00796C7D01E4FF020CE6D8
:100BF300787DEBF208EAF208E9F27883E2FF14F277
:100C0300EF602C7880E2FB0808E2F92401F218E295
:100C1300FA3400F212020AFF787DE2FB0808E2F9D7
:100C23002401F218E2FA3400F2EF12022380CB22FD
:0D0C71007A00795A7BFE78817410F2E4FD60
:100C7E00787DEBF208EAF208E9F27881E2FF14F2ED
:100C8E00EF601AAF050D787DE2FB0808E2F924014A
:0E0C9E00F218E2FA3400F2EF12022380DD2297
:0A0E1A00787CEBF208EAF208E9F236
:100E2400E4FFAE051DEE6018787CE2FB0808E2F9E9
:100E34002401F218E2FA3400F212020A2FFF80E2CF
:010E4400228B
:100A0D007BFE7A00796B78807411F27D601208EFAD
:100A1D007BFE7A00796B7D10120E1AEFF4FF787B56
:100A2D00E2B5071C788074FEF2087400F208746B4E
:100A3D00F2087410F27BFE7A007949120BF3D3227F
:0A0A4D007BFE7A007949120C77C392
:010A5700227C
:100CAC00788074FEF2087400F2087439F20874103B
:100CBC00F27BFE7A00796B120BF37BFE7A00796B78
:100CCC007D10120E1AEFF4787BF27BFE7A00796BB2
:0A0CDC0078807411F27D6002095562
:100B6E00786BEBF208EAF208E9F27871E2FF14F220
:100B7E00EF602E786EE2FB0808E2F92401F218E22B
:100B8E00FA3400F212020AFF786BE2FB0808E2F96F
:100B9E002401F218E2FA3400F212020A6F60CBC39B
:030BAE0022D3222D
:10088000786AEFF2C394304031E2FFD39439502AB2
:1008900075F002EFA42436F582E5F0340EF583E41A
:1008A00093FE740193FF120DEC7F0A7E00120E631B
:1008B000120003786AE2FF0209B4786AE2B40D1408
:1008C0007FD07E0A120DEC7F0A7E00120E631200AA
:1008D0000302001E786AE2B41B147F2D7E09120DFC
:0F08E000EC7F0A7E00120E6312000312000E223C
:1006EC00020A58E493A3F8E493A34003F68001F2C2
:1006FC0008DFF48029E493A3F85407240CC8C3330F
:10070C00C4540F4420C8834004F456800146F6DFDD
:10071C00E4800B0102040810204080900AA0E47EC3
:10072C00019360BCA3FF543F30E509541FFEE493D2
:10073C00A360010ECF54C025E060A840B8E493A399
:10074C00FAE493A3F8E493A3C8C582C8CAC583CAC4
:10075C00F0A3C8C582C8CAC583CADFE9DEE780BE7C
:010AE5000010
:10020A00BB010689828A83E0225002E722BBFE02F2
:09021A00E32289828A83E4932225
:10022300BB010689828A83F0225002F722BBFE01BA
:02023300F322B4
:10023500E88FF0A4CC8BF0A42CFCE98EF0A42CFC68
:100245008AF0EDA42CFCEA8EF0A4CDA8F08BF0A4E6
:100255002DCC3825F0FDE98FF0A42CCD35F0FCEB45
:100265008EF0A4FEA9F0EB8FF0A4CFC5F02ECD390A
:0F027500FEE43CFCEAA42DCE35F0FDE43CFC2277
:1002840075F008758200EF2FFFEE33FECD33CDCC31
:1002940033CCC58233C5829BED9AEC99E5829840B4
:1002A4000CF582EE9BFEED9AFDEC99FC0FD5F0D691
:1002B400E4CEFBE4CDFAE4CCF9A88222B800C1B9BB
:1002C4000059BA002DEC8BF084CFCECDFCE5F0CBF9
:1002D400F97818EF2FFFEE33FEED33FDEC33FCEB32
:1002E40033FB10D703994004EB99FB0FD8E5E4F9ED
:1002F400FA227818EF2FFFEE33FEED33FDEC33FCDA
:10030400C933C910D7059BE99A4007EC9BFCE99ACD
:10031400F90FD8E0E4C9FAE4CCFB2275F010EF2F12
:10032400FFEE33FEED33FDCC33CCC833C810D70712
:100334009BEC9AE899400AED9BFDEC9AFCE899F84D
:0E0344000FD5F0DAE4CDFBE4CCFAE4C8F922E0
:100B2A00C2D5E830E70FB2D5E4C39BFBE49AFAE4F6
:100B3A0099F9E498F8EC30E717B2D5120B60120273
:100B4A00C0E4C39BFBE49AFAE499F9E498F88003B9
:100B5A001202C030D50DE4C39FFFE49EFEE49DFD62
:040B6A00E49CFC22E9
:10035200EB9FF5F0EA9E42F0E99D42F0EC6480C822
:0603620064809845F022C2
:10036800E8600FECC313FCED13FDEE13FEEF13FF73
:03037800D8F12297
:0C037B00ECF208EDF208EEF208EFF222BE
:10038700D083D082E493F208740193F20874029345
:09039700F208740393F27404737C
:00000001FF
