:100B8C00C104C105C100C101C106C108C1020140B7
:0F0B9C0000C107014200C103023D0000013F00FC
:100F750012118E1211791211B41211C6120FD81254
:100F85001211300305C203120D9E300505C205126C
:100F95000DF9300209C202AD40E4FF121055120BE3
:030FA5001580DFD5
:03001B00020E488A
:100E4800C0E0C0F0C083C082C0D075D000C000C070
:100E580001C002C003C004C005C006C0070542D2D5
:100E680003C3E542940574809480400375420012E0
:100E78000F09D007D006D005D004D003D002D00186
:0D0E8800D000D0D0D082D083D0F0D0E032A6
:030063000209612E
:10096100C0E0C0F0C083C082C0D075D000C000C05C
:0D09710001C002C003C004C005C006C007DD
:10097E00053EE53E7002053DAE3DFF7C007D0D124D
:10098E0003D5ED4C7005D204120A93AE3DAF3E7CFA
:10099E00007D2F1203D5ED4C7002D205AE3DAF3E59
:1009AE007C007D661203D5ED4C701DD200B2063070
:1009BE000913C3E53F940A748094805004053F8068
:1009CE0007D2078003753F00C3E53E94F3E53D94DF
:0E09DE00014008753D00753E00D201120C006C
:1009EC00D007D006D005D004D003D002D001D0005F
:0B09FC00D0D0D082D083D0F0D0E03209
:100B1500E4F50BF50AF509F508300451C204FB7A32
:100B2500007941120ED0AC41E412030E8F0B8E0AF0
:100B35008D098C08E4FBFA794C78421202678F0B19
:100B45008E0A8D098C08E4FBFA79A0784112015EC2
:100B55008F0B8E0A8D098C081203428F41C3EF94C7
:100B65006374809480400375416312107A300008E5
:100B7500C200120D3C1207D630010BC2017B007A70
:060B850000791B12109D17
:010B8B002247
:1007D600E4F50FF50EF50DF50CF510E541C3953270
:1007E60050057F350208A0D3E5419450748094806B
:1007F60040057FFF0208A0AC41E412030E8F0F8E66
:100806000E8D0D8C0CC004C005C006C007AC32E4CA
:1008160012030EA804A905AA06AB07D007D006D076
:1008260005D0041200698F0F8E0E8D0D8C0CE4FB23
:10083600FA7980784012015E8F0F8E0E8D0D8C0C2A
:10084600C004C005C006C007C374509532FDE494C9
:1008560000FC120309A804A905AA06AB07D007D015
:1008660006D005D0041202678F0F8E0E8D0D8C0CEC
:10087600E4FBFA7980783F12006D8F0F8E0E8D0D96
:100886008C0C7B007A807954784212015E8F0F8E31
:0D0896000E8D0D8C0C1203428F101210BF3E
:0108A3002232
:100D9E00E4F580300804D2848002C2847F051211EB
:100DAE00E4300C13C3E5429404748094805004D252
:100DBE00858015C2858011C3E542940474809480A9
:100DCE005004C2858002D28530051BD3E51E9534B2
:100DDE00E51D9400400B20080DD2080540D202807C
:0B0DEE0005300802C208E4FF0211E417
:100BAB00043537363534043901010101012B0001BD
:100BBB003000022E2328022C232801322801312851
:100BCB0001343C01333CC10AC10BC10904220101B0
:0B0BDB0001010126000427FFFFFFFFBF
:101004008F09E509B434030210DFE509B43503029E
:101014001162E509B43603020C6EE509B4370B120C
:0B1024000CD6E52B64017002D20922FB
:10114B00BF3713300910C20930070BC207E4F54053
:07115B00AD40FF1210552208
:100CD600AF2B7E00EF64037056AD30FCED701E74D2
:100CE6000C252DF52D74FE352CF52CC3E52D94E839
:100CF600E52C9403503F752C2E752DE022ED6401F2
:100D06004C701374F62531F531C3940A74809480BF
:100D1600502375313C22E5306402701974F6253390
:100D2600F533C3940A74809480500A75337822EFA1
:060D36004E7002B20A2219
:100C6E00AF2B7E00EF64037056AD30FCED701E743A
:100C7E00F4252DF52D7401352CF52CD3E52D94E0AE
:100C8E00E52C942E4041752C03752DE822ED640160
:100C9E004C7013740A2531F531D3943C74809480D2
:100CAE00402575310A22E5306402701B740A253323
:100CBE00F533D3947874809480400C75330A22EF08
:080CCE0064024E7002B20B2219
:10116200E52B640370100530D3E53094027480944B
:07117200804003E4F5302288
:1010DF00052BD3E52B9403748094804011E4F52BFA
:0F10EF00F530852C2E852D2F8531328533342217
:100DF900E4F508F508C3E508940474809480503E2E
:100E090074392508F8E6FF74222508F8E6FE6F60B4
:100E190029EE6401700C74352508F8E6FF121004F8
:100E2900800A74352508F8E6FF12114B7439250834
:0E0E3900F8E6FF74222508F8A607050880B722
:010E47002288
:100C0000E52614601814602314602E24037036E562
:100C10002725E0FFA2B0E4334FF5278028E52825FB
:100C2000E0FFA2B1E4334FF528801AE52925E0FF63
:100C3000A2B2E4334FF529800CE52A25E0FFA2B3E8
:100C4000E4334FF52A74272526F8E6540FFF7E007B
:100C5000700974392526F8E4F6800DEF640F4E70A4
:0D0C60000774392526F87601052653260372
:010C6D002264
:0B11FD00C0F9A4B0999282F88090FF26
:0F0BE6000813FFFFFFFFFFFFFFFFC10C0112000D
:10107A00E52B7003020566E52B64017003020FA8D5
:10108A00E52B640270030208A4E52B6403700312C3
:03109A0006FF222C
:100A93007580FF7F041211E4AF2B7E00EF7004C258
:100AA30080803CEF64014E7004C2818032EF6402A7
:100AB3004E7004C2828028EF64034E7022AF30FE72
:100AC300EF7006A20692808016EF64014E7006A2B4
:100AD300069281800AEF64024E7004A2069282D3CA
:100AE300E51C952FE51B952E4006C283D20C800290
:100AF300C20CE541D395324002C284D3E51E95343E
:100B0300E51D94004002C285300702C287E4FF025C
:020B130011E4EB
:1006FF0012113275138CE530FB7A0070729011FE77
:10070F0093F514C3E52D9410E52C94274020AE2CBF
:10071F00AF2D7C277D101203D57C007D0A1203D5E7
:10072F0074FD2DF58274113CF583E493F518AE2C0E
:10073F00AF2D7C037DE81203D57C007D0A1203D513
:10074F0074FD2DF58274113CF583E493547FF519F4
:10075F00AE2CAF2D7C007D641203D57C007D0A1278
:10076F0003D574FD2DF58274113CF583E48054EBB1
:10077F0064014A70229011FF93F514E53175F00A68
:10078F008475F00A84E5F09011FD93F519E5317544
:10079F00F00A84E5F0802CE5306402702990120095
:1007AF0093F514E53375F0648475F00A84E5F090E1
:1007BF0011FD93547FF519E53375F00A8475F00A2E
:0707CF0084E5F093F51A2206
:1008A400121132751388200B58C3E51E9464E51D9C
:1008B40094004020AE1DAF1E7C007D641203D57CE5
:1008C400007D0A1203D574FD2DF58274113CF58365
:1008D400E493F518C3E51E940AE51D94004064AE44
:1008E4001DAF1E7C007D0A1203D57C007D0A120315
:1008F400D574FD2DF58274113CF583E493F51980CC
:1009040042AE1DAF1E7C007D641203D57C007D0ABF
:100914001203D574FD2DF58274113CF583E49354D0
:100924007FF518AE1DAF1E7C007D0A1203D57C0036
:100934007D0A1203D574FD2DF58274113CF583E410
:1009440093F519AE1DAF1E7C007D0A1203D574FD0C
:0D0954002DF58274113CF583E493F51A2211
:100FA8007513897514FF7515FF7516FF7517FF758D
:100FB80018FFE54175F00A8475F00A84E5F0901190
:100FC800FD93F519E54175F00A84E5F093F51A22C9
:1005660012113275138E300A0302065BAE1BAF1CE6
:10057600E4FCFD7BA07A867901F8D312048250222E
:10058600AE1BAF1CE4FCFDF812001EE47B0AFAF970
:10059600F812001E74FD2BF58274113AF583E4936C
:1005A600F515C3E51C9410E51B94274020AE1BAF40
:1005B6001C7C277D101203D57C007D0A1203D5749E
:1005C600FD2DF58274113CF583E493F516C3E51C05
:1005D60094E8E51B94034020AE1BAF1C7C037DE82A
:1005E6001203D57C007D0A1203D574FD2DF58274A5
:1005F600113CF583E493F517C3E51C9464E51B945D
:10060600004020AE1BAF1C7C007D641203D57C002D
:100616007D0A1203D574FD2DF58274113CF583E431
:1006260093F518C3E51C940AE51B94004020AE1B05
:10063600AF1C7C007D0A1203D57C007D0A1203D50F
:1006460074FD2DF58274113CF583E493F519AE1B08
:10065600AF1C0206E9AE1BAF1CE4FCFD7BA07A864C
:100666007901F8D31204825022AE1BAF1CE4FCFDC4
:10067600F812001EE47B0AFAF9F812001E74FD2B2C
:10068600F58274113AF583E493F517C3E51C9410CB
:10069600E51B94274020AE1BAF1C7C277D10120360
:1006A600D57C007D0A1203D574FD2DF58274113CAC
:1006B600F583E493F518AE1BAF1C7C037DE81203AB
:1006C600D57C007D0A1203D574FD2DF58274113C8C
:1006D600F583E493547FF519AE1BAF1C7C007D6453
:1006E6001203D57C007D0A1203D574FD2DF58274A4
:0906F600113CF583E493F51A228E
:101132007513FF7514FF7515FF7516FF7517FF758B
:0911420018FF7519FF751AFF2250
:100F09007F071211E47580FF7F061211E4AF12A862
:100F1900077401088002C333D8FCF5807F071211DA
:100F2900E47580FF74132512F8E6F580E4FF1211C9
:060F3900E405125312074B
:010F3F00228F
:040BF500021B0000DF
:0F11C600E4F58CF58A438905D28CC28DC2A9222B
:10109D00208D17AF8CE48FF012045512042AFFAD8A
:1010AD008AEDCF8FF01204558002C28DE4F58CF5D8
:0210BD008A2285
:060BF900021D0000C10D09
:0712110043D980E4F5D82267
:0612180000007F24DFFE50
:01121E0022AD
:1010FE00E4FEEEC3940874809480500DD2901212C8
:09110E0018C2901212180E80E9BB
:0111170022B5
:100D3C00E4FBFAF50FF50EF50DF50CF5F9F5E912E6
:100D4C0010FED2DE20DF032091FAC2DE30DF0BC2B0
:100D5C00DFD20D751D03751EE722C20DAFF9AB076F
:100D6C00EBADE9FAEDFBAE02FFAC06E41203098F22
:100D7C000F8E0E8D0D8C0C7B967A43798B783C12F2
:100D8C00015E8F0F8E0E8D0D8C0C1203428E1D8FFB
:010D9C001E38
:010D9D002233
:04111800D2A07F05DD
:10111C00000000000000000000000000000000AE15
:06112C00071FEE70EB222C
:0F11D500D2A1121118C2A17F0512111CC2A022B3
:0C11F100C2A1121118D2A17F0502111C2E
:020F4000AD07FB
:100F4200E4FCECC39408748094805024C2A07F0512
:100F520012111CED30E704D2A18002C2A17F05125A
:100F6200111CD2A0ED25E0FD7F0512111C0C80D2D0
:020F7200C2A01B
:010F7400225A
:10102F00E4FCECC39408748094805017121118EDEF
:10103F0025E0FD30A103430501C2A07F0512111C5D
:05104F000C80DFAF057D
:011054002279
:1011A200121118A2A1E433FDC2A07F0512111CAFD7
:0111B2000537
:0111B3002219
:10000300C2A0EF24FF92A17F0512111C121118C286
:08001300A0D2A17F0502111C1F
:100FD800E4F508FB7A0079087F89120E95E5086424
:100FE8008E600E7D8E7F89121055AD40E4FF121081
:0C0FF800557B007A007940E4FF020E9562
:081208007F3B7E5ADEFEDFFC95
:0112100022BB
:100E95008F098B0A8A0B890C1211D57FA0120F407E
:100EA5001211A2AF09120F401211A21211D57FA182
:100EB500120F401211A212102FAB0AAA0BA90CEFA8
:0B0EC5001203C37F011200030211F1B1
:101055008F098D0A1211D57FA0120F401211A2AF70
:1010650009120F401211A2AF0A120F401211A2125B
:0510750011F102120858
:100ED0008B0C8A0D890E1211D57F90120F401211C2
:100EE000A27F03120F401211A21211D57F91120F8F
:100EF000401211A212102FAB0CAA0DA90EEF120373
:090F0000C37F011200030211F18C
:1010BF008F111211D57F90120F401211A27F401283
:1010CF000F401211A2AF11120F401211A20211F113
:10117900438E4053890F758BA0758DF6C28FD28E21
:05118900D2ABD2AF2241
:1011B400438E0475D72075D6D1438E1043AF04D225
:0211C400AF2258
:10118E007F041211E47580FF7F051211E4E4F580EF
:04119E00FF0211E457
:0D11E40053A01FEF5407C43354E042A02273
:100066000203AEE86480F8E933E83360110460F017
:10007600ED33EC337009E8FCE9FDEAFEEBFF220400
:1000860060DED3EB9FEA9EE99DE8C2E78CF0C2F7FB
:1000960095F0400CE8CCF8E9CDF9EACEFAEBCFFBC7
:1000A60012037985D0F05804700320D5B3E80470A4
:1000B600075002B2D50203B892D5EC0460F7E4CC3F
:1000C600C0E0C398F8603B94186008400DD0E0FB90
:1000D600020390E4FBFAC9FC8028E830E406E4C990
:1000E600FBE4CAFCE830E305E4C9CACBFCE85407E4
:1000F6006010F8C3E913F9EA13FAEB13FBEC13FCEF
:10010600D8F130F52FC3E49CFCEF9BFFEE9AFEED91
:1001160099FDD0E0FBEF4E4D4C701222DB0302033B
:10012600B5EC2CFCEF33FFEE33FEED33FDED30E79F
:10013600EB020390EF2BFFEE3AFEED39FDD0E0FB2C
:1001460050130BBB00030203B8ED13FDEE13FEEFD5
:0801560013FFEC13FC020390FF
:10015E00EC4D6011E8497017ED33EC3304600DE49B
:10016E00FCFFFEFD22E933E8330470F80203AE1201
:10017E00037958046009E4CC248150062850090202
:10018E0003B82840030203B5C0E0EB4A7044B980BF
:10019E0006D0E0FB0203A4EF4E701CBD8008EBFFFF
:1001AE00EAFEE9FD80EBE98DF0A4FEE5F0020247E0
:1001BE00E9CDF9EAFEEBFFEF89F0A4FCE5F0CE897C
:1001CE00F0A42EFFE435F0CD89F0A42DFEE435F039
:1001DE008067EF4E7005BD80D780C3EF8BF0A4AC67
:1001EE00F0EE8BF0A42CFCE435F0F8EF8AF0A42CA2
:1001FE00E5F038FCE433CB8DF0A42CFCE5F03BF8B5
:10020E00EE8AF0A42CFCE5F038F8E433CF89F0A4A4
:10021E002CFCE5F038CF3400CE89F0A42FFFE5F0AA
:10022E003EFEE433C98DF0A42EFEE5F039CD8AF002
:10023E00A42FFFE5F03EFEE43DFD33D0E0FB50077A
:10024E000BBB000F0203B8EC2CFCEF33FFEE33FEBA
:06025E00ED33FD020390E8
:100264000203B8EC5D046005E8590470030203AEB0
:10027400120379580460F6EC4860F2EC7004FDFE59
:10028400FF22C860DB2481C85009C398600250066D
:100294000203B59850CAF582E9294B4A7005AB822E
:1002A4000203A475F0007C1A7880C3EF9BEE9AEDEC
:1002B40099400DC3EF9BFFEE9AFEED99FDE842F0E5
:1002C400DC23ACF0D0E0FFD0E0FED0E0FDAB822038
:1002D400E7101BEB60BAEC2CFCEF33FFEE33FEEDC2
:1002E40033FD020390E803F830E705C0F075F00031
:1002F400EF2FFFEE33FEED33FD40B830E7C280AAA6
:1003040075F020800E75F010800575F0087D007E74
:10031400007F003392D530D503120474EC334010BF
:10032400EF33FFEE33FEED33FDEC33FCD5F0ED227D
:0E033400E5F0247EA2D513CC92E7CDCEFF22B9
:10034200EDD2E7CD33EC3392D524814006E4FFFEB3
:10035200FDFC22FCE4CFCECDCC24E0501174FF8012
:10036200EDC3CC13CCCD13CDCE13CECF13CF0470AF
:07037200F030D5DE02047437
:10037900E9D2E7C933E833F892D5EDD2E7CD33ECCA
:0703890033FC5002B2D52243
:10039000EC30E7100FBF000C0EBE00080DBD0004CE
:1003A0000BEB6014A2D5EB13FCED92E7FD2274FF7A
:1003B000FCFDFEFF22E480F8A2D574FF13FC7D80D3
:0303C000E480EFE7
:03000000020A07EA
:0C0A0700787FE4F6D8FD758142020A4EAB
:1003C300BB010689828A83F0225002F722BBFE0119
:0203D300F32213
:1003D500BC000BBE0029EF8DF084FFADF022E4CC0C
:1003E500F875F008EF2FFFEE33FEEC33FCEE9DECD5
:1003F500984005FCEE9DFE0FD5F0E9E4CEFD22ED1B
:10040500F8F5F0EE8420D21CFEADF075F008EF2F64
:10041500FFED33FD4007985006D5F0F222C398FD55
:050425000FD5F0EA22F2
:10042A00BB010A89828A83E0F5F0A3E0225006879D
:10043A00F009E71922BBFE07E3F5F009E31922895F
:0B044A00828A83E493F5F07401932292
:10045500BB010A89828A83F0E5F0A3F0225006F7F2
:0F04650009A7F01922BBFE06F3E5F009F31922EF
:10001E00C2D5E830E70FB2D5E4C39BFBE49AFAE40D
:10002E0099F9E498F8EC30E717B2D512005412049F
:10003E00D4E4C39BFBE49AFAE499F9E498F88003BC
:10004E001204D430D50DE4C39FFFE49EFEE49DFD63
:04005E00E49CFC2200
:0E047400C3E49FFFE49EFEE49DFDE49CFC2299
:10048200EB9FF5F0EA9E42F0E99D42F0EC6480C8F1
:0604920064809845F02291
:100A1300020F75E493A3F8E493A34003F68001F275
:100A230008DFF48029E493A3F85407240CC8C333E4
:100A3300C4540F4420C8834004F456800146F6DFB3
:100A4300E4800B0102040810204080900B8CE47EAC
:100A5300019360BCA3FF543F30E509541FFEE493A8
:100A6300A360010ECF54C025E060A840B8E493A36F
:100A7300FAE493A3F8E493A3C8C582C8CAC583CA9A
:100A8300F0A3C8C582C8CAC583CADFE9DEE780BE52
:010BFF0000F5
:1004980075F008758200EF2FFFEE33FECD33CDCC1B
:1004A80033CCC58233C5829BED9AEC99E58298409E
:1004B8000CF582EE9BFEED9AFDEC99FC0FD5F0D67B
:1004C800E4CEFBE4CDFAE4CCF9A88222B800C1B9A5
:1004D8000059BA002DEC8BF084CFCECDFCE5F0CBE3
:1004E800F97818EF2FFFEE33FEED33FDEC33FCEB1C
:1004F80033FB10D703994004EB99FB0FD8E5E4F9D7
:10050800FA227818EF2FFFEE33FEED33FDEC33FCC3
:10051800C933C910D7059BE99A4007EC9BFCE99AB7
:10052800F90FD8E0E4C9FAE4CCFB2275F010EF2FFC
:10053800FFEE33FEED33FDCC33CCC833C810D707FC
:100548009BEC9AE899400AED9BFDEC9AFCE899F837
:0E0558000FD5F0DAE4CDFBE4CCFAE4C8F922CA
:00000001FF
