:100BE800C102C100C101C103C105014000C1040225
:060BF8003D0000013F007A
:101044001210BC1210E2121105120EC4300205C2B5
:0910540002120D21120F1B80F3A2
:030063000209D4BB
:1009D400C0E0C0F0C083C082C0D075D000C000C0E9
:0D09E40001C002C003C004C005C006C0076A
:1009F100053EE53E7002053DAE3DFF7C007D2C12BB
:100A010003D5ED4C7002D202AE3DAF3E7C007D6558
:100A11001203D5ED4C701DD200B203300613C3E5AD
:100A21003F940A748094805004053F8007D204806B
:100A310003753F00C3E53E94F3E53D94014008751D
:100A41003D00753E00D201120AF8120E28120B7AEF
:100A5100D007D006D005D004D003D002D001D000F9
:0B0A6100D0D0D082D083D0F0D0E032A3
:100F1B00300014C2001200037B007A007941120DDD
:100F2B00EF1206FF120F8C30010BC2017B007A000F
:060F3B00791C120FAF2229
:1006FF00E4F50BF50AF509F508F50FF50EF50DF50F
:10070F000CF510AC4112030E8F0B8E0A8D098C085D
:10071F00E4FBFA794C78421202678F0B8E0A8D092F
:10072F008C08E4FBFA79A0784112015E8F0B8E0AD8
:10073F008D098C081203428F41C3EF946374809428
:10074F00804003754163E541C3953250057F350203
:10075F000814D3E54194507480948040057FFF02C4
:10076F000814AC41E412030E8F0F8E0E8D0D8C0CFE
:10077F00C004C005C006C007AC32E412030EA804C3
:10078F00A905AA06AB07D007D006D005D0041200E2
:10079F00698F0F8E0E8D0D8C0CE4FBFA79807840EB
:1007AF0012015E8F0F8E0E8D0D8C0CC004C005C014
:1007BF0006C007C374509532FDE49400FC12030980
:1007CF00A804A905AA06AB07D007D006D005D00408
:1007DF001202678F0F8E0E8D0D8C0CE4FBFA798051
:1007EF00783F12006D8F0F8E0E8D0D8C0C7B007A63
:1007FF00807954784212015E8F0F8E0E8D0D8C0C06
:10080F001203428F10120FD1D3E51F9534E51E94BA
:10081F0000401320051AD205D20B1210F40540AD7B
:10082F0040E4FF020F67300507C205C20B1210F438
:01083F002296
:1010F4007580FF7F05121123A20B9284E4FF021175
:0111040023C7
:100BFE00043537363534043901010101012B00016A
:100C0E003000022E2328022C2328013228013128FD
:100C1E0001343C01333CC107C108C1060422010165
:0B0C2E0001010126000427FFFFFFFF6B
:100EF0008F09E509B43403020FF1E509B4350302A3
:100F000010A5E509B43603020C53E509B4370B12FA
:0B0F10000CBBE52B64017002D206222E
:10108E00BF3713300610C20630040BC204E4F5401D
:07109E00AD40FF120F6722B5
:100CBB00AF2B7E00EF64037056AD30FCED701E74ED
:100CCB000C252DF52D74FE352CF52CC3E52D94E854
:100CDB00E52C9403503F752C2E752DE022ED64010D
:100CEB004C701374F62531F531C3940A74809480DB
:100CFB00502375313C22E5306402701974F62533AC
:100D0B00F533C3940A74809480500A75337822EFBC
:060D1B004E7002B2072237
:100C5300AF2B7E00EF64037056AD30FCED701E7455
:100C6300F4252DF52D7401352CF52CD3E52D94E0C9
:100C7300E52C942E4041752C03752DE822ED64017B
:100C83004C7013740A2531F531D3943C74809480ED
:100C9300402575310A22E5306402701B740A25333E
:100CA300F533D3947874809480400C75330A22EF23
:080CB30064024E7002B2082237
:1010A500E52B640370100530D3E530940274809409
:0710B500804003E4F5302246
:100FF100052BD3E52B9403748094804011E4F52BE9
:0F100100F530852C2E852D2F8531328533342205
:100D2100E4F508F508C3E508940474809480503E06
:100D310074392508F8E6FF74222508F8E6FE6F608D
:100D410029EE6401700C74352508F8E6FF120EF0E7
:100D5100800A74352508F8E6FF12108E74392508CB
:0E0D6100F8E6FF74222508F8A607050880B7FB
:010D6F002261
:100B7A00E52614601814602314602E24037036E5E9
:100B8A002725E0FFA2B0E4334FF5278028E5282582
:100B9A00E0FFA2B1E4334FF528801AE52925E0FFEA
:100BAA00A2B2E4334FF529800CE52A25E0FFA2B36F
:100BBA00E4334FF52A74272526F8E6540FFF7E0002
:100BCA00700974392526F8E4F6800DEF640F4E702B
:0D0BDA000774392526F876010526532603F9
:010BE70022EB
:0B113C00C0F9A4B0999282F88090FFE7
:0F0C39000814FFFFFFFFFFFFFFFFC109011300BA
:100F8C00E52B7003020566E52B64017003020E94D9
:100F9C00E52B64027003020917E52B64037003123E
:030FAC00084022D8
:100AF8007580FF7F04121123AF2B7E00EF7004C2B4
:100B080080803CEF64014E7004C2818032EF640241
:100B18004E7004C2828028EF64034E7022AF30FE0C
:100B2800EF7006A20392808016EF64014E7006A251
:100B3800039281800AEF64024E7004A2039282D36A
:100B4800E51D952FE51C952E4006C283D20980022B
:100B5800C209E541D395324002C284D3E51F9534DA
:100B6800E51E94004002C285300402C287E4FF02F9
:020B7800112347
:1008400012105D75148CE530FB7A00707290113DCA
:1008500093F515C3E52D9410E52C94274020AE2C7C
:10086000AF2D7C277D101203D57C007D0A1203D5A5
:10087000743C2DF58274113CF583E493F519AE2C8C
:10088000AF2D7C037DE81203D57C007D0A1203D5D1
:10089000743C2DF58274113CF583E493547FF51A72
:1008A000AE2CAF2D7C007D641203D57C007D0A1236
:1008B00003D5743C2DF58274113CF583E48054EB30
:1008C00064014A702290113E93F515E53175F00AE6
:1008D0008475F00A84E5F090113C93F51AE53175C2
:1008E000F00A84E5F0802CE5306402702990113F15
:1008F00093F515E53375F0648475F00A84E5F0909E
:10090000113C93547FF51AE53375F00A8475F00AAB
:0709100084E5F093F51B22C2
:1009170012105D751488200858C3E51F9464E51EFE
:1009270094004020AE1EAF1F7C007D641203D57C6F
:10093700007D0A1203D5743C2DF58274113CF583B2
:10094700E493F519C3E51F940AE51E94004064AECD
:100957001EAF1F7C007D0A1203D57C007D0A12039F
:10096700D5743C2DF58274113CF583E493F51A8018
:1009770042AE1EAF1F7C007D641203D57C007D0A4A
:100987001203D5743C2DF58274113CF583E493541E
:100997007FF519AE1EAF1F7C007D0A1203D57C00C0
:1009A7007D0A1203D5743C2DF58274113CF583E45E
:1009B70093F51AAE1EAF1F7C007D0A1203D5743C57
:0D09C7002DF58274113CF583E493F51B229D
:100E94007514897515FF7516FF7517FF7518FF759D
:100EA40019FFE54175F00A8475F00A84E5F09011A4
:100EB4003C93F51AE54175F00A84E5F093F51B229D
:1005660012105D75148E30070302065BAE1CAF1DBC
:10057600E4FCFD7BA07A867901F8D312048250222E
:10058600AE1CAF1DE4FCFDF8120D70E47B0AFAF90F
:10059600F8120D70743C2BF58274113AF583E493CE
:1005A600F516C3E51D9410E51C94274020AE1CAF3C
:1005B6001D7C277D101203D57C007D0A1203D5749D
:1005C6003C2DF58274113CF583E493F517C3E51DC4
:1005D60094E8E51C94034020AE1CAF1D7C037DE827
:1005E6001203D57C007D0A1203D5743C2DF5827466
:1005F600113CF583E493F518C3E51D9464E51C945A
:10060600004020AE1CAF1D7C007D641203D57C002B
:100616007D0A1203D5743C2DF58274113CF583E4F2
:1006260093F519C3E51D940AE51C94004020AE1C01
:10063600AF1D7C007D0A1203D57C007D0A1203D50E
:10064600743C2DF58274113CF583E493F51AAE1CC7
:10065600AF1D0206E9AE1CAF1DE4FCFD7BA07A8649
:100666007901F8D31204825022AE1CAF1DE4FCFDC2
:10067600F8120D70E47B0AFAF9F8120D70743C2B2F
:10068600F58274113AF583E493F518C3E51D9410C9
:10069600E51C94274020AE1CAF1D7C277D1012035D
:1006A600D57C007D0A1203D5743C2DF58274113C6D
:1006B600F583E493F519AE1CAF1D7C037DE81203A8
:1006C600D57C007D0A1203D5743C2DF58274113C4D
:1006D600F583E493547FF51AAE1CAF1D7C007D6450
:1006E6001203D57C007D0A1203D5743C2DF5827465
:0906F600113CF583E493F51B228D
:10105D007514FF7515FF7516FF7517FF7518FF755C
:09106D0019FF751AFF751BFF2223
:100E28007F071211237580FF7F06121123AF13A8C5
:100E3800077401088002C333D8FCF5807F071211BC
:100E4800237580FF74142513F8E6F580E4FF12116A
:060E5800230513531307EC
:010E5E002271
:040C4800021C00008A
:0F110500E4F58CF58A438905D28CC28DC2A922EC
:100FAF00208D17AF8CE48FF012045512042AFFAD79
:100FBF008AEDCF8FF01204558002C28DE4F58CF5C7
:020FCF008A2274
:060C4C00021E0000C10AB7
:0611500000007F24DFFE19
:011156002276
:10101000E4FEEEC3940874809480500DD2901211B7
:0910200050C2901211500E80E93B
:0110290022A4
:10000300E4FBFAF50BF50AF509F508F58DF58B1206
:100013001010D28E208F032091FAC28E308F05C22A
:100023008FD20A22C20AAF8DAB07EBAD8BFAEDFB81
:10003300AE02FFAC06E41203098F0B8E0A8D098C06
:10004300087B967A43798B783C12015E8F0B8E0A7C
:0B0053008D098C081203428E1E8F1FC7
:01005E00227F
:04102A00D2A07F05CC
:10102E00000000000000000000000000000000AE04
:06103E00071FEE70EB221B
:0F111400D2A112102AC2A17F0512102EC2A02252
:0C113000C2A112102AD2A17F0502102ECD
:020E5F00AD07DD
:100E6100E4FCECC39408748094805024C2A07F05F4
:100E710012102EED30E704D2A18002C2A17F05122B
:100E8100102ED2A0ED25E0FD7F0512102E0C80D290
:020E9100C2A0FD
:010E9300223C
:100F4100E4FCECC3940874809480501712102AEDCD
:100F510025E0FD30A103430501C2A07F0512102E3B
:050F61000C80DFAF056C
:010F66002268
:1010D00012102AA2A1E433FDC2A07F0512102EAF88
:0110E000050A
:0110E10022EC
:10107600C2A0EF24FF92A17F0512102E12102AC2E1
:08108600A0D2A17F0502102E8B
:100EC400E4F508FB7A0079087F89120DB4E508641B
:100ED4008E600E7D8E7F89120F67AD40E4FF120F86
:0C0EE400677B007A007940E4FF020DB447
:081147007F3B7E5ADEFEDFFC57
:01114F00227D
:100DB4008F098B0A8A0B890C1211147FA0120E5F03
:100DC4001210D0AF09120E5F1210D01211147FA1AD
:100DD400120E5F1210D0120F41AB0AAA0BA90CEF2E
:0B0DE4001203C37F01121076021130D1
:100F67008F118D121211147FA0120E5F1210D0AFC5
:100F770011120E5F1210D0AF12120E5F1210D012A4
:050F87001130021147CA
:100DEF008B088A09890A1211147F90120E5F121054
:100DFF00D07F03120E5F1210D01211147F91120EBA
:100E0F005F1210D0120F41AB08AA09A90AEF120303
:090E1F00C37F01121076021130AC
:100FD1008F111211147F90120E5F1210D07F4012E8
:100FE1000E5F1210D0AF11120E5F1210D00211302D
:1010E200438E0475D72075D6D1438E1043AF04D2F8
:0210F200AF222B
:1010BC007F041211237580FF7F05121123E4F58044
:0410CC00FF021123EB
:0D11230053A01FEF5407C43354E042A02234
:100066000203AEE86480F8E933E83360110460F017
:10007600ED33EC337009E8FCE9FDEAFEEBFF220400
:1000860060DED3EB9FEA9EE99DE8C2E78CF0C2F7FB
:1000960095F0400CE8CCF8E9CDF9EACEFAEBCFFBC7
:1000A60012037985D0F05804700320D5B3E80470A4
:1000B600075002B2D50203B892D5EC0460F7E4CC3F
:1000C600C0E0C398F8603B94186008400DD0E0FB90
:1000D600020390E4FBFAC9FC8028E830E406E4C990
:1000E600FBE4CAFCE830E305E4C9CACBFCE85407E4
:1000F6006010F8C3E913F9EA13FAEB13FBEC13FCEF
:10010600D8F130F52FC3E49CFCEF9BFFEE9AFEED91
:1001160099FDD0E0FBEF4E4D4C701222DB0302033B
:10012600B5EC2CFCEF33FFEE33FEED33FDED30E79F
:10013600EB020390EF2BFFEE3AFEED39FDD0E0FB2C
:1001460050130BBB00030203B8ED13FDEE13FEEFD5
:0801560013FFEC13FC020390FF
:10015E00EC4D6011E8497017ED33EC3304600DE49B
:10016E00FCFFFEFD22E933E8330470F80203AE1201
:10017E00037958046009E4CC248150062850090202
:10018E0003B82840030203B5C0E0EB4A7044B980BF
:10019E0006D0E0FB0203A4EF4E701CBD8008EBFFFF
:1001AE00EAFEE9FD80EBE98DF0A4FEE5F0020247E0
:1001BE00E9CDF9EAFEEBFFEF89F0A4FCE5F0CE897C
:1001CE00F0A42EFFE435F0CD89F0A42DFEE435F039
:1001DE008067EF4E7005BD80D780C3EF8BF0A4AC67
:1001EE00F0EE8BF0A42CFCE435F0F8EF8AF0A42CA2
:1001FE00E5F038FCE433CB8DF0A42CFCE5F03BF8B5
:10020E00EE8AF0A42CFCE5F038F8E433CF89F0A4A4
:10021E002CFCE5F038CF3400CE89F0A42FFFE5F0AA
:10022E003EFEE433C98DF0A42EFEE5F039CD8AF002
:10023E00A42FFFE5F03EFEE43DFD33D0E0FB50077A
:10024E000BBB000F0203B8EC2CFCEF33FFEE33FEBA
:06025E00ED33FD020390E8
:100264000203B8EC5D046005E8590470030203AEB0
:10027400120379580460F6EC4860F2EC7004FDFE59
:10028400FF22C860DB2481C85009C398600250066D
:100294000203B59850CAF582E9294B4A7005AB822E
:1002A4000203A475F0007C1A7880C3EF9BEE9AEDEC
:1002B40099400DC3EF9BFFEE9AFEED99FDE842F0E5
:1002C400DC23ACF0D0E0FFD0E0FED0E0FDAB822038
:1002D400E7101BEB60BAEC2CFCEF33FFEE33FEEDC2
:1002E40033FD020390E803F830E705C0F075F00031
:1002F400EF2FFFEE33FEED33FD40B830E7C280AAA6
:1003040075F020800E75F010800575F0087D007E74
:10031400007F003392D530D503120474EC334010BF
:10032400EF33FFEE33FEED33FDEC33FCD5F0ED227D
:0E033400E5F0247EA2D513CC92E7CDCEFF22B9
:10034200EDD2E7CD33EC3392D524814006E4FFFEB3
:10035200FDFC22FCE4CFCECDCC24E0501174FF8012
:10036200EDC3CC13CCCD13CDCE13CECF13CF0470AF
:07037200F030D5DE02047437
:10037900E9D2E7C933E833F892D5EDD2E7CD33ECCA
:0703890033FC5002B2D52243
:10039000EC30E7100FBF000C0EBE00080DBD0004CE
:1003A0000BEB6014A2D5EB13FCED92E7FD2274FF7A
:1003B000FCFDFEFF22E480F8A2D574FF13FC7D80D3
:0303C000E480EFE7
:03000000020A6C85
:0C0A6C00787FE4F6D8FD758141020AB3E2
:1003C300BB010689828A83F0225002F722BBFE0119
:0203D300F32213
:1003D500BC000BBE0029EF8DF084FFADF022E4CC0C
:1003E500F875F008EF2FFFEE33FEEC33FCEE9DECD5
:1003F500984005FCEE9DFE0FD5F0E9E4CEFD22ED1B
:10040500F8F5F0EE8420D21CFEADF075F008EF2F64
:10041500FFED33FD4007985006D5F0F222C398FD55
:050425000FD5F0EA22F2
:10042A00BB010A89828A83E0F5F0A3E0225006879D
:10043A00F009E71922BBFE07E3F5F009E31922895F
:0B044A00828A83E493F5F07401932292
:10045500BB010A89828A83F0E5F0A3F0225006F7F2
:0F04650009A7F01922BBFE06F3E5F009F31922EF
:100D7000C2D5E830E70FB2D5E4C39BFBE49AFAE4AE
:100D800099F9E498F8EC30E717B2D5120DA61204E1
:100D9000D4E4C39BFBE49AFAE499F9E498F880035D
:100DA0001204D430D50DE4C39FFFE49EFEE49DFD04
:040DB000E49CFC22A1
:0E047400C3E49FFFE49EFEE49DFDE49CFC2299
:10048200EB9FF5F0EA9E42F0E99D42F0EC6480C8F1
:0604920064809845F02291
:100A7800021044E493A3F8E493A34003F68001F240
:100A880008DFF48029E493A3F85407240CC8C3337F
:100A9800C4540F4420C8834004F456800146F6DF4E
:100AA800E4800B0102040810204080900BE8E47EEB
:100AB800019360BCA3FF543F30E509541FFEE49343
:100AC800A360010ECF54C025E060A840B8E493A30A
:100AD800FAE493A3F8E493A3C8C582C8CAC583CA35
:100AE800F0A3C8C582C8CAC583CADFE9DEE780BEED
:010C520000A1
:1004980075F008758200EF2FFFEE33FECD33CDCC1B
:1004A80033CCC58233C5829BED9AEC99E58298409E
:1004B8000CF582EE9BFEED9AFDEC99FC0FD5F0D67B
:1004C800E4CEFBE4CDFAE4CCF9A88222B800C1B9A5
:1004D8000059BA002DEC8BF084CFCECDFCE5F0CBE3
:1004E800F97818EF2FFFEE33FEED33FDEC33FCEB1C
:1004F80033FB10D703994004EB99FB0FD8E5E4F9D7
:10050800FA227818EF2FFFEE33FEED33FDEC33FCC3
:10051800C933C910D7059BE99A4007EC9BFCE99AB7
:10052800F90FD8E0E4C9FAE4CCFB2275F010EF2FFC
:10053800FFEE33FEED33FDCC33CCC833C810D707FC
:100548009BEC9AE899400AED9BFDEC9AFCE899F837
:0E0558000FD5F0DAE4CDFBE4CCFAE4C8F922CA
:00000001FF
