:100B4C00C104C100C101C105C107C102014000C1FE
:0D0B5C0006014200C103023D0000013F0000
:100F360012117512116012119B1211AD120F991236
:100F460011F8300405C204120E07300209C202ADC0
:100F560040E4FF12103C300305C203120D5C120F71
:030F6600F080DF39
:03001B00020DB71C
:100DB700C0E0C0F0C083C082C0D075D000C000C002
:100DC70001C002C003C004C005C006C0070542D267
:100DD70003C3E5429405748094804009754200126C
:100DE7000ECA120ACAD007D006D005D004D003D045
:100DF70002D001D000D0D0D082D083D0F0D0E03262
:030063000209ACE3
:1009AC00C0E0C0F0C083C082C0D075D000C000C011
:0D09BC0001C002C003C004C005C006C00792
:1009C900053EE53E7002053DAE3DFF7C007D2C12E3
:1009D90003D5ED4C7002D204AE3DAF3E7C007D657F
:1009E9001203D5ED4C701DD200B205300813C3E5D2
:1009F9003F940A748094805004053F8007D2068092
:100A090003753F00C3E53E94F3E53D940140087545
:0A0A19003D00753E00D201120BBE35
:100A2300D007D006D005D004D003D002D001D00027
:0B0A3300D0D0D082D083D0F0D0E032D1
:100FF000300014C200120CFA7B007A007941120E04
:10100000911206FF12106130010BC2017B007A00C1
:06101000791B121084227E
:1006FF00E4F50BF50AF509F508F50FF50EF50DF50F
:10070F000CF510AC4112030E8F0B8E0A8D098C085D
:10071F00E4FBFA794C78421202678F0B8E0A8D092F
:10072F008C08E4FBFA79A0784112015E8F0B8E0AD8
:10073F008D098C081203428F41C3EF946374809428
:10074F00804003754163E541C3953250057F350203
:10075F000814D3E54194507480948040057FFF02C4
:10076F000814AC41E412030E8F0F8E0E8D0D8C0CFE
:10077F00C004C005C006C007AC32E412030EA804C3
:10078F00A905AA06AB07D007D006D005D0041200E2
:10079F00698F0F8E0E8D0D8C0CE4FBFA79807840EB
:1007AF0012015E8F0F8E0E8D0D8C0CC004C005C014
:1007BF0006C007C374509532FDE49400FC12030980
:1007CF00A804A905AA06AB07D007D006D005D00408
:1007DF001202678F0F8E0E8D0D8C0CE4FBFA798051
:1007EF00783F12006D8F0F8E0E8D0D8C0C7B007A63
:1007FF00807954784212015E8F0F8E0E8D0D8C0C06
:08080F001203428F101210A623
:0108170022BE
:100D5C00E4F580300704D2848002C2847F0512112E
:100D6C00CB300B13C3E5429404748094805004D2AE
:100D7C00858015C2858011C3E542940474809480EB
:100D8C005004C2858002D28530001BD3E51E9534F9
:100D9C00E51D9400400B20070DD2070540D20280C0
:0B0DAC0005300702C207E4FF0211CB74
:100B6900043537363534043901010101012B0001FF
:100B79003000022E2328022C232801322801312893
:100B890001343C01333CC109C10AC10804220101F5
:0B0B990001010126000427FFFFFFFF01
:100FC5008F09E509B434030210C6E509B4350302F7
:100FD5001149E509B43603020C2CE509B4370B12A7
:0B0FE5000C94E52B64017002D208227E
:10113200BF3713300810C20830060BC206E4F54070
:07114200AD40FF12103C223A
:100C9400AF2B7E00EF64037056AD30FCED701E7414
:100CA4000C252DF52D74FE352CF52CC3E52D94E87B
:100CB400E52C9403503F752C2E752DE022ED640134
:100CC4004C701374F62531F531C3940A7480948002
:100CD400502375313C22E5306402701974F62533D3
:100CE400F533C3940A74809480500A75337822EFE4
:060CF4004E7002B209225D
:100C2C00AF2B7E00EF64037056AD30FCED701E747C
:100C3C00F4252DF52D7401352CF52CD3E52D94E0F0
:100C4C00E52C942E4041752C03752DE822ED6401A2
:100C5C004C7013740A2531F531D3943C7480948014
:100C6C00402575310A22E5306402701B740A253365
:100C7C00F533D3947874809480400C75330A22EF4A
:080C8C0064024E7002B20A225C
:10114900E52B640370100530D3E530940274809464
:07115900804003E4F53022A1
:1010C600052BD3E52B9403748094804011E4F52B13
:0F10D600F530852C2E852D2F8531328533342230
:100E0700E4F508F508C3E508940474809480503E1F
:100E170074392508F8E6FF74222508F8E6FE6F60A6
:100E270029EE6401700C74352508F8E6FF120FC52A
:100E3700800A74352508F8E6FF121132743925083F
:0E0E4700F8E6FF74222508F8A607050880B714
:010E5500227A
:100BBE00E52614601814602314602E24037036E5A5
:100BCE002725E0FFA2B0E4334FF5278028E528253E
:100BDE00E0FFA2B1E4334FF528801AE52925E0FFA6
:100BEE00A2B2E4334FF529800CE52A25E0FFA2B32B
:100BFE00E4334FF52A74272526F8E6540FFF7E00BE
:100C0E00700974392526F8E4F6800DEF640F4E70E6
:0D0C1E000774392526F876010526532603B4
:010C2B0022A6
:0B11E400C0F9A4B0999282F88090FF3F
:0F0BA4000813FFFFFFFFFFFFFFFFC10B01120050
:10106100E52B7003020566E52B64017003020F692D
:10107100E52B640270030208EFE52B640370031291
:031081000818222A
:100ACA007580FF7F041211CBAF2B7E00EF7004C23A
:100ADA0080803CEF64014E7004C2818032EF640270
:100AEA004E7004C2828028EF64034E7022AF30FE3B
:100AFA00EF7006A20592808016EF64014E7006A27E
:100B0A00059281800AEF64024E7004A2059282D394
:100B1A00E51C952FE51B952E4006C283D20B800259
:100B2A00C20BE541D395324002C284D3E51E953407
:100B3A00E51D94004002C285300602C287E4FF0226
:020B4A0011CBCD
:1008180012111975138CE530FB7A0070729011E58E
:1008280093F514C3E52D9410E52C94274020AE2CA5
:10083800AF2D7C277D101203D57C007D0A1203D5CD
:1008480074E42DF58274113CF583E493F518AE2C0D
:10085800AF2D7C037DE81203D57C007D0A1203D5F9
:1008680074E42DF58274113CF583E493547FF519F3
:10087800AE2CAF2D7C007D641203D57C007D0A125E
:1008880003D574E42DF58274113CF583E48054EBB0
:1008980064014A70229011E693F514E53175F00A67
:1008A8008475F00A84E5F09011E493F519E5317543
:1008B800F00A84E5F0802CE530640270299011E795
:1008C80093F514E53375F0648475F00A84E5F090C7
:1008D80011E493547FF519E53375F00A8475F00A2D
:0708E80084E5F093F51A22EC
:1008EF00121119751388200A58C3E51E9464E51D6B
:1008FF0094004020AE1DAF1E7C007D641203D57C9A
:10090F00007D0A1203D574E42DF58274113CF58332
:10091F00E493F518C3E51E940AE51D94004064AEF8
:10092F001DAF1E7C007D0A1203D57C007D0A1203C9
:10093F00D574E42DF58274113CF583E493F5198099
:10094F0042AE1DAF1E7C007D641203D57C007D0A74
:10095F001203D574E42DF58274113CF583E493549E
:10096F007FF518AE1DAF1E7C007D0A1203D57C00EB
:10097F007D0A1203D574E42DF58274113CF583E4DE
:10098F0093F519AE1DAF1E7C007D0A1203D574E4DA
:0D099F002DF58274113CF583E493F51A22C6
:100F69007513897514FF7515FF7516FF7517FF75CC
:100F790018FFE54175F00A8475F00A84E5F09011CF
:100F8900E493F519E54175F00A84E5F093F51A2221
:1005660012111975138E30090302065BAE1BAF1C00
:10057600E4FCFD7BA07A867901F8D312048250222E
:10058600AE1BAF1CE4FCFDF812001EE47B0AFAF970
:10059600F812001E74E42BF58274113AF583E49385
:1005A600F515C3E51C9410E51B94274020AE1BAF40
:1005B6001C7C277D101203D57C007D0A1203D5749E
:1005C600E42DF58274113CF583E493F516C3E51C1E
:1005D60094E8E51B94034020AE1BAF1C7C037DE82A
:1005E6001203D57C007D0A1203D574E42DF58274BE
:1005F600113CF583E493F517C3E51C9464E51B945D
:10060600004020AE1BAF1C7C007D641203D57C002D
:100616007D0A1203D574E42DF58274113CF583E44A
:1006260093F518C3E51C940AE51B94004020AE1B05
:10063600AF1C7C007D0A1203D57C007D0A1203D50F
:1006460074E42DF58274113CF583E493F519AE1B21
:10065600AF1C0206E9AE1BAF1CE4FCFD7BA07A864C
:100666007901F8D31204825022AE1BAF1CE4FCFDC4
:10067600F812001EE47B0AFAF9F812001E74E42B45
:10068600F58274113AF583E493F517C3E51C9410CB
:10069600E51B94274020AE1BAF1C7C277D10120360
:1006A600D57C007D0A1203D574E42DF58274113CC5
:1006B600F583E493F518AE1BAF1C7C037DE81203AB
:1006C600D57C007D0A1203D574E42DF58274113CA5
:1006D600F583E493547FF519AE1BAF1C7C007D6453
:1006E6001203D57C007D0A1203D574E42DF58274BD
:0906F600113CF583E493F51A228E
:101119007513FF7514FF7515FF7516FF7517FF75A4
:0911290018FF7519FF751AFF2269
:100ECA007F071211CB7580FF7F061211CBAF12A8D4
:100EDA00077401088002C333D8FCF5807F0712111A
:100EEA00CB7580FF74132512F8E6F580E4FF121122
:060EFA00CB0512531207A4
:010F000022CE
:040BB300021B000021
:0F11AD00E4F58CF58A438905D28CC28DC2A92244
:10108400208D17AF8CE48FF012045512042AFFADA3
:101094008AEDCF8FF01204558002C28DE4F58CF5F1
:0210A4008A229E
:060BB700021D0000C10C4C
:0711F80043D980E4F5D82281
:0611FF0000007F24DFFE6A
:0112050022C6
:1010E500E4FEEEC3940874809480500DD2901211E2
:0910F500FFC2901211FF0E80E908
:0110FE0022CF
:100CFA00E4FBFAF50BF50AF509F508F5F9F5E91239
:100D0A0010E5D2DE20DF032091FAC2DE30DF0BC20B
:100D1A00DFD20C751D03751EE722C20CAFF9AB07B3
:100D2A00EBADE9FAEDFBAE02FFAC06E41203098F64
:100D3A000B8E0A8D098C087B967A43798B783C1244
:100D4A00015E8F0B8E0A8D098C081203428E1D8F4D
:010D5A001E7A
:010D5B002275
:0410FF00D2A07F05F7
:10110300000000000000000000000000000000AE2E
:06111300071FEE70EB2245
:0F11BC00D2A11210FFC2A17F05121103C2A022FF
:0C11D800C2A11210FFD2A17F050211037A
:020F0100AD073A
:100F0300E4FCECC39408748094805024C2A07F0551
:100F1300121103ED30E704D2A18002C2A17F0512B2
:100F23001103D2A0ED25E0FD7F051211030C80D241
:020F3300C2A05A
:010F35002299
:10101600E4FCECC394087480948050171210FFED22
:1010260025E0FD30A103430501C2A07F051211038F
:051036000C80DFAF0596
:01103B002292
:101189001210FFA2A1E433FDC2A07F05121103AF23
:011199000550
:01119A002232
:10000300C2A0EF24FF92A17F051211031210FFC2B9
:08001300A0D2A17F0502110338
:100F9900E4F508FB7A0079087F89120E56E50864A2
:100FA9008E600E7D8E7F8912103CAD40E4FF1210D9
:0C0FB9003C7B007A007940E4FF020E56F9
:0811EF007F3B7E5ADEFEDFFCAF
:0111F70022D5
:100E56008F098B0A8A0B890C1211BC7FA0120F0115
:100E6600121189AF09120F011211891211BC7FA14B
:100E7600120F01121189121016AB0AAA0BA90CEF58
:0B0E86001203C37F011200030211D809
:10103C008F098D0A1211BC7FA0120F01121189AFFA
:10104C0009120F01121189AF0A120F011211891224
:05105C0011D80211EFA4
:100E91008B088A09890A1211BC7F90120F01121165
:100EA100897F03120F011211891211BC7F91120F58
:100EB10001121189121016AB08AA09A90AEF12032F
:090EC100C37F011200030211D8E5
:1010A6008F111211BC7F90120F011211897F40120D
:1010B6000F01121189AF11120F011211890211D8F5
:10116000438E4053890F758BA0758DF6C28FD28E3A
:05117000D2ABD2AF225A
:10119B00438E0475D72075D6D1438E1043AF04D23E
:0211AB00AF2271
:101175007F041211CB7580FF7F051211CBE4F5803A
:04118500FF0211CB89
:0D11CB0053A01FEF5407C43354E042A0228C
:100066000203AEE86480F8E933E83360110460F017
:10007600ED33EC337009E8FCE9FDEAFEEBFF220400
:1000860060DED3EB9FEA9EE99DE8C2E78CF0C2F7FB
:1000960095F0400CE8CCF8E9CDF9EACEFAEBCFFBC7
:1000A60012037985D0F05804700320D5B3E80470A4
:1000B600075002B2D50203B892D5EC0460F7E4CC3F
:1000C600C0E0C398F8603B94186008400DD0E0FB90
:1000D600020390E4FBFAC9FC8028E830E406E4C990
:1000E600FBE4CAFCE830E305E4C9CACBFCE85407E4
:1000F6006010F8C3E913F9EA13FAEB13FBEC13FCEF
:10010600D8F130F52FC3E49CFCEF9BFFEE9AFEED91
:1001160099FDD0E0FBEF4E4D4C701222DB0302033B
:10012600B5EC2CFCEF33FFEE33FEED33FDED30E79F
:10013600EB020390EF2BFFEE3AFEED39FDD0E0FB2C
:1001460050130BBB00030203B8ED13FDEE13FEEFD5
:0801560013FFEC13FC020390FF
:10015E00EC4D6011E8497017ED33EC3304600DE49B
:10016E00FCFFFEFD22E933E8330470F80203AE1201
:10017E00037958046009E4CC248150062850090202
:10018E0003B82840030203B5C0E0EB4A7044B980BF
:10019E0006D0E0FB0203A4EF4E701CBD8008EBFFFF
:1001AE00EAFEE9FD80EBE98DF0A4FEE5F0020247E0
:1001BE00E9CDF9EAFEEBFFEF89F0A4FCE5F0CE897C
:1001CE00F0A42EFFE435F0CD89F0A42DFEE435F039
:1001DE008067EF4E7005BD80D780C3EF8BF0A4AC67
:1001EE00F0EE8BF0A42CFCE435F0F8EF8AF0A42CA2
:1001FE00E5F038FCE433CB8DF0A42CFCE5F03BF8B5
:10020E00EE8AF0A42CFCE5F038F8E433CF89F0A4A4
:10021E002CFCE5F038CF3400CE89F0A42FFFE5F0AA
:10022E003EFEE433C98DF0A42EFEE5F039CD8AF002
:10023E00A42FFFE5F03EFEE43DFD33D0E0FB50077A
:10024E000BBB000F0203B8EC2CFCEF33FFEE33FEBA
:06025E00ED33FD020390E8
:100264000203B8EC5D046005E8590470030203AEB0
:10027400120379580460F6EC4860F2EC7004FDFE59
:10028400FF22C860DB2481C85009C398600250066D
:100294000203B59850CAF582E9294B4A7005AB822E
:1002A4000203A475F0007C1A7880C3EF9BEE9AEDEC
:1002B40099400DC3EF9BFFEE9AFEED99FDE842F0E5
:1002C400DC23ACF0D0E0FFD0E0FED0E0FDAB822038
:1002D400E7101BEB60BAEC2CFCEF33FFEE33FEEDC2
:1002E40033FD020390E803F830E705C0F075F00031
:1002F400EF2FFFEE33FEED33FD40B830E7C280AAA6
:1003040075F020800E75F010800575F0087D007E74
:10031400007F003392D530D503120474EC334010BF
:10032400EF33FFEE33FEED33FDEC33FCD5F0ED227D
:0E033400E5F0247EA2D513CC92E7CDCEFF22B9
:10034200EDD2E7CD33EC3392D524814006E4FFFEB3
:10035200FDFC22FCE4CFCECDCC24E0501174FF8012
:10036200EDC3CC13CCCD13CDCE13CECF13CF0470AF
:07037200F030D5DE02047437
:10037900E9D2E7C933E833F892D5EDD2E7CD33ECCA
:0703890033FC5002B2D52243
:10039000EC30E7100FBF000C0EBE00080DBD0004CE
:1003A0000BEB6014A2D5EB13FCED92E7FD2274FF7A
:1003B000FCFDFEFF22E480F8A2D574FF13FC7D80D3
:0303C000E480EFE7
:03000000020A3EB3
:0C0A3E00787FE4F6D8FD758142020A853D
:1003C300BB010689828A83F0225002F722BBFE0119
:0203D300F32213
:1003D500BC000BBE0029EF8DF084FFADF022E4CC0C
:1003E500F875F008EF2FFFEE33FEEC33FCEE9DECD5
:1003F500984005FCEE9DFE0FD5F0E9E4CEFD22ED1B
:10040500F8F5F0EE8420D21CFEADF075F008EF2F64
:10041500FFED33FD4007985006D5F0F222C398FD55
:050425000FD5F0EA22F2
:10042A00BB010A89828A83E0F5F0A3E0225006879D
:10043A00F009E71922BBFE07E3F5F009E31922895F
:0B044A00828A83E493F5F07401932292
:10045500BB010A89828A83F0E5F0A3F0225006F7F2
:0F04650009A7F01922BBFE06F3E5F009F31922EF
:10001E00C2D5E830E70FB2D5E4C39BFBE49AFAE40D
:10002E0099F9E498F8EC30E717B2D512005412049F
:10003E00D4E4C39BFBE49AFAE499F9E498F88003BC
:10004E001204D430D50DE4C39FFFE49EFEE49DFD63
:04005E00E49CFC2200
:0E047400C3E49FFFE49EFEE49DFDE49CFC2299
:10048200EB9FF5F0EA9E42F0E99D42F0EC6480C8F1
:0604920064809845F02291
:100A4A00020F36E493A3F8E493A34003F68001F27D
:100A5A0008DFF48029E493A3F85407240CC8C333AD
:100A6A00C4540F4420C8834004F456800146F6DF7C
:100A7A00E4800B0102040810204080900B4CE47EB5
:100A8A00019360BCA3FF543F30E509541FFEE49371
:100A9A00A360010ECF54C025E060A840B8E493A338
:100AAA00FAE493A3F8E493A3C8C582C8CAC583CA63
:100ABA00F0A3C8C582C8CAC583CADFE9DEE780BE1B
:010BBD000037
:1004980075F008758200EF2FFFEE33FECD33CDCC1B
:1004A80033CCC58233C5829BED9AEC99E58298409E
:1004B8000CF582EE9BFEED9AFDEC99FC0FD5F0D67B
:1004C800E4CEFBE4CDFAE4CCF9A88222B800C1B9A5
:1004D8000059BA002DEC8BF084CFCECDFCE5F0CBE3
:1004E800F97818EF2FFFEE33FEED33FDEC33FCEB1C
:1004F80033FB10D703994004EB99FB0FD8E5E4F9D7
:10050800FA227818EF2FFFEE33FEED33FDEC33FCC3
:10051800C933C910D7059BE99A4007EC9BFCE99AB7
:10052800F90FD8E0E4C9FAE4CCFB2275F010EF2FFC
:10053800FFEE33FEED33FDCC33CCC833C810D707FC
:100548009BEC9AE899400AED9BFDEC9AFCE899F837
:0E0558000FD5F0DAE4CDFBE4CCFAE4C8F922CA
:00000001FF
