:100B9600011D00C104C105C100C101C102C103029A
:030BA6001B000031
:10107100120BFA1211011211271210EC300408C2DE
:0C10810004120C57120E9C120AA480F0FE
:03001B00020834A4
:10083400C0E0C0F0C083C082C0D075D000C000C08A
:0D08440001C002C003C004C005C006C0070B
:10085100051CE51C7002051BAE1BFF7C007D0A1206
:10086100039FED4C7002D204AE1BAF1C7C007D32A5
:1008710012039FED4C7002D205AE1BAF1C7C007DB4
:100881006812039FED4C7002D200AE1BAF1C7C00BE
:100891007DBD12039FED4C7002D201C3E51C94F49F
:1008A100E51B94014008751B00751C00D20230063F
:1008B10013C3E52B9420E52A94035008052BE52B5F
:0D08C1007002052A120E6B120D9B120B28FF
:1008CE00D007D006D005D004D003D002D001D0007E
:0B08DE00D0D0D082D083D0F0D0E03228
:100AA400E4F50BF50AF509F508300530C205FB7AC3
:100AB40000791D120D62AC1DE41202C68F0B8E0A62
:100AC4008D098C087B337A3379A3784012021F8F07
:100AD4000B8E0A8D098C081202FA8F1D30001EC27B
:100AE40000C3E52B9420E52A94034011E5399432A0
:100AF4007480948050040539800375390A300115D7
:100B0400C201120983121145E51DD3953A4004B27E
:100B1400038002D20330020BC2027B007A00793ECA
:030B24001210317B
:010B270022AB
:100BA900043137363534043501010101013D0001B5
:100BB9003C00012C00C106022A0000013B00022F63
:100BC9000000022D0000013A0A01390A042101013D
:0B0BD90001010125000426FFFFFFFFC3
:100FEB008F09E509B437030210D6E509B4360302BD
:100FFB00108DE509B43503020EFBE509B434031279
:03100B000ECC22E6
:100F2700BF3627300624C206C3E52B9420E52A9452
:100F3700035012C3E5399432748094805004053904
:0B0F4700800375390AE4F52AF52B221F
:100EFB00851D3B851E2F851F30853E2D853F2EADD5
:100F0B003B7F05120FC6AB30AA2F7D117F1012103D
:0C0F1B00A8AB2EAA2D7D217F200210A87B
:1010D600E52C64026009752C02E4F53DF53C22E43A
:0610E600F52C85393A22C9
:10108D00AF2C7E00EF7008752C01F53DF53C22EF7D
:0B109D0064014E7003F52C22D20622E5
:100ECC00AF2C7E00EF7011053DD3E53D940274808C
:100EDC009480401AE4F53D22EF64014E7010053CFD
:0F0EEC00D3E53C9402748094804003E4F53C22EB
:100C5700E4F508F508C3E508940474809480503ED1
:100C670074352508F8E6FF74212508F8E6FE6F605D
:100C770029EE6401700C74312508F8E6FF120FEBBA
:100C8700800A74312508F8E6FF120F277435250806
:0E0C9700F8E6FF74212508F8A607050880B7C7
:010CA500222C
:100B2800E52514601814602314602E24037036E53C
:100B38002625E0FFA2B0E4334FF5268028E52725D7
:100B4800E0FFA2B1E4334FF527801AE52825E0FF3E
:100B5800A2B2E4334FF528800CE52925E0FFA2B3C3
:100B6800E4334FF52974262525F8E6540FFF7E0057
:100B7800700974352525F8E4F6800DEF640F4E7082
:0D0B88000774352525F87601052553250352
:010B9500223D
:0B116B00C0F9A4B0999282F88090FFB8
:0D0BE4000813FFFFFFFFFFFFFFFF011200DE
:100E6B007580FF7F04121152E52C701CAF3DFEEF15
:100E7B007004C2808012EF64014E7004C28180083E
:100E8B00EF64024E7002C282A2039287E4FF02114A
:010E9B005204
:100E9C00E52C7019E53D70030208E9E53D6401702D
:100EAC0003020E39E53D64027015020715E52C644A
:100EBC00017003020530E52C64027003120E072248
:100E070075138C901175E493F514F515F516F51710
:100E1700F518E53975F00A8475F00A84E5F0901144
:100E27006B93547FF519E53975F00A84E5F093F56E
:020E37001A227D
:10053000751389E53CFB7A0060030205C17514C69A
:1005400090117593F515F516C3E53094E8E52F94F1
:1005500003401EAE2FAF307C037DE812039F7C006A
:100560007D0A12039F746B2DF58274113CF5838014
:1005700003901175E493F517AE2FAF307C007D64C6
:1005800012039F7C007D0A12039F746B2DF5827409
:10059000113CF583E493547FF518AE2FAF307C0007
:1005A0007D0A12039F7C007D0A12039F746B2DF558
:1005B0008274113CF583E493F519AE2FAF30020637
:1005C000FFEB64014A702E7514C190117593F515F7
:1005D000F516F517F518E53B75F00A8475F00A84F1
:1005E000E5F090116B93547FF519E53B75F00A84A3
:1005F000E5F0020711E53C6402600302071475147C
:100600008EAE2DAF2EFCFD7BA07A867901F8D31239
:10061000044C5020AE2DAF2EE4FCFDF8120CA6E4E5
:100620007B0AFAF9F8120CA6746B2BF58274113A56
:10063000F5838003901175E493F515C3E52E9410AE
:10064000E52D9427401EAE2DAF2E7C277D10120382
:100650009F7C007D0A12039F746B2DF58274113C00
:10066000F5838003901175E493F516C3E52E94E8A5
:10067000E52D9403401EAE2DAF2E7C037DE81203C2
:100680009F7C007D0A12039F746B2DF58274113CD0
:10069000F5838003901175E493F517C3E52E9464F8
:1006A000E52D9400401EAE2DAF2E7C007D6412031C
:1006B0009F7C007D0A12039F746B2DF58274113CA0
:1006C000F5838003901175E493F518C3E52E940A21
:1006D000E52D9400401EAE2DAF2E7C007D0A120346
:1006E0009F7C007D0A12039F746B2DF58274113C70
:1006F000F5838003901175E493F519AE2DAF2E7C30
:10070000007D0A12039F746B2DF58274113CF583F2
:05071000E493F51A223C
:100E39007513C1901175E493F514F515F516F517A9
:100E4900F518E51D75F00A8475F00A84E5F090112E
:100E59006B93547FF519E51D75F00A84E5F093F558
:020E69001A224B
:1008E9007513C6901175E493F514F515F516C3E55E
:1008F9001F94E8E51E9403401EAE1EAF1F7C037DC6
:10090900E812039F7C007D0A12039F746B2DF58208
:1009190074113CF5838003901175E493F517AE1EAD
:10092900AF1F7C007D6412039F7C007D0A12039F28
:10093900746B2DF58274113CF583E493547FF5189B
:10094900AE1EAF1F7C007D0A12039F7C007D0A1238
:10095900039F746B2DF58274113CF583E493F519AB
:10096900AE1EAF1F7C007D0A12039F746B2DF582AA
:0A09790074113CF583E493F51A2293
:1007150075138E901175E493F514AE3EAF3FE4FC6E
:10072500FD7BA07A867901F8D312044C5020AE3EA9
:10073500AF3FE4FCFDF8120CA6E47B0AFAF9F812C7
:100745000CA6746B2BF58274113AF5838003901116
:1007550075E493F515C3E53F9410E53E9427401ED7
:10076500AE3EAF3F7C277D1012039F7C007D0A12B1
:10077500039F746B2DF58274113CF58380039011F2
:1007850075E493F516C3E53F94E8E53E9403401EF2
:10079500AE3EAF3F7C037DE812039F7C007D0A12CD
:1007A500039F746B2DF58274113CF58380039011C2
:1007B50075E493F517C3E53F9464E53E9400401E48
:1007C500AE3EAF3F7C007D6412039F7C007D0A1224
:1007D500039F746B2DF58274113CF5838003901192
:1007E50075E493F518C3E53F940AE53E9400401E71
:1007F500AE3EAF3F7C007D0A12039F7C007D0A124E
:10080500039F746B2DF58274113CF5838003901161
:1008150075E493F519AE3EAF3F7C007D0A12039F48
:0F082500746B2DF58274113CF583E493F51A2260
:100D9B007F071211527580FF7F06121152AF12A8F6
:100DAB00077401088002C333D8FCF5807F0712114A
:100DBB00527580FF74132512F8E6F580E4FF1211CB
:060DCB005205125312074D
:010DD10022FF
:040BF100021E0000E0
:0D114500120F797FCC120F527F44020F521F
:10098300120F797FCC120F527FBE120F5212100E2C
:100993008F0C12100E750D008F0EE50EF50DE50C84
:1009A300F50EE50D54F86011E50EF4FFE50DF4FEC8
:1009B300EF2401F50EE43EF50DE50DC4F854F0C83F
:1009C30068F50DE50EC4540F48F50EAE0DFF7C001F
:1009D3007D6412038D8E0D8F0EE50C540FFCE41213
:1009E30002C6E4FBFA79C87840120116C004C005B8
:1009F300C006C007AC0DAD0EE41202C1D003D00295
:100A0300D001D0001200251202FA8E0D8F0E850D33
:040A13001E850E1F0F
:010A170022BC
:100BFA00E4F508FB7A0079087FB7120D27E5086447
:100C0A00C260247DC27FB7120FC6AD3B7F05120FAB
:100C1A00C6AB30AA2F7D117F101210A8AB2EAA2DB9
:100C2A007D217F200210A87B007A00793B7F051284
:100C3A000D277B007A00792F7D117F10120CEA7B39
:0C0C4A00007A00792D7D217F20120CEA39
:010C5600227B
:081176007F3B7E5ADEFEDFFC28
:01117E00224E
:0610A8008D0A8A0B8B0C7F
:1010AE00E4E50BFD120FC6E50C540FFDAF0A020F5F
:0110BE00C66B
:080CEA008D098B0A8A0B890CAD
:100CF200E4F50DFB7A00790D120D27AB0AAA0BA9B8
:100D02000CE4850DF012041F7B007A00790DAF0907
:100D1200120D27AB0AAA0BA90C1203F4FFE50DCFA3
:050D22008FF002041F28
:100D27008F0E8B0F8A1089111211367FA0120DD2E8
:100D3700121115AF0E120DD21211151211367FA115
:100D4700120DD2121115120FA0AB0FAA10A911EF95
:0B0D570012037B7F0112000302115FFA
:100FC6008F0D8D0E1211367FA0120DD2121115AF94
:100FD6000D120DD2121115AF0E120DD212111512DD
:050FE600115F0211760D
:040BF500023E0000BC
:0F112700E4F58CF58A438905C2A9C28DD28C22CA
:10103100208D17AF8CE48FF012041F1203F4FFAD63
:101041008AEDCF8FF012041F8002C28DE4F58CF57A
:021051008A22F1
:100D62008B0C8A0D890E1211367F90120DD2121140
:100D7200157F03120DD21211151211367F91120D29
:100D8200D2121115120FA0AB0CAA0DA90EEF12036D
:090D92007B7F0112000302115FD6
:0410BF00D2A07F0537
:1010C300000000000000000000000000AE071FEE5B
:0310D30070EE229A
:0F113600D2A11210BFC2A17F051210C3C2A02206
:0C115F00C2A11210BFD2A17F050210C374
:020DD200AD076B
:100DD400E4FCECC39408748094805024C2A07F0582
:100DE4001210C3ED30E704D2A18002C2A17F051224
:100DF40010C3D2A0ED25E0FD7F051210C30C80D2F4
:020E0400C2A08A
:010E060022C9
:100FA000E4FCECC394087480948050171210BFEDD9
:100FB00025E0FD30A103430501C2A07F051210C347
:050FC0000C80DFAF050D
:010FC5002209
:101115001210BFA2A1E433FDC2A07F051210C3AF18
:0111250005C4
:0111260022A6
:10000300C2A0EF24FF92A17F051210C31210BFC23A
:08001300A0D2A17F050210C379
:041053007F057E0097
:10105700EF1FAA0670011E4A600FE4FDEDC3940C52
:091067007480948050EA0D80F3BE
:01107000225D
:020F5200A907ED
:100F5400E4FBEBC39408748094805012C294E913A8
:100F64009294121053D294E9C313F90B80E47F05D1
:050F74007E0002105791
:10100E00E4FBEBC39408748094805014C294ECC338
:10101E0013FCD2943094034304801210530B80E2DD
:02102E00AF040D
:01103000229D
:100F7900C207D2947F0C7E00121057C2947F507E14
:100F890000121057D2947F0A7E00121057A2949231
:060F990007121053A2072D
:010F9F00222F
:1010EC00438E4053890F758B20758DD1C28FD28E54
:0510FC00D2ABD2AF22CF
:101101007F041211527580FF7F05121152E4F580A0
:04111100FF02115276
:0D11520053A01FEF5407C43354E042A02205
:10001E00020366E86480F8E933E83360110460F0A7
:10002E00ED33EC337009E8FCE9FDEAFEEBFF220448
:10003E0060DED3EB9FEA9EE99DE8C2E78CF0C2F743
:10004E0095F0400CE8CCF8E9CDF9EACEFAEBCFFB0F
:10005E0012033185D0F05804700320D5B3E8047034
:10006E00075002B2D502037092D5EC0460F7E4CCCF
:10007E00C0E0C398F8603B94186008400DD0E0FBD8
:10008E00020348E4FBFAC9FC8028E830E406E4C920
:10009E00FBE4CAFCE830E305E4C9CACBFCE854072C
:1000AE006010F8C3E913F9EA13FAEB13FBEC13FC37
:1000BE00D8F130F52FC3E49CFCEF9BFFEE9AFEEDDA
:1000CE0099FDD0E0FBEF4E4D4C701222DB03020384
:1000DE006DEC2CFCEF33FFEE33FEED33FDED30E730
:1000EE00EB020348EF2BFFEE3AFEED39FDD0E0FBBD
:1000FE0050130BBB0003020370ED13FDEE13FEEF66
:08010E0013FFEC13FC0203488F
:10011600EC4D6011E8497017ED33EC3304600DE4E3
:10012600FCFFFEFD22E933E8330470F80203661291
:10013600033158046009E4CC248150062850090292
:10014600037028400302036DC0E0EB4A7044B98097
:1001560006D0E0FB02035CEF4E701CBD8008EBFF8F
:10016600EAFEE9FD80EBE98DF0A4FEE5F00201FF71
:10017600E9CDF9EAFEEBFFEF89F0A4FCE5F0CE89C4
:10018600F0A42EFFE435F0CD89F0A42DFEE435F081
:100196008067EF4E7005BD80D780C3EF8BF0A4ACAF
:1001A600F0EE8BF0A42CFCE435F0F8EF8AF0A42CEA
:1001B600E5F038FCE433CB8DF0A42CFCE5F03BF8FD
:1001C600EE8AF0A42CFCE5F038F8E433CF89F0A4ED
:1001D6002CFCE5F038CF3400CE89F0A42FFFE5F0F3
:1001E6003EFEE433C98DF0A42EFEE5F039CD8AF04B
:1001F600A42FFFE5F03EFEE43DFD33D0E0FB5007C3
:100206000BBB000F020370EC2CFCEF33FFEE33FE4A
:06021600ED33FD02034878
:10021C00020370EC5D046005E85904700302036688
:10022C00120331580460F6EC4860F2EC7004FDFEE9
:10023C00FF22C860DB2481C85009C39860025006B5
:10024C0002036D9850CAF582E9294B4A7005AB82BE
:10025C0002035C75F0007C1A7880C3EF9BEE9AED7C
:10026C0099400DC3EF9BFFEE9AFEED99FDE842F02D
:10027C00DC23ACF0D0E0FFD0E0FED0E0FDAB822080
:10028C00E7101BEB60BAEC2CFCEF33FFEE33FEED0A
:10029C0033FD020348E803F830E705C0F075F000C1
:1002AC00EF2FFFEE33FEED33FD40B830E7C280AAEE
:1002BC0075F020800E75F010800575F0087D007EBD
:1002CC00007F003392D530D50312043EEC3340103E
:1002DC00EF33FFEE33FEED33FDEC33FCD5F0ED22C6
:0E02EC00E5F0247EA2D513CC92E7CDCEFF2202
:1002FA00EDD2E7CD33EC3392D524814006E4FFFEFC
:10030A00FDFC22FCE4CFCECDCC24E0501174FF805A
:10031A00EDC3CC13CCCD13CDCE13CECF13CF0470F7
:07032A00F030D5DE02043EB5
:10033100E9D2E7C933E833F892D5EDD2E7CD33EC12
:0703410033FC5002B2D5228B
:10034800EC30E7100FBF000C0EBE00080DBD000416
:100358000BEB6014A2D5EB13FCED92E7FD2274FFC2
:10036800FCFDFEFF22E480F8A2D574FF13FC7D801B
:03037800E480EF2F
:03000000020A18D9
:0C0A1800787FE4F6D8FD75813F020A5F8C
:10037B00BB010689828A83F0225002F722BBFE0161
:02038B00F3225B
:10038D00EF8DF0A4A8F0CF8CF0A428CE8DF0A42E84
:02039D00FE223E
:10039F00BC000BBE0029EF8DF084FFADF022E4CC42
:1003AF00F875F008EF2FFFEE33FEEC33FCEE9DEC0B
:1003BF00984005FCEE9DFE0FD5F0E9E4CEFD22ED51
:1003CF00F8F5F0EE8420D21CFEADF075F008EF2F9B
:1003DF00FFED33FD4007985006D5F0F222C398FD8C
:0503EF000FD5F0EA2229
:1003F400BB010A89828A83E0F5F0A3E022500687D4
:10040400F009E71922BBFE07E3F5F009E319228995
:0B041400828A83E493F5F074019322C8
:10041F00BB010A89828A83F0E5F0A3F0225006F728
:0F042F0009A7F01922BBFE06F3E5F009F3192225
:100CA600C2D5E830E70FB2D5E4C39BFBE49AFAE479
:100CB60099F9E498F8EC30E717B2D5120CDC120477
:100CC6009EE4C39BFBE49AFAE499F9E498F880035E
:100CD60012049E30D50DE4C39FFFE49EFEE49DFD05
:040CE600E49CFC226C
:0E043E00C3E49FFFE49EFEE49DFDE49CFC22CF
:10044C00EB9FF5F0EA9E42F0E99D42F0EC6480C827
:06045C0064809845F022C7
:100A2400021071E493A3F8E493A34003F68001F267
:100A340008DFF48029E493A3F85407240CC8C333D3
:100A4400C4540F4420C8834004F456800146F6DFA2
:100A5400E4800B0102040810204080900B96E47E91
:100A6400019360BCA3FF543F30E509541FFEE49397
:100A7400A360010ECF54C025E060A840B8E493A35E
:100A8400FAE493A3F8E493A3C8C582C8CAC583CA89
:100A9400F0A3C8C582C8CAC583CADFE9DEE780BE41
:010BF90000FB
:1004620075F008758200EF2FFFEE33FECD33CDCC51
:1004720033CCC58233C5829BED9AEC99E5829840D4
:100482000CF582EE9BFEED9AFDEC99FC0FD5F0D6B1
:10049200E4CEFBE4CDFAE4CCF9A88222B800C1B9DB
:1004A2000059BA002DEC8BF084CFCECDFCE5F0CB19
:1004B200F97818EF2FFFEE33FEED33FDEC33FCEB52
:1004C20033FB10D703994004EB99FB0FD8E5E4F90D
:1004D200FA227818EF2FFFEE33FEED33FDEC33FCFA
:1004E200C933C910D7059BE99A4007EC9BFCE99AEE
:1004F200F90FD8E0E4C9FAE4CCFB2275F010EF2F33
:10050200FFEE33FEED33FDCC33CCC833C810D70732
:100512009BEC9AE899400AED9BFDEC9AFCE899F86D
:0E0522000FD5F0DAE4CDFBE4CCFAE4C8F92200
:00000001FF
