:10093200023F0000C103C105C102C101C108C104D7
:10094200C106C107C109C10002350000013700011B
:080952003800013900013A00F0
:100E4500120EBD120F09120EA7120BC3120C52126D
:0A0E55000D5A200BF712066F80F211
:03001B0002046577
:10046500C0E0C0F0C083C082C0D075D000C000C05D
:0D04750001C002C003C004C005C006C007DE
:100482000536E53670020535AE35FF7C007D641217
:1004920002EDED4C7047D2030537C3E5379405747E
:1004A2008094804005D202753700300B120538C3A4
:1004B200E538941E748094804005753800C20B3074
:1004C2000A13C3E53994147480948050040539806A
:1004D20007D2068003753900300702B209AE35AF84
:1004E200367C027DEE1202EDED4C7002D205C3E5C0
:1004F200369420E5359403400675350075360012B2
:080502000A5B120B5712082ED0
:10050A00D007D006D005D004D003D002D001D00045
:0B051A00D0D0D082D083D0F0D0E032EF
:100C5200300508C2051208B1120F2730030BC20378
:100C6200120CC8120BF6120D1430020BC2027B00DA
:080C72007A00793F120E2A22DC
:020D14008F4509
:100D1600200B1AD3E53A943374809480400FD3EFB6
:100D26009433748094805005D20B12039A85453A09
:010D3600229A
:10039A001209B08E3D8F3E854A43854B4430040393
:1003AA00020464200808D208853D09853E0AE53E14
:1003BA00250AF50AE53D3509F509C313F509E50AE4
:1003CA0013F50AD3E53E950CE53D950B4006853DB0
:1003DA000B853E0C851D0E851E0F851F10050D20F1
:1003EA00010ED20185431185441285431B85441CA5
:1003FA00E5442512F512E5433511F511C313F5113C
:10040A00E51213F512D3E544951CE543951B400606
:10041A0085431B85441CD3E544952EE543952D4021
:10042A0004D2078002C207C3E50D94027480948047
:10043A00401CD3E5449542E5439541400FD3E53E40
:10044A00953CE53D953B4004D2008002C2008543BD
:0B045A0041854442853D3B853E3C222D
:1009B000C3E54094C8E53F94004047D3E54094D058
:1009C000E53F9407503CAC3FAD40E41202218F4913
:1009D0008E488D478C467B2A7A8E79E3783E1201C9
:1009E000168F498E488D478C467B1C7AC7793178A3
:1009F000411200258F498E488D478C4612025AC2FB
:070A00000422D204E4FEFF12
:010A070022CC
:040F5D0035393438B6
:10095A00043001010101013400012F00022D012C94
:10096A00022B012CC10A0422010101010126000403
:05097A0027FFFFFFFF55
:100C27008F47E547B43403020DD4E547B4350302D3
:100C37000E79E547B43803020DF1E547B4390B12D5
:0B0C47000D98E52F64027002D20A2213
:100EF800BF390D300A0A300605C206120D7AC20A39
:010F080022C6
:100D7A00E4F50DF51BF51CF511F512F50BF50CF55F
:0E0D8A0009F50AF50EF50FF510C201C2082298
:100DD4000534D3E5349402748094804009E4F534F6
:0D0DE400852B2D852C2EE5347002F52F2275
:100E7900E53464017010052FD3E52F940274809432
:070E8900804003E4F52F2275
:100D9800E53464027017D3E52C9400E52B940040E9
:0E0DA8000C74F6252CF52C74FF352BF52B2240
:100DF100E53464027016C3E52C94DEE52B940350B0
:0D0E01000B740A252CF52CE4352BF52B2263
:10066F00E4F545C3E5459402748094804003020786
:10067F000AE4F546C3E5469402748094805077E50A
:10068F004525E024302546F8E6FFE54525E0242200
:10069F002546F8E6FE6F6059EE64017020E54525AA
:1006AF00E0245DF582E4340FF583E5822546F5827B
:1006BF00E43583F583E493FF120C27801EE545256F
:1006CF00E0245DF582E4340FF583E5822546F5825B
:1006DF00E43583F583E493FF120EF8E54525E02416
:1006EF00302546F8E6FFE54525E024222546F8A605
:0B06FF0007054602068305450206724F
:01070A0022CC
:10082E00E52625E02427F8E625E0FFA2C4E4334FB1
:10083E00FFE52625E02427F8A607E52625E024284F
:10084E00F8E625E0FFA2C2E4334FFFE52625E024BB
:10085E0028F8A607E4FFEFC3940274809480502C0E
:10086E00E52625E024272FF8E6FD7C00700CE52612
:10087E0025E024302FF8E4F6800FEDF44C700AE5F5
:10088E002625E024302FF876010F80CA0526532640
:10089E0001E526146008047009C2B2D2B322C2B3B5
:0208AE00D2B2C4
:0108B0002225
:0A0F4D00C0F9A4B0999282F88090D8
:10097F000813FFFFFFFFFFFFFFFF021B0000021125
:10098F000000020B000002090000010D00030E0021
:07099F000000C10B0108007C
:100D5A00200B19E5347003020B20E534640170039B
:100D6A00020E5FE53464027006020A0812070B22BB
:100A5B007580FF7F04120F34AF347E00EF7004C239
:100A6B00808012EF64014E7004C2818008EF640233
:100A7B004E7002C282300704A2099283300402C274
:100A8B0084C3E50D9402748094804005300002C24B
:060A9B0085E4FF020F34A8
:10070B007513867514FF7515FFAE43AF447C007DE2
:10071B00641202ED7C007D0A1202ED744D2DF58200
:10072B00740F3CF583E493F516AE43AF447C007D28
:10073B000A1202ED7C007D0A1202ED744D2DF5823A
:10074B00740F3CF583E493F5177518BF200441AE85
:10075B003DAF3E7C007D641202ED7C007D0A1202EF
:10076B00ED744D2DF582740F3CF583E493F519AEC2
:10077B003DAF3E7C007D0A1202ED7C007D0A120229
:10078B00ED744D2DF582740F3CF583E493F51A222D
:07079B00751988751A882208
:100A080075138C7514FF7515FF7516FF7517FF752F
:100A180018FFAE2BAF2C7C007D641202ED7C007DAC
:100A28000A1202ED744D2DF582740F3CF583E493A0
:100A3800F519AE2BAF2C7C007D0A1202ED7C007DEF
:100A48000A1202ED744D2DF582740F3CF583E49380
:030A5800F51A226A
:100E5F00E52F70030205CAE52F6401700302052513
:0A0E6F00E52F64027003120AA122AD
:100AA10075138EE50D75F00A8475F00A84E5F090F2
:100AB1000F4D93F514E50D75F00A84E5F093F515E6
:100AC100E510C4540F93F516E510540F93F51775FF
:100AD10018BFE50FC4540F93F519E50F540F93F5A3
:020AE1001A22D7
:100525007513897514FFAE0BAF0C7C007D64120248
:10053500ED7C007D0A1202ED744D2DF582740F3CA1
:10054500F583E493F515AE0BAF0C7C007D0A120222
:10055500ED7C007D0A1202ED744D2DF582740F3C81
:10056500F583E493F5167517BFAE09AF0A7C007DD8
:10057500641202ED7C007D0A1202ED744D2DF582A8
:10058500740F3CF583E493F518AE09AF0A7C007D42
:100595000A1202ED7C007D0A1202ED744D2DF582E2
:1005A500740F3CF583E493547FF519AE09AF0A7CCB
:1005B500007D0A1202ED744D2DF582740F3CF58312
:0505C500E493F51A2289
:1005CA007513C67514FFAE1BAF1C7C007D64120246
:1005DA00ED7C007D0A1202ED744D2DF582740F3CFC
:1005EA00F583E493F515AE1BAF1C7C007D0A12025D
:1005FA00ED7C007D0A1202ED744D2DF582740F3CDC
:10060A00F583E493F5167517BFAE11AF127C007D22
:10061A00641202ED7C007D0A1202ED744D2DF58202
:10062A00740F3CF583E493F518AE11AF127C007D8C
:10063A000A1202ED7C007D0A1202ED744D2DF5823C
:10064A00740F3CF583E493547FF519AE11AF127C15
:10065A00007D0A1202ED744D2DF582740F3CF5836C
:05066A00E493F51A22E3
:100B2000E51FC4540F900F4D93F513E51F540F9319
:100B3000F5147515BFE51EC4540F93F516E51E5444
:100B40000F93F5177518BFE51DC4540F93F519E5FC
:070B50001D540F93F51A225A
:100B57007F07120F347580FF7F06120F34AF08A886
:100B6700077401088002C333D8FCF5807F07120F92
:100B7700347580FF74132508F8E6F580E4FF120F3B
:060B8700340508530807C5
:010B8D002245
:0F0F0900E4F58CF58A438905D28CC28DC2A922EA
:100E2A00AF8CE48FF012036D120342FFAD8AEDCF4F
:0B0E3A008FF012036DE4F58CF58A22A6
:100BF600E4F545120F187F90120B8E120EE67F0158
:100C0600120B8E120EE6120F187F91120B8E120E19
:100C1600E6120CEE8F457F01120003120F41AF451D
:010C260022AB
:060F570080828481838585
:0509A600031D05031311
:100BC300E4F545FD7F8E120ED2E4F545C3E5459469
:100BD30003748094805015E545900F5793FF741D5F
:100BE3002545F8E6FD120ED2054580E07D807F8E17
:030BF300020ED21D
:100CC800E4F545F545C3E5459403748094805015D3
:100CD800E545900F5A93FF120AE3741D2545F8A6BF
:050CE80007054580E056
:010CED0022E4
:100E0E00E4FEEEC3940874809480500FC297EF13E3
:0B0E1E0092A3EFC313FFD2970E80E7F2
:010E290022A6
:100ED200C29300C29700D29300120E0EAF05120EFB
:040EE2000EC2932287
:100AE300E4FDC29300C29700D29300120E0EE4FFFE
:100AF300EFC39408748094805011C297EDC313FD23
:100B030030A303430580D2970F80E5C29300C297B9
:0C0B130000D29700C2A300D2A300AF05DF
:010B1F0022B3
:040E9000D2A07F0568
:100E9400000000000000000000000000AE071FEE8C
:030EA40070EE22CB
:0F0F1800D2A1120E90C2A17F05120E94C2A02288
:0C0F4100C2A1120E90D2A17F05020E94F6
:020B8E00AD07B1
:100B9000E4FCECC39408748094805024C2A07F05C8
:100BA000120E94ED30E704D2A18002C2A17F05129B
:100BB0000E94D2A0ED25E0FD7F05120E940C80D29C
:020BC000C2A0D1
:010BC2002210
:100CEE00E4FCECC39408748094805017120E90EDBF
:100CFE0025E0FD30A103430501C2A07F05120E942D
:050D0E000C80DFAF05C1
:010D130022BD
:100EE600120E90A2A1E433FDC2A07F05120E94AFAC
:010EF60005F6
:010EF70022D8
:10000300C2A0EF24FF92A17F05120E94120E90C29C
:08001300A0D2A17F05020E94AA
:0409AB00024A0000FC
:0D0F2700120CA17FCC120C7A7F44020C7AD0
:1008B100120CA17FCC120C7A7FBE120C7A120D376A
:1008C1008F45120D37754A008F4BE54B754B00F57F
:1008D1004AE545424BE54A54F87055E54AC4F85497
:1008E100F0C868F54AE54BC4540F48F54BAE4AFFD2
:1008F1007C007D0A1202DB8E4A8F4BE545540FFCCA
:10090100E4120226E4FBFA7920783F120116C004B2
:10091100C005C006C007AC4AAD4BE4120221D003AA
:10092100D002D001D00012002512025A8E4A8F4BFC
:0109310022A3
:040DB6007F057E0037
:100DBA00EF1FAA0670011E4A600FE4FDEDC3940CF2
:090DCA007480948050EA0D80F35E
:010DD30022FD
:020C7A00A907C8
:100C7C00E4FBEBC39408748094805012C294E91383
:100C8C009294120DB6D294E9C313F90B80E47F054C
:050C9C007E00020DBA0C
:100D3700E4FBEBC39408748094805014C294ECC312
:100D470013FCD294309403430480120DB60B80E257
:020D5700AF04E7
:010D59002277
:100CA100C20CD2947F0C7E00120DBAC2947F507E8A
:100CB10000120DBAD2947F0A7E00120DBAA294924C
:060CC1000C120DB6A20C9E
:010CC700220A
:100EBD00438E4053890F758B20758DD1C28FD28E85
:050ECD00D2ABD2AF2200
:100EA7007F04120F347580FF7F05120F34C286C28C
:060EB70084E4FF020F3489
:0D0F340053A01FEF5407C43354E042A02225
:10001E000202C6E86480F8E933E83360110460F048
:10002E00ED33EC337009E8FCE9FDEAFEEBFF220448
:10003E0060DED3EB9FEA9EE99DE8C2E78CF0C2F743
:10004E0095F0400CE8CCF8E9CDF9EACEFAEBCFFB0F
:10005E0012029185D0F05804700320D5B3E80470D5
:10006E00075002B2D50202D092D5EC0460F7E4CC70
:10007E00C0E0C398F8603B94186008400DD0E0FBD8
:10008E000202A8E4FBFAC9FC8028E830E406E4C9C1
:10009E00FBE4CAFCE830E305E4C9CACBFCE854072C
:1000AE006010F8C3E913F9EA13FAEB13FBEC13FC37
:1000BE00D8F130F52FC3E49CFCEF9BFFEE9AFEEDDA
:1000CE0099FDD0E0FBEF4E4D4C701222DB03020285
:1000DE00CDEC2CFCEF33FFEE33FEED33FDED30E7D0
:1000EE00EB0202A8EF2BFFEE3AFEED39FDD0E0FB5E
:1000FE0050130BBB00030202D0ED13FDEE13FEEF07
:08010E0013FFEC13FC0202A830
:10011600EC4D6011E8497017ED33EC3304600DE4E3
:10012600FCFFFEFD22E933E8330470F80202C61232
:10013600029158046009E4CC248150062850090233
:1001460002D02840030202CDC0E0EB4A7044B980D9
:1001560006D0E0FB0202BCEF4E701CBD8008EBFF30
:10016600EAFEE9FD80EBE98DF0A4FEE5F00201FF71
:10017600E9CDF9EAFEEBFFEF89F0A4FCE5F0CE89C4
:10018600F0A42EFFE435F0CD89F0A42DFEE435F081
:100196008067EF4E7005BD80D780C3EF8BF0A4ACAF
:1001A600F0EE8BF0A42CFCE435F0F8EF8AF0A42CEA
:1001B600E5F038FCE433CB8DF0A42CFCE5F03BF8FD
:1001C600EE8AF0A42CFCE5F038F8E433CF89F0A4ED
:1001D6002CFCE5F038CF3400CE89F0A42FFFE5F0F3
:1001E6003EFEE433C98DF0A42EFEE5F039CD8AF04B
:1001F600A42FFFE5F03EFEE43DFD33D0E0FB5007C3
:100206000BBB000F0202D0EC2CFCEF33FFEE33FEEB
:06021600ED33FD0202A819
:10021C0075F020800E75F010800575F0087D007E5D
:10022C00007F003392D530D50312038CEC33401091
:10023C00EF33FFEE33FEED33FDEC33FCD5F0ED2266
:0E024C00E5F0247EA2D513CC92E7CDCEFF22A2
:10025A00EDD2E7CD33EC3392D524814006E4FFFE9C
:10026A00FDFC22FCE4CFCECDCC24E0501174FF80FB
:10027A00EDC3CC13CCCD13CDCE13CECF13CF047098
:07028A00F030D5DE02038C09
:10029100E9D2E7C933E833F892D5EDD2E7CD33ECB3
:0702A10033FC5002B2D5222C
:1002A800EC30E7100FBF000C0EBE00080DBD0004B7
:1002B8000BEB6014A2D5EB13FCED92E7FD2274FF63
:1002C800FCFDFEFF22E480F8A2D574FF13FC7D80BC
:0302D800E480EFD0
:030000000207A252
:0C07A200787FE4F6D8FD75814B0207E972
:1002DB00EF8DF0A4A8F0CF8CF0A428CE8DF0A42E37
:0202EB00FE22F1
:1002ED00BC000BBE0029EF8DF084FFADF022E4CCF5
:1002FD00F875F008EF2FFFEE33FEEC33FCEE9DECBE
:10030D00984005FCEE9DFE0FD5F0E9E4CEFD22ED03
:10031D00F8F5F0EE8420D21CFEADF075F008EF2F4D
:10032D00FFED33FD4007985006D5F0F222C398FD3E
:05033D000FD5F0EA22DB
:10034200BB010A89828A83E0F5F0A3E02250068786
:10035200F009E71922BBFE07E3F5F009E319228948
:0B036200828A83E493F5F0740193227B
:10036D00BB010A89828A83F0E5F0A3F0225006F7DB
:0F037D0009A7F01922BBFE06F3E5F009F31922D8
:0E038C00C3E49FFFE49EFEE49DFDE49CFC2282
:1007AE00020E45E493A3F8E493A34003F68001F20E
:1007BE0008DFF48029E493A3F85407240CC8C3334C
:1007CE00C4540F4420C8834004F456800146F6DF1B
:1007DE00E4800B0102040810204080900932E47E70
:1007EE00019360BCA3FF543F30E509541FFEE49310
:1007FE00A360010ECF54C025E060A840B8E493A3D7
:10080E00FAE493A3F8E493A3C8C582C8CAC583CA01
:10081E00F0A3C8C582C8CAC583CADFE9DEE780BEB9
:0109AF000047
:00000001FF
