:0305D6000115000C
:100A32001209CE1209E3120A0C12091212080F80CF
:010A4200FBB8
:03000B0002079554
:10079500C0E0C0F0C083C082C0D075D000C000C02A
:1007A50001C002C003C004C005C006C007758ACDDC
:1007B500758CD4120845D007D006D005D004D003D7
:1007C500D002D001D000D0D0D082D083D0F0D0E0FC
:0107D50032F1
:03001B0002075188
:10075100C0E0C0F0C083C082C0D075D000C000C06E
:1007610001C002C003C004C005C006C007758BCD1F
:10077100758DD412070C12038CD007D006D005D08A
:1007810004D003D002D001D000D0D0D082D083D009
:04079100F0D0E03292
:1005D9001E56003232FF056500FAFAFF07D6001EE3
:1005E90032FF06AE009696FF04F200C8FAFF08AF84
:10070C00E4F555E55575F006A42457F8E6602EE59A
:10071C005575F006A42457F816E67021E55575F0CA
:10072C0006A42458F8E6FFE55575F006A42457F8FE
:10073C00A607E55575F006A42456F876010555E58F
:04074C0055B405BFDC
:010750002286
:10080F00E4F516E51675F006A42456F8E6601DE526
:10081F001675F006A42459F808E6FA08E6F912034B
:10082F0031E51675F006A42456F8E4F60516E5161C
:05083F00C3940540CE4A
:010844002291
:1009CE00438E805389F0758ACD758CD4C28DD28CAE
:0509DE00D2A9D2AF22F6
:1009E300438E4053890F758BFF758DFEC28FD28E58
:0509F300D2ABD2AF22DF
:10064600EFB408005061900653F828287302066B31
:1006560002066F02067802068102068A02069302E5
:10066600069C0206A553A01F22E5A0541F4420F5B0
:10067600A022E5A0541F4440F5A022E5A0541F4443
:1006860060F5A022E5A0541F4480F5A022E5A05401
:100696001F44A0F5A022E5A0541F44C0F5A022E502
:0806A600A0541F44E0F5A0225E
:100A0C007F041206467580FF0F120646E4F580FF40
:030A1C0002064689
:0A000E00C0F9A4B0999282F8809026
:0D05F9000809FFFFFFFFFFFFFFFF010800E3
:100845007580FF7F06120646AF087401A807088069
:1008550002C333D8FCF5807F0712064674092508C4
:10086500F8E6F580E4FF1206460508E508D3940787
:050875004003E4F5085A
:01087A00225B
:10056500E515706CAE11AF12FC7D0A1202ED740E2A
:100575002DF58274003CF583E493F510AE11AF12AE
:100585007C007D641202ED7E007F0ACFCDCFCECCFC
:10059500CE1202ED740E2FF58274003EF583E493BE
:1005A500547FF50FAE11AF127C007D641202ED741D
:1005B5000E2FF58274003EF583E493F50E750DFF5D
:1005C500750CFF750BFF90000FE493F50A7509C1D3
:0105D5002203
:1007D600E515640170327800E2FF540F90000E9325
:1007E600F510EFC4540F93F50F750EBF08E2FF54D2
:1007F6000F93F50DEFC4540F93F50C750BFF900096
:0908060010E493F50A7509C12202
:100A5300071115190610141805091317040812169F
:100606001045010101010101010101010101010181
:100616000101102301010101010101010101010193
:10062600010101011035FFFFFFFFFFFFFFFFFFFF85
:06063600FFFFFFFFFFFFC4
:100A4300BF120C0515E515D394014003E4F51522F7
:1004F200E4F521E4F522E52125E025E02445252245
:10050200F8E6FFE52125E025E024232522F8E6FE92
:100512006F603DEE6020E52125E025E02453F58261
:10052200E4340AF583E5822522F582E43583F583F6
:10053200E493FF120A43E52125E025E02445252224
:10054200F8E6FFE52125E025E024232522F8A60789
:100552000522E522C39404409D0521E521C39404AC
:020562004091C6
:010564002274
:10038C00E53425E025E02435F8E625E0FFA2C4E4B9
:10039C00334FFFE53425E025E02435F8A607E53496
:1003AC0025E025E02436F8E625E0FFA2C2E4334F31
:1003BC00FFE53425E025E02436F8A607E53425E0F2
:1003CC0025E02437F8E625E0FFA2B5E4334FFFE53E
:1003DC003425E025E02437F8A607E53425E025E0B0
:1003EC002438F8E625E0FFA2B4E4334FFFE53425CA
:1003FC00E025E02438F8A607E4F533E53425E025BC
:10040C00E024352533F8E6540FFF700FE53425E072
:10041C0025E024452533F8E4F68010BF0F0DE534B4
:10042C0025E025E024452533F876010533E533B482
:10043C0004C90534533403E53414600F14601114EB
:10044C00601324037013D2B3C2B022D2B0C2B12253
:09045C00D2B1C2B222D2B2C2B385
:010465002274
:10096400C2AFC2947F287E001209B8D2947F057E5C
:0F097400001209B8A29492023094FDD2AFA202F1
:010983002251
:1009A200120964920120010A7FCC1209427F44128B
:0509B2000942A201B39F
:0109B700221D
:1008E10012096492012001257FCC120942C2AF7F17
:1008F100BE120942D2AF1209848F131209848F14D8
:10090100EFFE7C00E42513F512EC3EF511A201B3D4
:0109110022C3
:1006AE001208E19200300053E512AE117804CEA28A
:1006BE00E713CE13D8F8F5128E11FF7C007D0A12C7
:1006CE0002DB8E118F12E513540FFCE4120226E4A6
:1006DE00FBFA7920783F120116C004C005C006C08F
:1006EE0007AC11AD12EC120221D003D002D001D012
:0E06FE000012002512025A8E118F120209A25C
:1009B800EF1FAA0670011E4A600BE4FDEDC3940CFC
:0509C80050EE0D80F768
:0109CD002207
:02094200A90703
:10094400E4FBC294E91392947F057E001209B8D2A5
:1009540094E9C313F90BBB08E97F057E000209B8CB
:10098400E4FBC294ECC313FCD2943094034304807C
:0D0994007F057E001209B80BBB08E7AF0419
:0109A1002233
:0E0A630080828486888A8C81838587898B8D2A
:09063C00870025300801040222A8
:100A1F00E4FEC297EF1392A3EFC313FFD2970EBE5C
:020A2F0008F0CD
:010A310022A2
:1009F800C29300C29700D29300120A1FAF05120AD1
:040A08001FC2932254
:10087B00E4FDC29300C29700D29300120A1FE4FF5B
:10088B00C297EDC313FD30A303430580D2970FBF6F
:10089B0008EEC29300C29700D29700C2A300D2A366
:0308AB0000AF0596
:0108AE002227
:10091200E4FD7F8E1209F8E4FCECFF3395E0FE74EF
:10092200632FF582740A3EF583E493FF74002CF87A
:10093200E2FD1209F80CBC07E0E4FD7F8E0209F823
:0508AF00E515B4012C69
:1008B400E4F516AF16EF3395E0FE746A2FF58274F3
:1008C4000A3EF583E493FF12087B74002516F8EFC3
:0C08D400F20516C3E5166480948740D737
:0108E00022F5
:10001E000202C6E86480F8E933E83360110460F048
:10002E00ED33EC337009E8FCE9FDEAFEEBFF220448
:10003E0060DED3EB9FEA9EE99DE8C2E78CF0C2F743
:10004E0095F0400CE8CCF8E9CDF9EACEFAEBCFFB0F
:10005E0012029185D0F05804700320D5B3E80470D5
:10006E00075002B2D50202D092D5EC0460F7E4CC70
:10007E00C0E0C398F8603B94186008400DD0E0FBD8
:10008E000202A8E4FBFAC9FC8028E830E406E4C9C1
:10009E00FBE4CAFCE830E305E4C9CACBFCE854072C
:1000AE006010F8C3E913F9EA13FAEB13FBEC13FC37
:1000BE00D8F130F52FC3E49CFCEF9BFFEE9AFEEDDA
:1000CE0099FDD0E0FBEF4E4D4C701222DB03020285
:1000DE00CDEC2CFCEF33FFEE33FEED33FDED30E7D0
:1000EE00EB0202A8EF2BFFEE3AFEED39FDD0E0FB5E
:1000FE0050130BBB00030202D0ED13FDEE13FEEF07
:08010E0013FFEC13FC0202A830
:10011600EC4D6011E8497017ED33EC3304600DE4E3
:10012600FCFFFEFD22E933E8330470F80202C61232
:10013600029158046009E4CC248150062850090233
:1001460002D02840030202CDC0E0EB4A7044B980D9
:1001560006D0E0FB0202BCEF4E701CBD8008EBFF30
:10016600EAFEE9FD80EBE98DF0A4FEE5F00201FF71
:10017600E9CDF9EAFEEBFFEF89F0A4FCE5F0CE89C4
:10018600F0A42EFFE435F0CD89F0A42DFEE435F081
:100196008067EF4E7005BD80D780C3EF8BF0A4ACAF
:1001A600F0EE8BF0A42CFCE435F0F8EF8AF0A42CEA
:1001B600E5F038FCE433CB8DF0A42CFCE5F03BF8FD
:1001C600EE8AF0A42CFCE5F038F8E433CF89F0A4ED
:1001D6002CFCE5F038CF3400CE89F0A42FFFE5F0F3
:1001E6003EFEE433C98DF0A42EFEE5F039CD8AF04B
:1001F600A42FFFE5F03EFEE43DFD33D0E0FB5007C3
:100206000BBB000F0202D0EC2CFCEF33FFEE33FEEB
:06021600ED33FD0202A819
:10021C0075F020800E75F010800575F0087D007E5D
:10022C00007F003392D530D503120323EC334010FA
:10023C00EF33FFEE33FEED33FDEC33FCD5F0ED2266
:0E024C00E5F0247EA2D513CC92E7CDCEFF22A2
:10025A00EDD2E7CD33EC3392D524814006E4FFFE9C
:10026A00FDFC22FCE4CFCECDCC24E0501174FF80FB
:10027A00EDC3CC13CCCD13CDCE13CECF13CF047098
:07028A00F030D5DE02032372
:10029100E9D2E7C933E833F892D5EDD2E7CD33ECB3
:0702A10033FC5002B2D5222C
:1002A800EC30E7100FBF000C0EBE00080DBD0004B7
:1002B8000BEB6014A2D5EB13FCED92E7FD2274FF63
:1002C800FCFDFEFF22E480F8A2D574FF13FC7D80BC
:0302D800E480EFD0
:0300000002046691
:0C046600787FE4F6D8FD7581730204ADC8
:1002DB00EF8DF0A4A8F0CF8CF0A428CE8DF0A42E37
:0202EB00FE22F1
:1002ED00C2D5EC30E709B2D5E4C39DFDE49CFCEE2C
:1002FD0030E715B2D5E4C39FFFE49EFE120337C36A
:10030D00E49DFDE49CFC800312033730D507C3E464
:06031D009FFFE49EFE229A
:0E032300C3E49FFFE49EFEE49DFDE49CFC22EB
:060331008A838982E47357
:10047200020A32E493A3F8E493A34003F68001F264
:1004820008DFF48029E493A3F85407240CC8C3338B
:10049200C4540F4420C8834004F456800146F6DF5A
:1004A200E4800B01020408102040809005D6E47E0F
:1004B200019360BCA3FF543F30E509541FFEE4934F
:1004C200A360010ECF54C025E060A840B8E493A316
:1004D200FAE493A3F8E493A3C8C582C8CAC583CA41
:1004E200F0A3C8C582C8CAC583CADFE9DEE780BEF9
:0106450000B4
:10033700BC000BBE0029EF8DF084FFADF022E4CCAA
:10034700F875F008EF2FFFEE33FEEC33FCEE9DEC73
:10035700984005FCEE9DFE0FD5F0E9E4CEFD22EDB9
:10036700F8F5F0EE8420D21CFEADF075F008EF2F03
:10037700FFED33FD4007985006D5F0F222C398FDF4
:050387000FD5F0EA2291
:00000001FF
